{
  "_format": "hh-sol-artifact-1",
  "contractName": "HealthDataVerification",
  "sourceName": "contracts/HealthDataVerification.sol",
  "abi": [
    {
      "inputs": [],
      "stateMutability": "nonpayable",
      "type": "constructor"
    },
    {
      "anonymous": false,
      "inputs": [
        {
          "indexed": true,
          "internalType": "bytes32",
          "name": "submissionId",
          "type": "bytes32"
        },
        {
          "indexed": true,
          "internalType": "address",
          "name": "user",
          "type": "address"
        },
        {
          "indexed": false,
          "internalType": "string",
          "name": "reason",
          "type": "string"
        }
      ],
      "name": "HealthDataRejected",
      "type": "event"
    },
    {
      "anonymous": false,
      "inputs": [
        {
          "indexed": true,
          "internalType": "bytes32",
          "name": "submissionId",
          "type": "bytes32"
        },
        {
          "indexed": true,
          "internalType": "address",
          "name": "user",
          "type": "address"
        },
        {
          "indexed": false,
          "internalType": "string",
          "name": "dataType",
          "type": "string"
        },
        {
          "indexed": false,
          "internalType": "uint256",
          "name": "value",
          "type": "uint256"
        }
      ],
      "name": "HealthDataSubmitted",
      "type": "event"
    },
    {
      "anonymous": false,
      "inputs": [
        {
          "indexed": true,
          "internalType": "bytes32",
          "name": "submissionId",
          "type": "bytes32"
        },
        {
          "indexed": true,
          "internalType": "address",
          "name": "user",
          "type": "address"
        },
        {
          "indexed": false,
          "internalType": "string",
          "name": "dataType",
          "type": "string"
        },
        {
          "indexed": false,
          "internalType": "uint256",
          "name": "value",
          "type": "uint256"
        }
      ],
      "name": "HealthDataVerified",
      "type": "event"
    },
    {
      "anonymous": false,
      "inputs": [
        {
          "indexed": true,
          "internalType": "address",
          "name": "oracle",
          "type": "address"
        }
      ],
      "name": "OracleAdded",
      "type": "event"
    },
    {
      "anonymous": false,
      "inputs": [
        {
          "indexed": true,
          "internalType": "address",
          "name": "oracle",
          "type": "address"
        }
      ],
      "name": "OracleRemoved",
      "type": "event"
    },
    {
      "anonymous": false,
      "inputs": [
        {
          "indexed": true,
          "internalType": "address",
          "name": "previousOwner",
          "type": "address"
        },
        {
          "indexed": true,
          "internalType": "address",
          "name": "newOwner",
          "type": "address"
        }
      ],
      "name": "OwnershipTransferred",
      "type": "event"
    },
    {
      "anonymous": false,
      "inputs": [
        {
          "indexed": true,
          "internalType": "address",
          "name": "user",
          "type": "address"
        },
        {
          "indexed": false,
          "internalType": "string",
          "name": "dataType",
          "type": "string"
        },
        {
          "indexed": false,
          "internalType": "uint256",
          "name": "streakCount",
          "type": "uint256"
        }
      ],
      "name": "StreakUpdated",
      "type": "event"
    },
    {
      "inputs": [
        {
          "internalType": "address",
          "name": "oracle",
          "type": "address"
        }
      ],
      "name": "addOracle",
      "outputs": [],
      "stateMutability": "nonpayable",
      "type": "function"
    },
    {
      "inputs": [
        {
          "internalType": "bytes32",
          "name": "submissionId",
          "type": "bytes32"
        }
      ],
      "name": "getHealthDataDetails",
      "outputs": [
        {
          "internalType": "address",
          "name": "user",
          "type": "address"
        },
        {
          "internalType": "string",
          "name": "dataType",
          "type": "string"
        },
        {
          "internalType": "uint256",
          "name": "value",
          "type": "uint256"
        },
        {
          "internalType": "uint256",
          "name": "timestamp",
          "type": "uint256"
        },
        {
          "internalType": "enum HealthDataVerification.VerificationStatus",
          "name": "status",
          "type": "uint8"
        }
      ],
      "stateMutability": "view",
      "type": "function"
    },
    {
      "inputs": [
        {
          "internalType": "address",
          "name": "user",
          "type": "address"
        },
        {
          "internalType": "string",
          "name": "dataType",
          "type": "string"
        }
      ],
      "name": "getUserStatistic",
      "outputs": [
        {
          "internalType": "uint256",
          "name": "",
          "type": "uint256"
        }
      ],
      "stateMutability": "view",
      "type": "function"
    },
    {
      "inputs": [
        {
          "internalType": "address",
          "name": "user",
          "type": "address"
        },
        {
          "internalType": "string",
          "name": "dataType",
          "type": "string"
        }
      ],
      "name": "getUserStreak",
      "outputs": [
        {
          "internalType": "uint256",
          "name": "",
          "type": "uint256"
        }
      ],
      "stateMutability": "view",
      "type": "function"
    },
    {
      "inputs": [
        {
          "internalType": "address",
          "name": "user",
          "type": "address"
        },
        {
          "internalType": "string",
          "name": "dataType",
          "type": "string"
        }
      ],
      "name": "getUserSubmissionCount",
      "outputs": [
        {
          "internalType": "uint256",
          "name": "",
          "type": "uint256"
        }
      ],
      "stateMutability": "view",
      "type": "function"
    },
    {
      "inputs": [
        {
          "internalType": "bytes32",
          "name": "",
          "type": "bytes32"
        }
      ],
      "name": "healthData",
      "outputs": [
        {
          "internalType": "address",
          "name": "user",
          "type": "address"
        },
        {
          "internalType": "bytes32",
          "name": "dataHash",
          "type": "bytes32"
        },
        {
          "internalType": "uint256",
          "name": "timestamp",
          "type": "uint256"
        },
        {
          "internalType": "enum HealthDataVerification.VerificationStatus",
          "name": "status",
          "type": "uint8"
        },
        {
          "internalType": "uint256",
          "name": "challengeId",
          "type": "uint256"
        },
        {
          "internalType": "string",
          "name": "dataType",
          "type": "string"
        },
        {
          "internalType": "uint256",
          "name": "value",
          "type": "uint256"
        },
        {
          "internalType": "string",
          "name": "metadata",
          "type": "string"
        }
      ],
      "stateMutability": "view",
      "type": "function"
    },
    {
      "inputs": [],
      "name": "owner",
      "outputs": [
        {
          "internalType": "address",
          "name": "",
          "type": "address"
        }
      ],
      "stateMutability": "view",
      "type": "function"
    },
    {
      "inputs": [
        {
          "internalType": "bytes32",
          "name": "submissionId",
          "type": "bytes32"
        },
        {
          "internalType": "string",
          "name": "reason",
          "type": "string"
        }
      ],
      "name": "rejectHealthData",
      "outputs": [],
      "stateMutability": "nonpayable",
      "type": "function"
    },
    {
      "inputs": [
        {
          "internalType": "address",
          "name": "oracle",
          "type": "address"
        }
      ],
      "name": "removeOracle",
      "outputs": [],
      "stateMutability": "nonpayable",
      "type": "function"
    },
    {
      "inputs": [],
      "name": "renounceOwnership",
      "outputs": [],
      "stateMutability": "nonpayable",
      "type": "function"
    },
    {
      "inputs": [
        {
          "internalType": "address",
          "name": "user",
          "type": "address"
        },
        {
          "internalType": "string",
          "name": "dataType",
          "type": "string"
        },
        {
          "internalType": "uint256",
          "name": "value",
          "type": "uint256"
        },
        {
          "internalType": "uint256",
          "name": "challengeId",
          "type": "uint256"
        },
        {
          "internalType": "string",
          "name": "metadata",
          "type": "string"
        }
      ],
      "name": "submitHealthData",
      "outputs": [
        {
          "internalType": "bytes32",
          "name": "submissionId",
          "type": "bytes32"
        }
      ],
      "stateMutability": "nonpayable",
      "type": "function"
    },
    {
      "inputs": [
        {
          "internalType": "address",
          "name": "newOwner",
          "type": "address"
        }
      ],
      "name": "transferOwnership",
      "outputs": [],
      "stateMutability": "nonpayable",
      "type": "function"
    },
    {
      "inputs": [
        {
          "internalType": "address",
          "name": "",
          "type": "address"
        }
      ],
      "name": "trustedOracles",
      "outputs": [
        {
          "internalType": "bool",
          "name": "",
          "type": "bool"
        }
      ],
      "stateMutability": "view",
      "type": "function"
    },
    {
      "inputs": [
        {
          "internalType": "address",
          "name": "",
          "type": "address"
        },
        {
          "internalType": "string",
          "name": "",
          "type": "string"
        }
      ],
      "name": "userLastActivity",
      "outputs": [
        {
          "internalType": "uint256",
          "name": "",
          "type": "uint256"
        }
      ],
      "stateMutability": "view",
      "type": "function"
    },
    {
      "inputs": [
        {
          "internalType": "address",
          "name": "",
          "type": "address"
        },
        {
          "internalType": "string",
          "name": "",
          "type": "string"
        }
      ],
      "name": "userStatistics",
      "outputs": [
        {
          "internalType": "uint256",
          "name": "",
          "type": "uint256"
        }
      ],
      "stateMutability": "view",
      "type": "function"
    },
    {
      "inputs": [
        {
          "internalType": "address",
          "name": "",
          "type": "address"
        },
        {
          "internalType": "string",
          "name": "",
          "type": "string"
        }
      ],
      "name": "userStreaks",
      "outputs": [
        {
          "internalType": "uint256",
          "name": "",
          "type": "uint256"
        }
      ],
      "stateMutability": "view",
      "type": "function"
    },
    {
      "inputs": [
        {
          "internalType": "address",
          "name": "",
          "type": "address"
        },
        {
          "internalType": "string",
          "name": "",
          "type": "string"
        },
        {
          "internalType": "uint256",
          "name": "",
          "type": "uint256"
        }
      ],
      "name": "userSubmissions",
      "outputs": [
        {
          "internalType": "bytes32",
          "name": "",
          "type": "bytes32"
        }
      ],
      "stateMutability": "view",
      "type": "function"
    },
    {
      "inputs": [
        {
          "internalType": "bytes32",
          "name": "submissionId",
          "type": "bytes32"
        },
        {
          "internalType": "bytes",
          "name": "signature",
          "type": "bytes"
        }
      ],
      "name": "verifyHealthData",
      "outputs": [],
      "stateMutability": "nonpayable",
      "type": "function"
    }
  ],
  "bytecode": "0x608060405234801561001057600080fd5b5061002d61002261003960201b60201c565b61004160201b60201c565b60018081905550610105565b600033905090565b60008060009054906101000a900473ffffffffffffffffffffffffffffffffffffffff169050816000806101000a81548173ffffffffffffffffffffffffffffffffffffffff021916908373ffffffffffffffffffffffffffffffffffffffff1602179055508173ffffffffffffffffffffffffffffffffffffffff168173ffffffffffffffffffffffffffffffffffffffff167f8be0079c531659141344cd1fd0a4f28419497f9722a3daafe3b4186f6b6457e060405160405180910390a35050565b6135d7806101146000396000f3fe608060405234801561001057600080fd5b50600436106101165760003560e01c8063a191deb6116100a2578063ad4052e111610071578063ad4052e114610336578063db29660214610366578063df5dd1a514610396578063f2fde38b146103b2578063fdc85fc4146103ce57610116565b8063a191deb61461026b578063a321e77e146102a2578063a5ebae12146102d6578063a924eaaa1461030657610116565b80636882ee84116100e95780636882ee84146101b35780636e5ceefd146101e3578063715018a61461021357806373f5829c1461021d5780638da5cb5b1461024d57610116565b806311896e131461011b57806316fe36c2146101375780634630b6a3146101675780635625367f14610183575b600080fd5b61013560048036038101906101309190611ec6565b6103ea565b005b610151600480360381019061014c9190612010565b61086a565b60405161015e91906120db565b60405180910390f35b610181600480360381019061017c91906120f6565b610c45565b005b61019d60048036038101906101989190612297565b610e8c565b6040516101aa91906120db565b60405180910390f35b6101cd60048036038101906101c89190612306565b610ee0565b6040516101da9190612371565b60405180910390f35b6101fd60048036038101906101f8919061238c565b610f1b565b60405161020a9190612371565b60405180910390f35b61021b610f84565b005b61023760048036038101906102329190612306565b610f98565b6040516102449190612371565b60405180910390f35b610255610fd3565b60405161026291906123fb565b60405180910390f35b61028560048036038101906102809190612416565b610ffc565b604051610299989796959493929190612539565b60405180910390f35b6102bc60048036038101906102b79190612416565b611181565b6040516102cd9594939291906125c5565b60405180910390f35b6102f060048036038101906102eb919061238c565b611285565b6040516102fd9190612371565b60405180910390f35b610320600480360381019061031b9190612306565b6112f1565b60405161032d9190612371565b60405180910390f35b610350600480360381019061034b919061238c565b61132c565b60405161035d9190612371565b60405180910390f35b610380600480360381019061037b919061261f565b611395565b60405161038d9190612667565b60405180910390f35b6103b060048036038101906103ab919061261f565b6113b5565b005b6103cc60048036038101906103c7919061261f565b611556565b005b6103e860048036038101906103e3919061261f565b6115d9565b005b600360003373ffffffffffffffffffffffffffffffffffffffff1673ffffffffffffffffffffffffffffffffffffffff16815260200190815260200160002060009054906101000a900460ff16610476576040517f08c379a000000000000000000000000000000000000000000000000000000000815260040161046d906126ce565b60405180910390fd5b600060026000858152602001908152602001600020905060008160020154116104d4576040517f08c379a00000000000000000000000000000000000000000000000000000000081526004016104cb9061273a565b60405180910390fd5b600060028111156104e8576104e7612443565b5b8160030160009054906101000a900460ff16600281111561050c5761050b612443565b5b1461054c576040517f08c379a0000000000000000000000000000000000000000000000000000000008152600401610543906127a6565b60405180910390fd5b60008160010154604051602001610563919061283e565b60405160208183030381529060405280519060200120905060006105d485858080601f016020809104026020016040519081016040528093929190818152602001838380828437600081840152601f19601f820116905080830192505050505050508361170b90919063ffffffff16565b9050600360008273ffffffffffffffffffffffffffffffffffffffff1673ffffffffffffffffffffffffffffffffffffffff16815260200190815260200160002060009054906101000a900460ff16610662576040517f08c379a0000000000000000000000000000000000000000000000000000000008152600401610659906128b0565b60405180910390fd5b60018360030160006101000a81548160ff0219169083600281111561068a57610689612443565b5b02179055508260060154600560008560000160009054906101000a900473ffffffffffffffffffffffffffffffffffffffff1673ffffffffffffffffffffffffffffffffffffffff1673ffffffffffffffffffffffffffffffffffffffff1681526020019081526020016000208460050160405161070891906129c8565b908152602001604051809103902060008282546107259190612a0e565b925050819055506107e68360000160009054906101000a900473ffffffffffffffffffffffffffffffffffffffff16846005018054610763906128ff565b80601f016020809104026020016040519081016040528092919081815260200182805461078f906128ff565b80156107dc5780601f106107b1576101008083540402835291602001916107dc565b820191906000526020600020905b8154815290600101906020018083116107bf57829003601f168201915b5050505050611732565b8260000160009054906101000a900473ffffffffffffffffffffffffffffffffffffffff1673ffffffffffffffffffffffffffffffffffffffff16867f7df5e06bc0cbfaf8542e2d7f266631b48901542fa306807fae967130a131f0b485600501866006015460405161085a929190612ac6565b60405180910390a3505050505050565b60008773ffffffffffffffffffffffffffffffffffffffff163373ffffffffffffffffffffffffffffffffffffffff1614806108ef5750600360003373ffffffffffffffffffffffffffffffffffffffff1673ffffffffffffffffffffffffffffffffffffffff16815260200190815260200160002060009054906101000a900460ff165b61092e576040517f08c379a000000000000000000000000000000000000000000000000000000000815260040161092590612b42565b60405180910390fd5b87878787423360405160200161094996959493929190612bf0565b604051602081830303815290604052805190602001209050600088888888878760405160200161097e96959493929190612c4d565b6040516020818303038152906040528051906020012090506040518061010001604052808a73ffffffffffffffffffffffffffffffffffffffff168152602001828152602001428152602001600060028111156109de576109dd612443565b5b815260200186815260200189898080601f016020809104026020016040519081016040528093929190818152602001838380828437600081840152601f19601f82011690508083019250505050505050815260200187815260200185858080601f016020809104026020016040519081016040528093929190818152602001838380828437600081840152601f19601f820116905080830192505050505050508152506002600084815260200190815260200160002060008201518160000160006101000a81548173ffffffffffffffffffffffffffffffffffffffff021916908373ffffffffffffffffffffffffffffffffffffffff160217905550602082015181600101556040820151816002015560608201518160030160006101000a81548160ff02191690836002811115610b1a57610b19612443565b5b02179055506080820151816004015560a0820151816005019081610b3e9190612e2e565b5060c0820151816006015560e0820151816007019081610b5e9190612e2e565b50905050600460008a73ffffffffffffffffffffffffffffffffffffffff1673ffffffffffffffffffffffffffffffffffffffff1681526020019081526020016000208888604051610bb1929190612f00565b90815260200160405180910390208290806001815401808255809150506001900390600052602060002001600090919091909150558873ffffffffffffffffffffffffffffffffffffffff16827fac80e9c7ff856877ca48725a604c6ba8d6406aa874a6c2c6820e0b9f2fbe39968a8a8a604051610c3193929190612f46565b60405180910390a350979650505050505050565b600360003373ffffffffffffffffffffffffffffffffffffffff1673ffffffffffffffffffffffffffffffffffffffff16815260200190815260200160002060009054906101000a900460ff1680610ccf5750610ca0610fd3565b73ffffffffffffffffffffffffffffffffffffffff163373ffffffffffffffffffffffffffffffffffffffff16145b610d0e576040517f08c379a0000000000000000000000000000000000000000000000000000000008152600401610d0590612fc4565b60405180910390fd5b60006002600085815260200190815260200160002090506000816002015411610d6c576040517f08c379a0000000000000000000000000000000000000000000000000000000008152600401610d6390613030565b60405180910390fd5b60006002811115610d8057610d7f612443565b5b8160030160009054906101000a900460ff166002811115610da457610da3612443565b5b14610de4576040517f08c379a0000000000000000000000000000000000000000000000000000000008152600401610ddb906127a6565b60405180910390fd5b60028160030160006101000a81548160ff02191690836002811115610e0c57610e0b612443565b5b02179055508060000160009054906101000a900473ffffffffffffffffffffffffffffffffffffffff1673ffffffffffffffffffffffffffffffffffffffff16847fcee09f2aae9ae32549c308fe44a77f0411ad245ff875e396e6e647efe5fbb2b48585604051610e7e929190613050565b60405180910390a350505050565b6004602052826000526040600020828051602081018201805184825260208301602085012081835280955050505050508181548110610eca57600080fd5b9060005260206000200160009250925050505481565b600760205281600052604060002081805160208101820180518482526020830160208501208183528095505050505050600091509150505481565b6000600560008573ffffffffffffffffffffffffffffffffffffffff1673ffffffffffffffffffffffffffffffffffffffff1681526020019081526020016000208383604051610f6c929190612f00565b90815260200160405180910390205490509392505050565b610f8c611a34565b610f966000611ab2565b565b600660205281600052604060002081805160208101820180518482526020830160208501208183528095505050505050600091509150505481565b60008060009054906101000a900473ffffffffffffffffffffffffffffffffffffffff16905090565b60026020528060005260406000206000915090508060000160009054906101000a900473ffffffffffffffffffffffffffffffffffffffff16908060010154908060020154908060030160009054906101000a900460ff169080600401549080600501805461106a906128ff565b80601f0160208091040260200160405190810160405280929190818152602001828054611096906128ff565b80156110e35780601f106110b8576101008083540402835291602001916110e3565b820191906000526020600020905b8154815290600101906020018083116110c657829003601f168201915b5050505050908060060154908060070180546110fe906128ff565b80601f016020809104026020016040519081016040528092919081815260200182805461112a906128ff565b80156111775780601f1061114c57610100808354040283529160200191611177565b820191906000526020600020905b81548152906001019060200180831161115a57829003601f168201915b5050505050905088565b600060606000806000806002600088815260200190815260200160002090508060000160009054906101000a900473ffffffffffffffffffffffffffffffffffffffff1681600501826006015483600201548460030160009054906101000a900460ff168380546111f1906128ff565b80601f016020809104026020016040519081016040528092919081815260200182805461121d906128ff565b801561126a5780601f1061123f5761010080835404028352916020019161126a565b820191906000526020600020905b81548152906001019060200180831161124d57829003601f168201915b50505050509350955095509550955095505091939590929450565b6000600460008573ffffffffffffffffffffffffffffffffffffffff1673ffffffffffffffffffffffffffffffffffffffff16815260200190815260200160002083836040516112d6929190612f00565b90815260200160405180910390208054905090509392505050565b600560205281600052604060002081805160208101820180518482526020830160208501208183528095505050505050600091509150505481565b6000600660008573ffffffffffffffffffffffffffffffffffffffff1673ffffffffffffffffffffffffffffffffffffffff168152602001908152602001600020838360405161137d929190612f00565b90815260200160405180910390205490509392505050565b60036020528060005260406000206000915054906101000a900460ff1681565b6113bd611a34565b600073ffffffffffffffffffffffffffffffffffffffff168173ffffffffffffffffffffffffffffffffffffffff160361142c576040517f08c379a0000000000000000000000000000000000000000000000000000000008152600401611423906130c0565b60405180910390fd5b600360008273ffffffffffffffffffffffffffffffffffffffff1673ffffffffffffffffffffffffffffffffffffffff16815260200190815260200160002060009054906101000a900460ff16156114b9576040517f08c379a00000000000000000000000000000000000000000000000000000000081526004016114b09061312c565b60405180910390fd5b6001600360008373ffffffffffffffffffffffffffffffffffffffff1673ffffffffffffffffffffffffffffffffffffffff16815260200190815260200160002060006101000a81548160ff0219169083151502179055508073ffffffffffffffffffffffffffffffffffffffff167e47706786c922d17b39285dc59d696bafea72c0b003d3841ae1202076f4c2e460405160405180910390a250565b61155e611a34565b600073ffffffffffffffffffffffffffffffffffffffff168173ffffffffffffffffffffffffffffffffffffffff16036115cd576040517f08c379a00000000000000000000000000000000000000000000000000000000081526004016115c4906131be565b60405180910390fd5b6115d681611ab2565b50565b6115e1611a34565b600360008273ffffffffffffffffffffffffffffffffffffffff1673ffffffffffffffffffffffffffffffffffffffff16815260200190815260200160002060009054906101000a900460ff1661166d576040517f08c379a00000000000000000000000000000000000000000000000000000000081526004016116649061322a565b60405180910390fd5b6000600360008373ffffffffffffffffffffffffffffffffffffffff1673ffffffffffffffffffffffffffffffffffffffff16815260200190815260200160002060006101000a81548160ff0219169083151502179055508073ffffffffffffffffffffffffffffffffffffffff167f9c8e7d83025bef8a04c664b2f753f64b8814bdb7e27291d7e50935f18cc3c71260405160405180910390a250565b600080600061171a8585611b76565b9150915061172781611bc7565b819250505092915050565b6000600760008473ffffffffffffffffffffffffffffffffffffffff1673ffffffffffffffffffffffffffffffffffffffff16815260200190815260200160002082604051611781919061327b565b9081526020016040518091039020549050600062015180426117a391906132c1565b9050600062015180836117b691906132c1565b905060008303611826576001600660008773ffffffffffffffffffffffffffffffffffffffff1673ffffffffffffffffffffffffffffffffffffffff1681526020019081526020016000208560405161180f919061327b565b908152602001604051809103902081905550611921565b80820361183557505050611a30565b6001816118429190612a0e565b82036118be57600660008673ffffffffffffffffffffffffffffffffffffffff1673ffffffffffffffffffffffffffffffffffffffff16815260200190815260200160002084604051611895919061327b565b908152602001604051809103902060008154809291906118b4906132f2565b9190505550611920565b6001600660008773ffffffffffffffffffffffffffffffffffffffff1673ffffffffffffffffffffffffffffffffffffffff1681526020019081526020016000208560405161190d919061327b565b9081526020016040518091039020819055505b5b42600760008773ffffffffffffffffffffffffffffffffffffffff1673ffffffffffffffffffffffffffffffffffffffff1681526020019081526020016000208560405161196f919061327b565b9081526020016040518091039020819055508473ffffffffffffffffffffffffffffffffffffffff167ff65808146f28ed2d6bd0dcd672f182c311183ba8d5396a6494da87c35accd5a285600660008973ffffffffffffffffffffffffffffffffffffffff1673ffffffffffffffffffffffffffffffffffffffff16815260200190815260200160002087604051611a07919061327b565b908152602001604051809103902054604051611a2492919061333a565b60405180910390a25050505b5050565b611a3c611d2d565b73ffffffffffffffffffffffffffffffffffffffff16611a5a610fd3565b73ffffffffffffffffffffffffffffffffffffffff1614611ab0576040517f08c379a0000000000000000000000000000000000000000000000000000000008152600401611aa7906133b6565b60405180910390fd5b565b60008060009054906101000a900473ffffffffffffffffffffffffffffffffffffffff169050816000806101000a81548173ffffffffffffffffffffffffffffffffffffffff021916908373ffffffffffffffffffffffffffffffffffffffff1602179055508173ffffffffffffffffffffffffffffffffffffffff168173ffffffffffffffffffffffffffffffffffffffff167f8be0079c531659141344cd1fd0a4f28419497f9722a3daafe3b4186f6b6457e060405160405180910390a35050565b6000806041835103611bb75760008060006020860151925060408601519150606086015160001a9050611bab87828585611d35565b94509450505050611bc0565b60006002915091505b9250929050565b60006004811115611bdb57611bda612443565b5b816004811115611bee57611bed612443565b5b0315611d2a5760016004811115611c0857611c07612443565b5b816004811115611c1b57611c1a612443565b5b03611c5b576040517f08c379a0000000000000000000000000000000000000000000000000000000008152600401611c5290613422565b60405180910390fd5b60026004811115611c6f57611c6e612443565b5b816004811115611c8257611c81612443565b5b03611cc2576040517f08c379a0000000000000000000000000000000000000000000000000000000008152600401611cb99061348e565b60405180910390fd5b60036004811115611cd657611cd5612443565b5b816004811115611ce957611ce8612443565b5b03611d29576040517f08c379a0000000000000000000000000000000000000000000000000000000008152600401611d2090613520565b60405180910390fd5b5b50565b600033905090565b6000807f7fffffffffffffffffffffffffffffff5d576e7357a4501ddfe92f46681b20a08360001c1115611d70576000600391509150611e0e565b600060018787878760405160008152602001604052604051611d95949392919061355c565b6020604051602081039080840390855afa158015611db7573d6000803e3d6000fd5b505050602060405103519050600073ffffffffffffffffffffffffffffffffffffffff168173ffffffffffffffffffffffffffffffffffffffff1603611e0557600060019250925050611e0e565b80600092509250505b94509492505050565b6000604051905090565b600080fd5b600080fd5b6000819050919050565b611e3e81611e2b565b8114611e4957600080fd5b50565b600081359050611e5b81611e35565b92915050565b600080fd5b600080fd5b600080fd5b60008083601f840112611e8657611e85611e61565b5b8235905067ffffffffffffffff811115611ea357611ea2611e66565b5b602083019150836001820283011115611ebf57611ebe611e6b565b5b9250929050565b600080600060408486031215611edf57611ede611e21565b5b6000611eed86828701611e4c565b935050602084013567ffffffffffffffff811115611f0e57611f0d611e26565b5b611f1a86828701611e70565b92509250509250925092565b600073ffffffffffffffffffffffffffffffffffffffff82169050919050565b6000611f5182611f26565b9050919050565b611f6181611f46565b8114611f6c57600080fd5b50565b600081359050611f7e81611f58565b92915050565b60008083601f840112611f9a57611f99611e61565b5b8235905067ffffffffffffffff811115611fb757611fb6611e66565b5b602083019150836001820283011115611fd357611fd2611e6b565b5b9250929050565b6000819050919050565b611fed81611fda565b8114611ff857600080fd5b50565b60008135905061200a81611fe4565b92915050565b600080600080600080600060a0888a03121561202f5761202e611e21565b5b600061203d8a828b01611f6f565b975050602088013567ffffffffffffffff81111561205e5761205d611e26565b5b61206a8a828b01611f84565b9650965050604061207d8a828b01611ffb565b945050606061208e8a828b01611ffb565b935050608088013567ffffffffffffffff8111156120af576120ae611e26565b5b6120bb8a828b01611f84565b925092505092959891949750929550565b6120d581611e2b565b82525050565b60006020820190506120f060008301846120cc565b92915050565b60008060006040848603121561210f5761210e611e21565b5b600061211d86828701611e4c565b935050602084013567ffffffffffffffff81111561213e5761213d611e26565b5b61214a86828701611f84565b92509250509250925092565b600080fd5b6000601f19601f8301169050919050565b7f4e487b7100000000000000000000000000000000000000000000000000000000600052604160045260246000fd5b6121a48261215b565b810181811067ffffffffffffffff821117156121c3576121c261216c565b5b80604052505050565b60006121d6611e17565b90506121e2828261219b565b919050565b600067ffffffffffffffff8211156122025761220161216c565b5b61220b8261215b565b9050602081019050919050565b82818337600083830152505050565b600061223a612235846121e7565b6121cc565b90508281526020810184848401111561225657612255612156565b5b612261848285612218565b509392505050565b600082601f83011261227e5761227d611e61565b5b813561228e848260208601612227565b91505092915050565b6000806000606084860312156122b0576122af611e21565b5b60006122be86828701611f6f565b935050602084013567ffffffffffffffff8111156122df576122de611e26565b5b6122eb86828701612269565b92505060406122fc86828701611ffb565b9150509250925092565b6000806040838503121561231d5761231c611e21565b5b600061232b85828601611f6f565b925050602083013567ffffffffffffffff81111561234c5761234b611e26565b5b61235885828601612269565b9150509250929050565b61236b81611fda565b82525050565b60006020820190506123866000830184612362565b92915050565b6000806000604084860312156123a5576123a4611e21565b5b60006123b386828701611f6f565b935050602084013567ffffffffffffffff8111156123d4576123d3611e26565b5b6123e086828701611f84565b92509250509250925092565b6123f581611f46565b82525050565b600060208201905061241060008301846123ec565b92915050565b60006020828403121561242c5761242b611e21565b5b600061243a84828501611e4c565b91505092915050565b7f4e487b7100000000000000000000000000000000000000000000000000000000600052602160045260246000fd5b6003811061248357612482612443565b5b50565b600081905061249482612472565b919050565b60006124a482612486565b9050919050565b6124b481612499565b82525050565b600081519050919050565b600082825260208201905092915050565b60005b838110156124f45780820151818401526020810190506124d9565b60008484015250505050565b600061250b826124ba565b61251581856124c5565b93506125258185602086016124d6565b61252e8161215b565b840191505092915050565b60006101008201905061254f600083018b6123ec565b61255c602083018a6120cc565b6125696040830189612362565b61257660608301886124ab565b6125836080830187612362565b81810360a08301526125958186612500565b90506125a460c0830185612362565b81810360e08301526125b68184612500565b90509998505050505050505050565b600060a0820190506125da60008301886123ec565b81810360208301526125ec8187612500565b90506125fb6040830186612362565b6126086060830185612362565b61261560808301846124ab565b9695505050505050565b60006020828403121561263557612634611e21565b5b600061264384828501611f6f565b91505092915050565b60008115159050919050565b6126618161264c565b82525050565b600060208201905061267c6000830184612658565b92915050565b7f43616c6c6572206973206e6f7420612074727573746564206f7261636c650000600082015250565b60006126b8601e836124c5565b91506126c382612682565b602082019050919050565b600060208201905081810360008301526126e7816126ab565b9050919050565b7f5375626d697373696f6e206e6f7420666f756e64000000000000000000000000600082015250565b60006127246014836124c5565b915061272f826126ee565b602082019050919050565b6000602082019050818103600083015261275381612717565b9050919050565b7f416c72656164792070726f636573736564000000000000000000000000000000600082015250565b60006127906011836124c5565b915061279b8261275a565b602082019050919050565b600060208201905081810360008301526127bf81612783565b9050919050565b600081905092915050565b7f19457468657265756d205369676e6564204d6573736167653a0a333200000000600082015250565b6000612807601c836127c6565b9150612812826127d1565b601c82019050919050565b6000819050919050565b61283861283382611e2b565b61281d565b82525050565b6000612849826127fa565b91506128558284612827565b60208201915081905092915050565b7f496e76616c6964207369676e6174757265000000000000000000000000000000600082015250565b600061289a6011836124c5565b91506128a582612864565b602082019050919050565b600060208201905081810360008301526128c98161288d565b9050919050565b7f4e487b7100000000000000000000000000000000000000000000000000000000600052602260045260246000fd5b6000600282049050600182168061291757607f821691505b60208210810361292a576129296128d0565b5b50919050565b60008190508160005260206000209050919050565b60008154612952816128ff565b61295c81866127c6565b94506001821660008114612977576001811461298c576129bf565b60ff19831686528115158202860193506129bf565b61299585612930565b60005b838110156129b757815481890152600182019150602081019050612998565b838801955050505b50505092915050565b60006129d48284612945565b915081905092915050565b7f4e487b7100000000000000000000000000000000000000000000000000000000600052601160045260246000fd5b6000612a1982611fda565b9150612a2483611fda565b9250828201905080821115612a3c57612a3b6129df565b5b92915050565b60008154612a4f816128ff565b612a5981866124c5565b94506001821660008114612a745760018114612a8a57612abd565b60ff198316865281151560200286019350612abd565b612a9385612930565b60005b83811015612ab557815481890152600182019150602081019050612a96565b808801955050505b50505092915050565b60006040820190508181036000830152612ae08185612a42565b9050612aef6020830184612362565b9392505050565b7f556e617574686f72697a6564207375626d697474657200000000000000000000600082015250565b6000612b2c6016836124c5565b9150612b3782612af6565b602082019050919050565b60006020820190508181036000830152612b5b81612b1f565b9050919050565b60008160601b9050919050565b6000612b7a82612b62565b9050919050565b6000612b8c82612b6f565b9050919050565b612ba4612b9f82611f46565b612b81565b82525050565b6000612bb683856127c6565b9350612bc3838584612218565b82840190509392505050565b6000819050919050565b612bea612be582611fda565b612bcf565b82525050565b6000612bfc8289612b93565b601482019150612c0d828789612baa565b9150612c198286612bd9565b602082019150612c298285612bd9565b602082019150612c398284612b93565b601482019150819050979650505050505050565b6000612c598289612b93565b601482019150612c6a828789612baa565b9150612c768286612bd9565b602082019150612c87828486612baa565b9150819050979650505050505050565b60006020601f8301049050919050565b600082821b905092915050565b600060088302612ce47fffffffffffffffffffffffffffffffffffffffffffffffffffffffffffffffff82612ca7565b612cee8683612ca7565b95508019841693508086168417925050509392505050565b6000819050919050565b6000612d2b612d26612d2184611fda565b612d06565b611fda565b9050919050565b6000819050919050565b612d4583612d10565b612d59612d5182612d32565b848454612cb4565b825550505050565b600090565b612d6e612d61565b612d79818484612d3c565b505050565b5b81811015612d9d57612d92600082612d66565b600181019050612d7f565b5050565b601f821115612de257612db381612930565b612dbc84612c97565b81016020851015612dcb578190505b612ddf612dd785612c97565b830182612d7e565b50505b505050565b600082821c905092915050565b6000612e0560001984600802612de7565b1980831691505092915050565b6000612e1e8383612df4565b9150826002028217905092915050565b612e37826124ba565b67ffffffffffffffff811115612e5057612e4f61216c565b5b612e5a82546128ff565b612e65828285612da1565b600060209050601f831160018114612e985760008415612e86578287015190505b612e908582612e12565b865550612ef8565b601f198416612ea686612930565b60005b82811015612ece57848901518255600182019150602085019450602081019050612ea9565b86831015612eeb5784890151612ee7601f891682612df4565b8355505b6001600288020188555050505b505050505050565b6000612f0d828486612baa565b91508190509392505050565b6000612f2583856124c5565b9350612f32838584612218565b612f3b8361215b565b840190509392505050565b60006040820190508181036000830152612f61818587612f19565b9050612f706020830184612362565b949350505050565b7f4e6f7420617574686f72697a656420746f2072656a6563740000000000000000600082015250565b6000612fae6018836124c5565b9150612fb982612f78565b602082019050919050565b60006020820190508181036000830152612fdd81612fa1565b9050919050565b7f5375626d697373696f6e20646f6573206e6f7420657869737400000000000000600082015250565b600061301a6019836124c5565b915061302582612fe4565b602082019050919050565b600060208201905081810360008301526130498161300d565b9050919050565b6000602082019050818103600083015261306b818486612f19565b90509392505050565b7f496e76616c6964206f7261636c65206164647265737300000000000000000000600082015250565b60006130aa6016836124c5565b91506130b582613074565b602082019050919050565b600060208201905081810360008301526130d98161309d565b9050919050565b7f4f7261636c6520616c7265616479207472757374656400000000000000000000600082015250565b60006131166016836124c5565b9150613121826130e0565b602082019050919050565b6000602082019050818103600083015261314581613109565b9050919050565b7f4f776e61626c653a206e6577206f776e657220697320746865207a65726f206160008201527f6464726573730000000000000000000000000000000000000000000000000000602082015250565b60006131a86026836124c5565b91506131b38261314c565b604082019050919050565b600060208201905081810360008301526131d78161319b565b9050919050565b7f4f7261636c65206e6f7420747275737465640000000000000000000000000000600082015250565b60006132146012836124c5565b915061321f826131de565b602082019050919050565b6000602082019050818103600083015261324381613207565b9050919050565b6000613255826124ba565b61325f81856127c6565b935061326f8185602086016124d6565b80840191505092915050565b6000613287828461324a565b915081905092915050565b7f4e487b7100000000000000000000000000000000000000000000000000000000600052601260045260246000fd5b60006132cc82611fda565b91506132d783611fda565b9250826132e7576132e6613292565b5b828204905092915050565b60006132fd82611fda565b91507fffffffffffffffffffffffffffffffffffffffffffffffffffffffffffffffff820361332f5761332e6129df565b5b600182019050919050565b600060408201905081810360008301526133548185612500565b90506133636020830184612362565b9392505050565b7f4f776e61626c653a2063616c6c6572206973206e6f7420746865206f776e6572600082015250565b60006133a06020836124c5565b91506133ab8261336a565b602082019050919050565b600060208201905081810360008301526133cf81613393565b9050919050565b7f45434453413a20696e76616c6964207369676e61747572650000000000000000600082015250565b600061340c6018836124c5565b9150613417826133d6565b602082019050919050565b6000602082019050818103600083015261343b816133ff565b9050919050565b7f45434453413a20696e76616c6964207369676e6174757265206c656e67746800600082015250565b6000613478601f836124c5565b915061348382613442565b602082019050919050565b600060208201905081810360008301526134a78161346b565b9050919050565b7f45434453413a20696e76616c6964207369676e6174757265202773272076616c60008201527f7565000000000000000000000000000000000000000000000000000000000000602082015250565b600061350a6022836124c5565b9150613515826134ae565b604082019050919050565b60006020820190508181036000830152613539816134fd565b9050919050565b600060ff82169050919050565b61355681613540565b82525050565b600060808201905061357160008301876120cc565b61357e602083018661354d565b61358b60408301856120cc565b61359860608301846120cc565b9594505050505056fea26469706673582212205559fd6b7d748343a2c790c265a52cfbe5e332b9a74c64d3417f7cdc1339638b64736f6c634300081c0033",
  "linkReferences": {},
  "deployedLinkReferences": {}
}