{
  "_format": "hh-sol-artifact-1",
  "contractName": "HealthDataVerification",
  "sourceName": "contracts/HealthDataVerification.sol",
  "abi": [
    {
      "inputs": [],
      "stateMutability": "nonpayable",
      "type": "constructor"
    },
    {
      "anonymous": false,
      "inputs": [
        {
          "indexed": true,
          "internalType": "bytes32",
          "name": "submissionId",
          "type": "bytes32"
        },
        {
          "indexed": true,
          "internalType": "address",
          "name": "user",
          "type": "address"
        },
        {
          "indexed": false,
          "internalType": "string",
          "name": "reason",
          "type": "string"
        }
      ],
      "name": "HealthDataRejected",
      "type": "event"
    },
    {
      "anonymous": false,
      "inputs": [
        {
          "indexed": true,
          "internalType": "bytes32",
          "name": "submissionId",
          "type": "bytes32"
        },
        {
          "indexed": true,
          "internalType": "address",
          "name": "user",
          "type": "address"
        },
        {
          "indexed": false,
          "internalType": "string",
          "name": "dataType",
          "type": "string"
        },
        {
          "indexed": false,
          "internalType": "uint256",
          "name": "value",
          "type": "uint256"
        }
      ],
      "name": "HealthDataSubmitted",
      "type": "event"
    },
    {
      "anonymous": false,
      "inputs": [
        {
          "indexed": true,
          "internalType": "bytes32",
          "name": "submissionId",
          "type": "bytes32"
        },
        {
          "indexed": true,
          "internalType": "address",
          "name": "user",
          "type": "address"
        },
        {
          "indexed": false,
          "internalType": "string",
          "name": "dataType",
          "type": "string"
        },
        {
          "indexed": false,
          "internalType": "uint256",
          "name": "value",
          "type": "uint256"
        }
      ],
      "name": "HealthDataVerified",
      "type": "event"
    },
    {
      "anonymous": false,
      "inputs": [
        {
          "indexed": true,
          "internalType": "address",
          "name": "oracle",
          "type": "address"
        }
      ],
      "name": "OracleAdded",
      "type": "event"
    },
    {
      "anonymous": false,
      "inputs": [
        {
          "indexed": true,
          "internalType": "address",
          "name": "oracle",
          "type": "address"
        }
      ],
      "name": "OracleRemoved",
      "type": "event"
    },
    {
      "anonymous": false,
      "inputs": [
        {
          "indexed": true,
          "internalType": "address",
          "name": "previousOwner",
          "type": "address"
        },
        {
          "indexed": true,
          "internalType": "address",
          "name": "newOwner",
          "type": "address"
        }
      ],
      "name": "OwnershipTransferred",
      "type": "event"
    },
    {
      "anonymous": false,
      "inputs": [
        {
          "indexed": true,
          "internalType": "address",
          "name": "user",
          "type": "address"
        },
        {
          "indexed": false,
          "internalType": "string",
          "name": "dataType",
          "type": "string"
        },
        {
          "indexed": false,
          "internalType": "uint256",
          "name": "streakCount",
          "type": "uint256"
        }
      ],
      "name": "StreakUpdated",
      "type": "event"
    },
    {
      "inputs": [
        {
          "internalType": "address",
          "name": "oracle",
          "type": "address"
        }
      ],
      "name": "addOracle",
      "outputs": [],
      "stateMutability": "nonpayable",
      "type": "function"
    },
    {
      "inputs": [
        {
          "internalType": "bytes32",
          "name": "submissionId",
          "type": "bytes32"
        }
      ],
      "name": "getHealthDataDetails",
      "outputs": [
        {
          "internalType": "address",
          "name": "user",
          "type": "address"
        },
        {
          "internalType": "string",
          "name": "dataType",
          "type": "string"
        },
        {
          "internalType": "uint256",
          "name": "value",
          "type": "uint256"
        },
        {
          "internalType": "uint256",
          "name": "timestamp",
          "type": "uint256"
        },
        {
          "internalType": "enum HealthDataVerification.VerificationStatus",
          "name": "status",
          "type": "uint8"
        }
      ],
      "stateMutability": "view",
      "type": "function"
    },
    {
      "inputs": [
        {
          "internalType": "address",
          "name": "user",
          "type": "address"
        },
        {
          "internalType": "string",
          "name": "dataType",
          "type": "string"
        }
      ],
      "name": "getUserStatistic",
      "outputs": [
        {
          "internalType": "uint256",
          "name": "",
          "type": "uint256"
        }
      ],
      "stateMutability": "view",
      "type": "function"
    },
    {
      "inputs": [
        {
          "internalType": "address",
          "name": "user",
          "type": "address"
        },
        {
          "internalType": "string",
          "name": "dataType",
          "type": "string"
        }
      ],
      "name": "getUserStreak",
      "outputs": [
        {
          "internalType": "uint256",
          "name": "",
          "type": "uint256"
        }
      ],
      "stateMutability": "view",
      "type": "function"
    },
    {
      "inputs": [
        {
          "internalType": "address",
          "name": "user",
          "type": "address"
        },
        {
          "internalType": "string",
          "name": "dataType",
          "type": "string"
        }
      ],
      "name": "getUserSubmissionCount",
      "outputs": [
        {
          "internalType": "uint256",
          "name": "",
          "type": "uint256"
        }
      ],
      "stateMutability": "view",
      "type": "function"
    },
    {
      "inputs": [
        {
          "internalType": "bytes32",
          "name": "",
          "type": "bytes32"
        }
      ],
      "name": "healthData",
      "outputs": [
        {
          "internalType": "address",
          "name": "user",
          "type": "address"
        },
        {
          "internalType": "bytes32",
          "name": "dataHash",
          "type": "bytes32"
        },
        {
          "internalType": "uint256",
          "name": "timestamp",
          "type": "uint256"
        },
        {
          "internalType": "enum HealthDataVerification.VerificationStatus",
          "name": "status",
          "type": "uint8"
        },
        {
          "internalType": "uint256",
          "name": "challengeId",
          "type": "uint256"
        },
        {
          "internalType": "string",
          "name": "dataType",
          "type": "string"
        },
        {
          "internalType": "uint256",
          "name": "value",
          "type": "uint256"
        },
        {
          "internalType": "string",
          "name": "metadata",
          "type": "string"
        }
      ],
      "stateMutability": "view",
      "type": "function"
    },
    {
      "inputs": [],
      "name": "owner",
      "outputs": [
        {
          "internalType": "address",
          "name": "",
          "type": "address"
        }
      ],
      "stateMutability": "view",
      "type": "function"
    },
    {
      "inputs": [
        {
          "internalType": "bytes32",
          "name": "submissionId",
          "type": "bytes32"
        },
        {
          "internalType": "string",
          "name": "reason",
          "type": "string"
        }
      ],
      "name": "rejectHealthData",
      "outputs": [],
      "stateMutability": "nonpayable",
      "type": "function"
    },
    {
      "inputs": [
        {
          "internalType": "address",
          "name": "oracle",
          "type": "address"
        }
      ],
      "name": "removeOracle",
      "outputs": [],
      "stateMutability": "nonpayable",
      "type": "function"
    },
    {
      "inputs": [],
      "name": "renounceOwnership",
      "outputs": [],
      "stateMutability": "nonpayable",
      "type": "function"
    },
    {
      "inputs": [
        {
          "internalType": "address",
          "name": "user",
          "type": "address"
        },
        {
          "internalType": "string",
          "name": "dataType",
          "type": "string"
        },
        {
          "internalType": "uint256",
          "name": "value",
          "type": "uint256"
        },
        {
          "internalType": "uint256",
          "name": "challengeId",
          "type": "uint256"
        },
        {
          "internalType": "string",
          "name": "metadata",
          "type": "string"
        }
      ],
      "name": "submitHealthData",
      "outputs": [
        {
          "internalType": "bytes32",
          "name": "submissionId",
          "type": "bytes32"
        }
      ],
      "stateMutability": "nonpayable",
      "type": "function"
    },
    {
      "inputs": [
        {
          "internalType": "address",
          "name": "newOwner",
          "type": "address"
        }
      ],
      "name": "transferOwnership",
      "outputs": [],
      "stateMutability": "nonpayable",
      "type": "function"
    },
    {
      "inputs": [
        {
          "internalType": "address",
          "name": "",
          "type": "address"
        }
      ],
      "name": "trustedOracles",
      "outputs": [
        {
          "internalType": "bool",
          "name": "",
          "type": "bool"
        }
      ],
      "stateMutability": "view",
      "type": "function"
    },
    {
      "inputs": [
        {
          "internalType": "address",
          "name": "",
          "type": "address"
        },
        {
          "internalType": "string",
          "name": "",
          "type": "string"
        }
      ],
      "name": "userLastActivity",
      "outputs": [
        {
          "internalType": "uint256",
          "name": "",
          "type": "uint256"
        }
      ],
      "stateMutability": "view",
      "type": "function"
    },
    {
      "inputs": [
        {
          "internalType": "address",
          "name": "",
          "type": "address"
        },
        {
          "internalType": "string",
          "name": "",
          "type": "string"
        }
      ],
      "name": "userStatistics",
      "outputs": [
        {
          "internalType": "uint256",
          "name": "",
          "type": "uint256"
        }
      ],
      "stateMutability": "view",
      "type": "function"
    },
    {
      "inputs": [
        {
          "internalType": "address",
          "name": "",
          "type": "address"
        },
        {
          "internalType": "string",
          "name": "",
          "type": "string"
        }
      ],
      "name": "userStreaks",
      "outputs": [
        {
          "internalType": "uint256",
          "name": "",
          "type": "uint256"
        }
      ],
      "stateMutability": "view",
      "type": "function"
    },
    {
      "inputs": [
        {
          "internalType": "address",
          "name": "",
          "type": "address"
        },
        {
          "internalType": "string",
          "name": "",
          "type": "string"
        },
        {
          "internalType": "uint256",
          "name": "",
          "type": "uint256"
        }
      ],
      "name": "userSubmissions",
      "outputs": [
        {
          "internalType": "bytes32",
          "name": "",
          "type": "bytes32"
        }
      ],
      "stateMutability": "view",
      "type": "function"
    },
    {
      "inputs": [
        {
          "internalType": "bytes32",
          "name": "submissionId",
          "type": "bytes32"
        },
        {
          "internalType": "bytes",
          "name": "signature",
          "type": "bytes"
        }
      ],
      "name": "verifyHealthData",
      "outputs": [],
      "stateMutability": "nonpayable",
      "type": "function"
    }
  ],
  "bytecode": "0x608060405234801561001057600080fd5b5061002d61002261003960201b60201c565b61004160201b60201c565b60018081905550610105565b600033905090565b60008060009054906101000a900473ffffffffffffffffffffffffffffffffffffffff169050816000806101000a81548173ffffffffffffffffffffffffffffffffffffffff021916908373ffffffffffffffffffffffffffffffffffffffff1602179055508173ffffffffffffffffffffffffffffffffffffffff168173ffffffffffffffffffffffffffffffffffffffff167f8be0079c531659141344cd1fd0a4f28419497f9722a3daafe3b4186f6b6457e060405160405180910390a35050565b613590806101146000396000f3fe608060405234801561001057600080fd5b50600436106101165760003560e01c8063a191deb6116100a2578063ad4052e111610071578063ad4052e114610336578063db29660214610366578063df5dd1a514610396578063f2fde38b146103b2578063fdc85fc4146103ce57610116565b8063a191deb61461026b578063a321e77e146102a2578063a5ebae12146102d6578063a924eaaa1461030657610116565b80636882ee84116100e95780636882ee84146101b35780636e5ceefd146101e3578063715018a61461021357806373f5829c1461021d5780638da5cb5b1461024d57610116565b806311896e131461011b57806316fe36c2146101375780634630b6a3146101675780635625367f14610183575b600080fd5b61013560048036038101906101309190611eeb565b6103ea565b005b610151600480360381019061014c9190612035565b610913565b60405161015e9190612100565b60405180910390f35b610181600480360381019061017c919061211b565b610c6a565b005b61019d600480360381019061019891906122bc565b610eb1565b6040516101aa9190612100565b60405180910390f35b6101cd60048036038101906101c8919061232b565b610f05565b6040516101da9190612396565b60405180910390f35b6101fd60048036038101906101f891906123b1565b610f40565b60405161020a9190612396565b60405180910390f35b61021b610fa9565b005b6102376004803603810190610232919061232b565b610fbd565b6040516102449190612396565b60405180910390f35b610255610ff8565b6040516102629190612420565b60405180910390f35b6102856004803603810190610280919061243b565b611021565b60405161029998979695949392919061255e565b60405180910390f35b6102bc60048036038101906102b7919061243b565b6111a6565b6040516102cd9594939291906125ea565b60405180910390f35b6102f060048036038101906102eb91906123b1565b6112aa565b6040516102fd9190612396565b60405180910390f35b610320600480360381019061031b919061232b565b611316565b60405161032d9190612396565b60405180910390f35b610350600480360381019061034b91906123b1565b611351565b60405161035d9190612396565b60405180910390f35b610380600480360381019061037b9190612644565b6113ba565b60405161038d919061268c565b60405180910390f35b6103b060048036038101906103ab9190612644565b6113da565b005b6103cc60048036038101906103c79190612644565b61157b565b005b6103e860048036038101906103e39190612644565b6115fe565b005b600360003373ffffffffffffffffffffffffffffffffffffffff1673ffffffffffffffffffffffffffffffffffffffff16815260200190815260200160002060009054906101000a900460ff16610476576040517f08c379a000000000000000000000000000000000000000000000000000000000815260040161046d906126f3565b60405180910390fd5b600060026000858152602001908152602001600020905060008160020154116104d4576040517f08c379a00000000000000000000000000000000000000000000000000000000081526004016104cb9061275f565b60405180910390fd5b600060028111156104e8576104e7612468565b5b8160030160009054906101000a900460ff16600281111561050c5761050b612468565b5b1461054c576040517f08c379a0000000000000000000000000000000000000000000000000000000008152600401610543906127cb565b60405180910390fd5b600081600101546040516020016105639190612863565b60405160208183030381529060405280519060200120905060006105d485858080601f016020809104026020016040519081016040528093929190818152602001838380828437600081840152601f19601f820116905080830192505050505050508361173090919063ffffffff16565b9050600360008273ffffffffffffffffffffffffffffffffffffffff1673ffffffffffffffffffffffffffffffffffffffff16815260200190815260200160002060009054906101000a900460ff16610662576040517f08c379a0000000000000000000000000000000000000000000000000000000008152600401610659906128d5565b60405180910390fd5b60018360030160006101000a81548160ff0219169083600281111561068a57610689612468565b5b0217905550600460008460000160009054906101000a900473ffffffffffffffffffffffffffffffffffffffff1673ffffffffffffffffffffffffffffffffffffffff1673ffffffffffffffffffffffffffffffffffffffff1681526020019081526020016000208360050160405161070391906129ed565b90815260200160405180910390208690806001815401808255809150506001900390600052602060002001600090919091909150558260060154600560008560000160009054906101000a900473ffffffffffffffffffffffffffffffffffffffff1673ffffffffffffffffffffffffffffffffffffffff1673ffffffffffffffffffffffffffffffffffffffff168152602001908152602001600020846005016040516107b191906129ed565b908152602001604051809103902060008282546107ce9190612a33565b9250508190555061088f8360000160009054906101000a900473ffffffffffffffffffffffffffffffffffffffff1684600501805461080c90612924565b80601f016020809104026020016040519081016040528092919081815260200182805461083890612924565b80156108855780601f1061085a57610100808354040283529160200191610885565b820191906000526020600020905b81548152906001019060200180831161086857829003601f168201915b5050505050611757565b8260000160009054906101000a900473ffffffffffffffffffffffffffffffffffffffff1673ffffffffffffffffffffffffffffffffffffffff16867f7df5e06bc0cbfaf8542e2d7f266631b48901542fa306807fae967130a131f0b4856005018660060154604051610903929190612aeb565b60405180910390a3505050505050565b60008773ffffffffffffffffffffffffffffffffffffffff163373ffffffffffffffffffffffffffffffffffffffff1614806109985750600360003373ffffffffffffffffffffffffffffffffffffffff1673ffffffffffffffffffffffffffffffffffffffff16815260200190815260200160002060009054906101000a900460ff165b6109d7576040517f08c379a00000000000000000000000000000000000000000000000000000000081526004016109ce90612b67565b60405180910390fd5b8787878742336040516020016109f296959493929190612c15565b6040516020818303038152906040528051906020012090506000888888888787604051602001610a2796959493929190612c72565b6040516020818303038152906040528051906020012090506040518061010001604052808a73ffffffffffffffffffffffffffffffffffffffff16815260200182815260200142815260200160006002811115610a8757610a86612468565b5b815260200186815260200189898080601f016020809104026020016040519081016040528093929190818152602001838380828437600081840152601f19601f82011690508083019250505050505050815260200187815260200185858080601f016020809104026020016040519081016040528093929190818152602001838380828437600081840152601f19601f820116905080830192505050505050508152506002600084815260200190815260200160002060008201518160000160006101000a81548173ffffffffffffffffffffffffffffffffffffffff021916908373ffffffffffffffffffffffffffffffffffffffff160217905550602082015181600101556040820151816002015560608201518160030160006101000a81548160ff02191690836002811115610bc357610bc2612468565b5b02179055506080820151816004015560a0820151816005019081610be79190612e53565b5060c0820151816006015560e0820151816007019081610c079190612e53565b509050508873ffffffffffffffffffffffffffffffffffffffff16827fac80e9c7ff856877ca48725a604c6ba8d6406aa874a6c2c6820e0b9f2fbe39968a8a8a604051610c5693929190612f52565b60405180910390a350979650505050505050565b600360003373ffffffffffffffffffffffffffffffffffffffff1673ffffffffffffffffffffffffffffffffffffffff16815260200190815260200160002060009054906101000a900460ff1680610cf45750610cc5610ff8565b73ffffffffffffffffffffffffffffffffffffffff163373ffffffffffffffffffffffffffffffffffffffff16145b610d33576040517f08c379a0000000000000000000000000000000000000000000000000000000008152600401610d2a90612fd0565b60405180910390fd5b60006002600085815260200190815260200160002090506000816002015411610d91576040517f08c379a0000000000000000000000000000000000000000000000000000000008152600401610d889061275f565b60405180910390fd5b60006002811115610da557610da4612468565b5b8160030160009054906101000a900460ff166002811115610dc957610dc8612468565b5b14610e09576040517f08c379a0000000000000000000000000000000000000000000000000000000008152600401610e00906127cb565b60405180910390fd5b60028160030160006101000a81548160ff02191690836002811115610e3157610e30612468565b5b02179055508060000160009054906101000a900473ffffffffffffffffffffffffffffffffffffffff1673ffffffffffffffffffffffffffffffffffffffff16847fcee09f2aae9ae32549c308fe44a77f0411ad245ff875e396e6e647efe5fbb2b48585604051610ea3929190612ff0565b60405180910390a350505050565b6004602052826000526040600020828051602081018201805184825260208301602085012081835280955050505050508181548110610eef57600080fd5b9060005260206000200160009250925050505481565b600760205281600052604060002081805160208101820180518482526020830160208501208183528095505050505050600091509150505481565b6000600560008573ffffffffffffffffffffffffffffffffffffffff1673ffffffffffffffffffffffffffffffffffffffff1681526020019081526020016000208383604051610f91929190613014565b90815260200160405180910390205490509392505050565b610fb1611a59565b610fbb6000611ad7565b565b600660205281600052604060002081805160208101820180518482526020830160208501208183528095505050505050600091509150505481565b60008060009054906101000a900473ffffffffffffffffffffffffffffffffffffffff16905090565b60026020528060005260406000206000915090508060000160009054906101000a900473ffffffffffffffffffffffffffffffffffffffff16908060010154908060020154908060030160009054906101000a900460ff169080600401549080600501805461108f90612924565b80601f01602080910402602001604051908101604052809291908181526020018280546110bb90612924565b80156111085780601f106110dd57610100808354040283529160200191611108565b820191906000526020600020905b8154815290600101906020018083116110eb57829003601f168201915b50505050509080600601549080600701805461112390612924565b80601f016020809104026020016040519081016040528092919081815260200182805461114f90612924565b801561119c5780601f106111715761010080835404028352916020019161119c565b820191906000526020600020905b81548152906001019060200180831161117f57829003601f168201915b5050505050905088565b600060606000806000806002600088815260200190815260200160002090508060000160009054906101000a900473ffffffffffffffffffffffffffffffffffffffff1681600501826006015483600201548460030160009054906101000a900460ff1683805461121690612924565b80601f016020809104026020016040519081016040528092919081815260200182805461124290612924565b801561128f5780601f106112645761010080835404028352916020019161128f565b820191906000526020600020905b81548152906001019060200180831161127257829003601f168201915b50505050509350955095509550955095505091939590929450565b6000600460008573ffffffffffffffffffffffffffffffffffffffff1673ffffffffffffffffffffffffffffffffffffffff16815260200190815260200160002083836040516112fb929190613014565b90815260200160405180910390208054905090509392505050565b600560205281600052604060002081805160208101820180518482526020830160208501208183528095505050505050600091509150505481565b6000600660008573ffffffffffffffffffffffffffffffffffffffff1673ffffffffffffffffffffffffffffffffffffffff16815260200190815260200160002083836040516113a2929190613014565b90815260200160405180910390205490509392505050565b60036020528060005260406000206000915054906101000a900460ff1681565b6113e2611a59565b600073ffffffffffffffffffffffffffffffffffffffff168173ffffffffffffffffffffffffffffffffffffffff1603611451576040517f08c379a000000000000000000000000000000000000000000000000000000000815260040161144890613079565b60405180910390fd5b600360008273ffffffffffffffffffffffffffffffffffffffff1673ffffffffffffffffffffffffffffffffffffffff16815260200190815260200160002060009054906101000a900460ff16156114de576040517f08c379a00000000000000000000000000000000000000000000000000000000081526004016114d5906130e5565b60405180910390fd5b6001600360008373ffffffffffffffffffffffffffffffffffffffff1673ffffffffffffffffffffffffffffffffffffffff16815260200190815260200160002060006101000a81548160ff0219169083151502179055508073ffffffffffffffffffffffffffffffffffffffff167e47706786c922d17b39285dc59d696bafea72c0b003d3841ae1202076f4c2e460405160405180910390a250565b611583611a59565b600073ffffffffffffffffffffffffffffffffffffffff168173ffffffffffffffffffffffffffffffffffffffff16036115f2576040517f08c379a00000000000000000000000000000000000000000000000000000000081526004016115e990613177565b60405180910390fd5b6115fb81611ad7565b50565b611606611a59565b600360008273ffffffffffffffffffffffffffffffffffffffff1673ffffffffffffffffffffffffffffffffffffffff16815260200190815260200160002060009054906101000a900460ff16611692576040517f08c379a0000000000000000000000000000000000000000000000000000000008152600401611689906131e3565b60405180910390fd5b6000600360008373ffffffffffffffffffffffffffffffffffffffff1673ffffffffffffffffffffffffffffffffffffffff16815260200190815260200160002060006101000a81548160ff0219169083151502179055508073ffffffffffffffffffffffffffffffffffffffff167f9c8e7d83025bef8a04c664b2f753f64b8814bdb7e27291d7e50935f18cc3c71260405160405180910390a250565b600080600061173f8585611b9b565b9150915061174c81611bec565b819250505092915050565b6000600760008473ffffffffffffffffffffffffffffffffffffffff1673ffffffffffffffffffffffffffffffffffffffff168152602001908152602001600020826040516117a69190613234565b9081526020016040518091039020549050600062015180426117c8919061327a565b9050600062015180836117db919061327a565b90506000830361184b576001600660008773ffffffffffffffffffffffffffffffffffffffff1673ffffffffffffffffffffffffffffffffffffffff168152602001908152602001600020856040516118349190613234565b908152602001604051809103902081905550611946565b80820361185a57505050611a55565b6001816118679190612a33565b82036118e357600660008673ffffffffffffffffffffffffffffffffffffffff1673ffffffffffffffffffffffffffffffffffffffff168152602001908152602001600020846040516118ba9190613234565b908152602001604051809103902060008154809291906118d9906132ab565b9190505550611945565b6001600660008773ffffffffffffffffffffffffffffffffffffffff1673ffffffffffffffffffffffffffffffffffffffff168152602001908152602001600020856040516119329190613234565b9081526020016040518091039020819055505b5b42600760008773ffffffffffffffffffffffffffffffffffffffff1673ffffffffffffffffffffffffffffffffffffffff168152602001908152602001600020856040516119949190613234565b9081526020016040518091039020819055508473ffffffffffffffffffffffffffffffffffffffff167ff65808146f28ed2d6bd0dcd672f182c311183ba8d5396a6494da87c35accd5a285600660008973ffffffffffffffffffffffffffffffffffffffff1673ffffffffffffffffffffffffffffffffffffffff16815260200190815260200160002087604051611a2c9190613234565b908152602001604051809103902054604051611a499291906132f3565b60405180910390a25050505b5050565b611a61611d52565b73ffffffffffffffffffffffffffffffffffffffff16611a7f610ff8565b73ffffffffffffffffffffffffffffffffffffffff1614611ad5576040517f08c379a0000000000000000000000000000000000000000000000000000000008152600401611acc9061336f565b60405180910390fd5b565b60008060009054906101000a900473ffffffffffffffffffffffffffffffffffffffff169050816000806101000a81548173ffffffffffffffffffffffffffffffffffffffff021916908373ffffffffffffffffffffffffffffffffffffffff1602179055508173ffffffffffffffffffffffffffffffffffffffff168173ffffffffffffffffffffffffffffffffffffffff167f8be0079c531659141344cd1fd0a4f28419497f9722a3daafe3b4186f6b6457e060405160405180910390a35050565b6000806041835103611bdc5760008060006020860151925060408601519150606086015160001a9050611bd087828585611d5a565b94509450505050611be5565b60006002915091505b9250929050565b60006004811115611c0057611bff612468565b5b816004811115611c1357611c12612468565b5b0315611d4f5760016004811115611c2d57611c2c612468565b5b816004811115611c4057611c3f612468565b5b03611c80576040517f08c379a0000000000000000000000000000000000000000000000000000000008152600401611c77906133db565b60405180910390fd5b60026004811115611c9457611c93612468565b5b816004811115611ca757611ca6612468565b5b03611ce7576040517f08c379a0000000000000000000000000000000000000000000000000000000008152600401611cde90613447565b60405180910390fd5b60036004811115611cfb57611cfa612468565b5b816004811115611d0e57611d0d612468565b5b03611d4e576040517f08c379a0000000000000000000000000000000000000000000000000000000008152600401611d45906134d9565b60405180910390fd5b5b50565b600033905090565b6000807f7fffffffffffffffffffffffffffffff5d576e7357a4501ddfe92f46681b20a08360001c1115611d95576000600391509150611e33565b600060018787878760405160008152602001604052604051611dba9493929190613515565b6020604051602081039080840390855afa158015611ddc573d6000803e3d6000fd5b505050602060405103519050600073ffffffffffffffffffffffffffffffffffffffff168173ffffffffffffffffffffffffffffffffffffffff1603611e2a57600060019250925050611e33565b80600092509250505b94509492505050565b6000604051905090565b600080fd5b600080fd5b6000819050919050565b611e6381611e50565b8114611e6e57600080fd5b50565b600081359050611e8081611e5a565b92915050565b600080fd5b600080fd5b600080fd5b60008083601f840112611eab57611eaa611e86565b5b8235905067ffffffffffffffff811115611ec857611ec7611e8b565b5b602083019150836001820283011115611ee457611ee3611e90565b5b9250929050565b600080600060408486031215611f0457611f03611e46565b5b6000611f1286828701611e71565b935050602084013567ffffffffffffffff811115611f3357611f32611e4b565b5b611f3f86828701611e95565b92509250509250925092565b600073ffffffffffffffffffffffffffffffffffffffff82169050919050565b6000611f7682611f4b565b9050919050565b611f8681611f6b565b8114611f9157600080fd5b50565b600081359050611fa381611f7d565b92915050565b60008083601f840112611fbf57611fbe611e86565b5b8235905067ffffffffffffffff811115611fdc57611fdb611e8b565b5b602083019150836001820283011115611ff857611ff7611e90565b5b9250929050565b6000819050919050565b61201281611fff565b811461201d57600080fd5b50565b60008135905061202f81612009565b92915050565b600080600080600080600060a0888a03121561205457612053611e46565b5b60006120628a828b01611f94565b975050602088013567ffffffffffffffff81111561208357612082611e4b565b5b61208f8a828b01611fa9565b965096505060406120a28a828b01612020565b94505060606120b38a828b01612020565b935050608088013567ffffffffffffffff8111156120d4576120d3611e4b565b5b6120e08a828b01611fa9565b925092505092959891949750929550565b6120fa81611e50565b82525050565b600060208201905061211560008301846120f1565b92915050565b60008060006040848603121561213457612133611e46565b5b600061214286828701611e71565b935050602084013567ffffffffffffffff81111561216357612162611e4b565b5b61216f86828701611fa9565b92509250509250925092565b600080fd5b6000601f19601f8301169050919050565b7f4e487b7100000000000000000000000000000000000000000000000000000000600052604160045260246000fd5b6121c982612180565b810181811067ffffffffffffffff821117156121e8576121e7612191565b5b80604052505050565b60006121fb611e3c565b905061220782826121c0565b919050565b600067ffffffffffffffff82111561222757612226612191565b5b61223082612180565b9050602081019050919050565b82818337600083830152505050565b600061225f61225a8461220c565b6121f1565b90508281526020810184848401111561227b5761227a61217b565b5b61228684828561223d565b509392505050565b600082601f8301126122a3576122a2611e86565b5b81356122b384826020860161224c565b91505092915050565b6000806000606084860312156122d5576122d4611e46565b5b60006122e386828701611f94565b935050602084013567ffffffffffffffff81111561230457612303611e4b565b5b6123108682870161228e565b925050604061232186828701612020565b9150509250925092565b6000806040838503121561234257612341611e46565b5b600061235085828601611f94565b925050602083013567ffffffffffffffff81111561237157612370611e4b565b5b61237d8582860161228e565b9150509250929050565b61239081611fff565b82525050565b60006020820190506123ab6000830184612387565b92915050565b6000806000604084860312156123ca576123c9611e46565b5b60006123d886828701611f94565b935050602084013567ffffffffffffffff8111156123f9576123f8611e4b565b5b61240586828701611fa9565b92509250509250925092565b61241a81611f6b565b82525050565b60006020820190506124356000830184612411565b92915050565b60006020828403121561245157612450611e46565b5b600061245f84828501611e71565b91505092915050565b7f4e487b7100000000000000000000000000000000000000000000000000000000600052602160045260246000fd5b600381106124a8576124a7612468565b5b50565b60008190506124b982612497565b919050565b60006124c9826124ab565b9050919050565b6124d9816124be565b82525050565b600081519050919050565b600082825260208201905092915050565b60005b838110156125195780820151818401526020810190506124fe565b60008484015250505050565b6000612530826124df565b61253a81856124ea565b935061254a8185602086016124fb565b61255381612180565b840191505092915050565b600061010082019050612574600083018b612411565b612581602083018a6120f1565b61258e6040830189612387565b61259b60608301886124d0565b6125a86080830187612387565b81810360a08301526125ba8186612525565b90506125c960c0830185612387565b81810360e08301526125db8184612525565b90509998505050505050505050565b600060a0820190506125ff6000830188612411565b81810360208301526126118187612525565b90506126206040830186612387565b61262d6060830185612387565b61263a60808301846124d0565b9695505050505050565b60006020828403121561265a57612659611e46565b5b600061266884828501611f94565b91505092915050565b60008115159050919050565b61268681612671565b82525050565b60006020820190506126a1600083018461267d565b92915050565b7f4e6f7420612074727573746564206f7261636c65000000000000000000000000600082015250565b60006126dd6014836124ea565b91506126e8826126a7565b602082019050919050565b6000602082019050818103600083015261270c816126d0565b9050919050565b7f5375626d697373696f6e20646f6573206e6f7420657869737400000000000000600082015250565b60006127496019836124ea565b915061275482612713565b602082019050919050565b600060208201905081810360008301526127788161273c565b9050919050565b7f416c72656164792070726f636573736564000000000000000000000000000000600082015250565b60006127b56011836124ea565b91506127c08261277f565b602082019050919050565b600060208201905081810360008301526127e4816127a8565b9050919050565b600081905092915050565b7f19457468657265756d205369676e6564204d6573736167653a0a333200000000600082015250565b600061282c601c836127eb565b9150612837826127f6565b601c82019050919050565b6000819050919050565b61285d61285882611e50565b612842565b82525050565b600061286e8261281f565b915061287a828461284c565b60208201915081905092915050565b7f496e76616c6964207369676e6174757265000000000000000000000000000000600082015250565b60006128bf6011836124ea565b91506128ca82612889565b602082019050919050565b600060208201905081810360008301526128ee816128b2565b9050919050565b7f4e487b7100000000000000000000000000000000000000000000000000000000600052602260045260246000fd5b6000600282049050600182168061293c57607f821691505b60208210810361294f5761294e6128f5565b5b50919050565b60008190508160005260206000209050919050565b6000815461297781612924565b61298181866127eb565b9450600182166000811461299c57600181146129b1576129e4565b60ff19831686528115158202860193506129e4565b6129ba85612955565b60005b838110156129dc578154818901526001820191506020810190506129bd565b838801955050505b50505092915050565b60006129f9828461296a565b915081905092915050565b7f4e487b7100000000000000000000000000000000000000000000000000000000600052601160045260246000fd5b6000612a3e82611fff565b9150612a4983611fff565b9250828201905080821115612a6157612a60612a04565b5b92915050565b60008154612a7481612924565b612a7e81866124ea565b94506001821660008114612a995760018114612aaf57612ae2565b60ff198316865281151560200286019350612ae2565b612ab885612955565b60005b83811015612ada57815481890152600182019150602081019050612abb565b808801955050505b50505092915050565b60006040820190508181036000830152612b058185612a67565b9050612b146020830184612387565b9392505050565b7f556e617574686f72697a65640000000000000000000000000000000000000000600082015250565b6000612b51600c836124ea565b9150612b5c82612b1b565b602082019050919050565b60006020820190508181036000830152612b8081612b44565b9050919050565b60008160601b9050919050565b6000612b9f82612b87565b9050919050565b6000612bb182612b94565b9050919050565b612bc9612bc482611f6b565b612ba6565b82525050565b6000612bdb83856127eb565b9350612be883858461223d565b82840190509392505050565b6000819050919050565b612c0f612c0a82611fff565b612bf4565b82525050565b6000612c218289612bb8565b601482019150612c32828789612bcf565b9150612c3e8286612bfe565b602082019150612c4e8285612bfe565b602082019150612c5e8284612bb8565b601482019150819050979650505050505050565b6000612c7e8289612bb8565b601482019150612c8f828789612bcf565b9150612c9b8286612bfe565b602082019150612cac828486612bcf565b9150819050979650505050505050565b60006020601f8301049050919050565b600082821b905092915050565b600060088302612d097fffffffffffffffffffffffffffffffffffffffffffffffffffffffffffffffff82612ccc565b612d138683612ccc565b95508019841693508086168417925050509392505050565b6000819050919050565b6000612d50612d4b612d4684611fff565b612d2b565b611fff565b9050919050565b6000819050919050565b612d6a83612d35565b612d7e612d7682612d57565b848454612cd9565b825550505050565b600090565b612d93612d86565b612d9e818484612d61565b505050565b5b81811015612dc257612db7600082612d8b565b600181019050612da4565b5050565b601f821115612e0757612dd881612955565b612de184612cbc565b81016020851015612df0578190505b612e04612dfc85612cbc565b830182612da3565b50505b505050565b600082821c905092915050565b6000612e2a60001984600802612e0c565b1980831691505092915050565b6000612e438383612e19565b9150826002028217905092915050565b612e5c826124df565b67ffffffffffffffff811115612e7557612e74612191565b5b612e7f8254612924565b612e8a828285612dc6565b600060209050601f831160018114612ebd5760008415612eab578287015190505b612eb58582612e37565b865550612f1d565b601f198416612ecb86612955565b60005b82811015612ef357848901518255600182019150602085019450602081019050612ece565b86831015612f105784890151612f0c601f891682612e19565b8355505b6001600288020188555050505b505050505050565b6000612f3183856124ea565b9350612f3e83858461223d565b612f4783612180565b840190509392505050565b60006040820190508181036000830152612f6d818587612f25565b9050612f7c6020830184612387565b949350505050565b7f4e6f7420617574686f72697a6564000000000000000000000000000000000000600082015250565b6000612fba600e836124ea565b9150612fc582612f84565b602082019050919050565b60006020820190508181036000830152612fe981612fad565b9050919050565b6000602082019050818103600083015261300b818486612f25565b90509392505050565b6000613021828486612bcf565b91508190509392505050565b7f496e76616c6964206f7261636c65206164647265737300000000000000000000600082015250565b60006130636016836124ea565b915061306e8261302d565b602082019050919050565b6000602082019050818103600083015261309281613056565b9050919050565b7f4f7261636c6520616c7265616479207472757374656400000000000000000000600082015250565b60006130cf6016836124ea565b91506130da82613099565b602082019050919050565b600060208201905081810360008301526130fe816130c2565b9050919050565b7f4f776e61626c653a206e6577206f776e657220697320746865207a65726f206160008201527f6464726573730000000000000000000000000000000000000000000000000000602082015250565b60006131616026836124ea565b915061316c82613105565b604082019050919050565b6000602082019050818103600083015261319081613154565b9050919050565b7f4f7261636c65206e6f7420747275737465640000000000000000000000000000600082015250565b60006131cd6012836124ea565b91506131d882613197565b602082019050919050565b600060208201905081810360008301526131fc816131c0565b9050919050565b600061320e826124df565b61321881856127eb565b93506132288185602086016124fb565b80840191505092915050565b60006132408284613203565b915081905092915050565b7f4e487b7100000000000000000000000000000000000000000000000000000000600052601260045260246000fd5b600061328582611fff565b915061329083611fff565b9250826132a05761329f61324b565b5b828204905092915050565b60006132b682611fff565b91507fffffffffffffffffffffffffffffffffffffffffffffffffffffffffffffffff82036132e8576132e7612a04565b5b600182019050919050565b6000604082019050818103600083015261330d8185612525565b905061331c6020830184612387565b9392505050565b7f4f776e61626c653a2063616c6c6572206973206e6f7420746865206f776e6572600082015250565b60006133596020836124ea565b915061336482613323565b602082019050919050565b600060208201905081810360008301526133888161334c565b9050919050565b7f45434453413a20696e76616c6964207369676e61747572650000000000000000600082015250565b60006133c56018836124ea565b91506133d08261338f565b602082019050919050565b600060208201905081810360008301526133f4816133b8565b9050919050565b7f45434453413a20696e76616c6964207369676e6174757265206c656e67746800600082015250565b6000613431601f836124ea565b915061343c826133fb565b602082019050919050565b6000602082019050818103600083015261346081613424565b9050919050565b7f45434453413a20696e76616c6964207369676e6174757265202773272076616c60008201527f7565000000000000000000000000000000000000000000000000000000000000602082015250565b60006134c36022836124ea565b91506134ce82613467565b604082019050919050565b600060208201905081810360008301526134f2816134b6565b9050919050565b600060ff82169050919050565b61350f816134f9565b82525050565b600060808201905061352a60008301876120f1565b6135376020830186613506565b61354460408301856120f1565b61355160608301846120f1565b9594505050505056fea264697066735822122028db7a9bc25053af2420e813493f94d49f2afcf925ac8957e02bc0a64c6d6ecb64736f6c634300081c0033",
  "linkReferences": {},
  "deployedLinkReferences": {}
}