{
  "_format": "hh-sol-artifact-1",
  "contractName": "HealthyWorldChallenges",
  "sourceName": "contracts/HealthyWorldChallenges.sol",
  "abi": [
    {
      "inputs": [
        {
          "internalType": "address",
          "name": "_wldToken",
          "type": "address"
        }
      ],
      "stateMutability": "nonpayable",
      "type": "constructor"
    },
    {
      "anonymous": false,
      "inputs": [
        {
          "indexed": true,
          "internalType": "uint256",
          "name": "challengeId",
          "type": "uint256"
        },
        {
          "indexed": false,
          "internalType": "uint256",
          "name": "totalRewards",
          "type": "uint256"
        }
      ],
      "name": "ChallengeCompleted",
      "type": "event"
    },
    {
      "anonymous": false,
      "inputs": [
        {
          "indexed": true,
          "internalType": "uint256",
          "name": "challengeId",
          "type": "uint256"
        },
        {
          "indexed": false,
          "internalType": "string",
          "name": "name",
          "type": "string"
        },
        {
          "indexed": false,
          "internalType": "uint256",
          "name": "startDate",
          "type": "uint256"
        },
        {
          "indexed": false,
          "internalType": "uint256",
          "name": "endDate",
          "type": "uint256"
        },
        {
          "indexed": false,
          "internalType": "enum HealthyWorldChallenges.ChallengeCategory",
          "name": "category",
          "type": "uint8"
        },
        {
          "indexed": false,
          "internalType": "string",
          "name": "subType",
          "type": "string"
        }
      ],
      "name": "ChallengeCreated",
      "type": "event"
    },
    {
      "anonymous": false,
      "inputs": [
        {
          "indexed": true,
          "internalType": "uint256",
          "name": "challengeId",
          "type": "uint256"
        },
        {
          "indexed": true,
          "internalType": "address",
          "name": "participant",
          "type": "address"
        },
        {
          "indexed": false,
          "internalType": "uint256",
          "name": "stakeAmount",
          "type": "uint256"
        }
      ],
      "name": "ChallengeJoined",
      "type": "event"
    },
    {
      "anonymous": false,
      "inputs": [
        {
          "indexed": true,
          "internalType": "uint256",
          "name": "challengeId",
          "type": "uint256"
        },
        {
          "indexed": true,
          "internalType": "address",
          "name": "participant",
          "type": "address"
        },
        {
          "indexed": true,
          "internalType": "address",
          "name": "judge",
          "type": "address"
        },
        {
          "indexed": false,
          "internalType": "bool",
          "name": "approved",
          "type": "bool"
        }
      ],
      "name": "ChallengeVerified",
      "type": "event"
    },
    {
      "anonymous": false,
      "inputs": [
        {
          "indexed": true,
          "internalType": "uint256",
          "name": "challengeId",
          "type": "uint256"
        },
        {
          "indexed": true,
          "internalType": "address",
          "name": "participant",
          "type": "address"
        },
        {
          "indexed": false,
          "internalType": "uint256",
          "name": "timestamp",
          "type": "uint256"
        }
      ],
      "name": "ExerciseDataSubmitted",
      "type": "event"
    },
    {
      "anonymous": false,
      "inputs": [
        {
          "indexed": true,
          "internalType": "uint256",
          "name": "challengeId",
          "type": "uint256"
        },
        {
          "indexed": true,
          "internalType": "address",
          "name": "participant",
          "type": "address"
        },
        {
          "indexed": false,
          "internalType": "uint256",
          "name": "timestamp",
          "type": "uint256"
        }
      ],
      "name": "HealthDataSubmitted",
      "type": "event"
    },
    {
      "anonymous": false,
      "inputs": [
        {
          "indexed": true,
          "internalType": "address",
          "name": "judge",
          "type": "address"
        },
        {
          "indexed": false,
          "internalType": "string",
          "name": "name",
          "type": "string"
        }
      ],
      "name": "JudgeAdded",
      "type": "event"
    },
    {
      "anonymous": false,
      "inputs": [
        {
          "indexed": true,
          "internalType": "address",
          "name": "judge",
          "type": "address"
        },
        {
          "indexed": false,
          "internalType": "enum HealthyWorldChallenges.JudgeStatus",
          "name": "status",
          "type": "uint8"
        }
      ],
      "name": "JudgeStatusChanged",
      "type": "event"
    },
    {
      "anonymous": false,
      "inputs": [
        {
          "indexed": true,
          "internalType": "address",
          "name": "previousOwner",
          "type": "address"
        },
        {
          "indexed": true,
          "internalType": "address",
          "name": "newOwner",
          "type": "address"
        }
      ],
      "name": "OwnershipTransferred",
      "type": "event"
    },
    {
      "anonymous": false,
      "inputs": [
        {
          "indexed": true,
          "internalType": "uint256",
          "name": "challengeId",
          "type": "uint256"
        },
        {
          "indexed": true,
          "internalType": "address",
          "name": "participant",
          "type": "address"
        },
        {
          "indexed": false,
          "internalType": "uint256",
          "name": "amount",
          "type": "uint256"
        }
      ],
      "name": "RewardsClaimed",
      "type": "event"
    },
    {
      "inputs": [
        {
          "internalType": "address",
          "name": "_judge",
          "type": "address"
        },
        {
          "internalType": "string",
          "name": "_name",
          "type": "string"
        }
      ],
      "name": "addJudge",
      "outputs": [],
      "stateMutability": "nonpayable",
      "type": "function"
    },
    {
      "inputs": [
        {
          "internalType": "uint256",
          "name": "",
          "type": "uint256"
        },
        {
          "internalType": "address",
          "name": "",
          "type": "address"
        }
      ],
      "name": "approvalCount",
      "outputs": [
        {
          "internalType": "uint256",
          "name": "",
          "type": "uint256"
        }
      ],
      "stateMutability": "view",
      "type": "function"
    },
    {
      "inputs": [
        {
          "internalType": "uint256",
          "name": "_challengeId",
          "type": "uint256"
        }
      ],
      "name": "cancelChallenge",
      "outputs": [],
      "stateMutability": "nonpayable",
      "type": "function"
    },
    {
      "inputs": [],
      "name": "challengeCount",
      "outputs": [
        {
          "internalType": "uint256",
          "name": "",
          "type": "uint256"
        }
      ],
      "stateMutability": "view",
      "type": "function"
    },
    {
      "inputs": [
        {
          "internalType": "uint256",
          "name": "",
          "type": "uint256"
        }
      ],
      "name": "challenges",
      "outputs": [
        {
          "internalType": "uint256",
          "name": "id",
          "type": "uint256"
        },
        {
          "internalType": "string",
          "name": "name",
          "type": "string"
        },
        {
          "internalType": "string",
          "name": "description",
          "type": "string"
        },
        {
          "internalType": "enum HealthyWorldChallenges.ChallengeCategory",
          "name": "category",
          "type": "uint8"
        },
        {
          "internalType": "string",
          "name": "subType",
          "type": "string"
        },
        {
          "internalType": "uint256",
          "name": "startDate",
          "type": "uint256"
        },
        {
          "internalType": "uint256",
          "name": "endDate",
          "type": "uint256"
        },
        {
          "internalType": "uint256",
          "name": "minStake",
          "type": "uint256"
        },
        {
          "internalType": "uint256",
          "name": "poolSize",
          "type": "uint256"
        },
        {
          "internalType": "enum HealthyWorldChallenges.ChallengeStatus",
          "name": "status",
          "type": "uint8"
        },
        {
          "internalType": "uint256",
          "name": "completedParticipants",
          "type": "uint256"
        }
      ],
      "stateMutability": "view",
      "type": "function"
    },
    {
      "inputs": [
        {
          "internalType": "address",
          "name": "_judge",
          "type": "address"
        },
        {
          "internalType": "enum HealthyWorldChallenges.JudgeStatus",
          "name": "_status",
          "type": "uint8"
        }
      ],
      "name": "changeJudgeStatus",
      "outputs": [],
      "stateMutability": "nonpayable",
      "type": "function"
    },
    {
      "inputs": [
        {
          "internalType": "uint256",
          "name": "_challengeId",
          "type": "uint256"
        }
      ],
      "name": "claimRewards",
      "outputs": [],
      "stateMutability": "nonpayable",
      "type": "function"
    },
    {
      "inputs": [
        {
          "internalType": "uint256",
          "name": "_challengeId",
          "type": "uint256"
        }
      ],
      "name": "completeChallenge",
      "outputs": [],
      "stateMutability": "nonpayable",
      "type": "function"
    },
    {
      "inputs": [
        {
          "internalType": "string",
          "name": "_name",
          "type": "string"
        },
        {
          "internalType": "string",
          "name": "_description",
          "type": "string"
        },
        {
          "internalType": "enum HealthyWorldChallenges.ChallengeCategory",
          "name": "_category",
          "type": "uint8"
        },
        {
          "internalType": "string",
          "name": "_subType",
          "type": "string"
        },
        {
          "internalType": "uint256",
          "name": "_startDate",
          "type": "uint256"
        },
        {
          "internalType": "uint256",
          "name": "_endDate",
          "type": "uint256"
        },
        {
          "internalType": "uint256",
          "name": "_minStake",
          "type": "uint256"
        },
        {
          "internalType": "address[]",
          "name": "_judges",
          "type": "address[]"
        }
      ],
      "name": "createChallenge",
      "outputs": [],
      "stateMutability": "nonpayable",
      "type": "function"
    },
    {
      "inputs": [
        {
          "internalType": "uint256",
          "name": "",
          "type": "uint256"
        },
        {
          "internalType": "address",
          "name": "",
          "type": "address"
        },
        {
          "internalType": "uint256",
          "name": "",
          "type": "uint256"
        }
      ],
      "name": "exerciseDataSubmissions",
      "outputs": [
        {
          "internalType": "uint256",
          "name": "challengeId",
          "type": "uint256"
        },
        {
          "internalType": "address",
          "name": "participant",
          "type": "address"
        },
        {
          "internalType": "uint256",
          "name": "timestamp",
          "type": "uint256"
        },
        {
          "internalType": "string",
          "name": "exerciseName",
          "type": "string"
        },
        {
          "internalType": "uint256",
          "name": "reps",
          "type": "uint256"
        },
        {
          "internalType": "uint256",
          "name": "sets",
          "type": "uint256"
        },
        {
          "internalType": "bytes",
          "name": "proofData",
          "type": "bytes"
        }
      ],
      "stateMutability": "view",
      "type": "function"
    },
    {
      "inputs": [
        {
          "internalType": "uint256",
          "name": "_challengeId",
          "type": "uint256"
        }
      ],
      "name": "getChallengeDetails",
      "outputs": [
        {
          "internalType": "string",
          "name": "name",
          "type": "string"
        },
        {
          "internalType": "string",
          "name": "description",
          "type": "string"
        },
        {
          "internalType": "enum HealthyWorldChallenges.ChallengeCategory",
          "name": "category",
          "type": "uint8"
        },
        {
          "internalType": "string",
          "name": "subType",
          "type": "string"
        },
        {
          "internalType": "uint256",
          "name": "startDate",
          "type": "uint256"
        },
        {
          "internalType": "uint256",
          "name": "endDate",
          "type": "uint256"
        },
        {
          "internalType": "uint256",
          "name": "minStake",
          "type": "uint256"
        },
        {
          "internalType": "uint256",
          "name": "poolSize",
          "type": "uint256"
        },
        {
          "internalType": "enum HealthyWorldChallenges.ChallengeStatus",
          "name": "status",
          "type": "uint8"
        },
        {
          "internalType": "uint256",
          "name": "participantCount",
          "type": "uint256"
        },
        {
          "internalType": "uint256",
          "name": "completedCount",
          "type": "uint256"
        }
      ],
      "stateMutability": "view",
      "type": "function"
    },
    {
      "inputs": [
        {
          "internalType": "uint256",
          "name": "_challengeId",
          "type": "uint256"
        }
      ],
      "name": "getChallengeJudges",
      "outputs": [
        {
          "internalType": "address[]",
          "name": "",
          "type": "address[]"
        }
      ],
      "stateMutability": "view",
      "type": "function"
    },
    {
      "inputs": [
        {
          "internalType": "uint256",
          "name": "_challengeId",
          "type": "uint256"
        }
      ],
      "name": "getChallengeParticipants",
      "outputs": [
        {
          "internalType": "address[]",
          "name": "",
          "type": "address[]"
        }
      ],
      "stateMutability": "view",
      "type": "function"
    },
    {
      "inputs": [
        {
          "internalType": "uint256",
          "name": "_challengeId",
          "type": "uint256"
        },
        {
          "internalType": "address",
          "name": "_participant",
          "type": "address"
        },
        {
          "internalType": "uint256",
          "name": "_index",
          "type": "uint256"
        }
      ],
      "name": "getExerciseData",
      "outputs": [
        {
          "internalType": "uint256",
          "name": "timestamp",
          "type": "uint256"
        },
        {
          "internalType": "string",
          "name": "exerciseName",
          "type": "string"
        },
        {
          "internalType": "uint256",
          "name": "reps",
          "type": "uint256"
        },
        {
          "internalType": "uint256",
          "name": "sets",
          "type": "uint256"
        }
      ],
      "stateMutability": "view",
      "type": "function"
    },
    {
      "inputs": [
        {
          "internalType": "uint256",
          "name": "_challengeId",
          "type": "uint256"
        },
        {
          "internalType": "address",
          "name": "_participant",
          "type": "address"
        }
      ],
      "name": "getExerciseDataCount",
      "outputs": [
        {
          "internalType": "uint256",
          "name": "",
          "type": "uint256"
        }
      ],
      "stateMutability": "view",
      "type": "function"
    },
    {
      "inputs": [
        {
          "internalType": "uint256",
          "name": "_challengeId",
          "type": "uint256"
        },
        {
          "internalType": "address",
          "name": "_participant",
          "type": "address"
        },
        {
          "internalType": "uint256",
          "name": "_index",
          "type": "uint256"
        }
      ],
      "name": "getHealthData",
      "outputs": [
        {
          "internalType": "uint256",
          "name": "timestamp",
          "type": "uint256"
        },
        {
          "internalType": "uint256",
          "name": "steps",
          "type": "uint256"
        },
        {
          "internalType": "uint256",
          "name": "waterCups",
          "type": "uint256"
        },
        {
          "internalType": "uint256",
          "name": "sleepHours",
          "type": "uint256"
        },
        {
          "internalType": "uint256",
          "name": "mindfulMinutes",
          "type": "uint256"
        },
        {
          "internalType": "string",
          "name": "dataSourceType",
          "type": "string"
        }
      ],
      "stateMutability": "view",
      "type": "function"
    },
    {
      "inputs": [
        {
          "internalType": "uint256",
          "name": "_challengeId",
          "type": "uint256"
        },
        {
          "internalType": "address",
          "name": "_participant",
          "type": "address"
        }
      ],
      "name": "getHealthDataCount",
      "outputs": [
        {
          "internalType": "uint256",
          "name": "",
          "type": "uint256"
        }
      ],
      "stateMutability": "view",
      "type": "function"
    },
    {
      "inputs": [
        {
          "internalType": "uint256",
          "name": "",
          "type": "uint256"
        },
        {
          "internalType": "address",
          "name": "",
          "type": "address"
        },
        {
          "internalType": "uint256",
          "name": "",
          "type": "uint256"
        }
      ],
      "name": "healthDataSubmissions",
      "outputs": [
        {
          "internalType": "uint256",
          "name": "challengeId",
          "type": "uint256"
        },
        {
          "internalType": "address",
          "name": "participant",
          "type": "address"
        },
        {
          "internalType": "uint256",
          "name": "timestamp",
          "type": "uint256"
        },
        {
          "internalType": "uint256",
          "name": "steps",
          "type": "uint256"
        },
        {
          "internalType": "uint256",
          "name": "waterCups",
          "type": "uint256"
        },
        {
          "internalType": "uint256",
          "name": "sleepHours",
          "type": "uint256"
        },
        {
          "internalType": "uint256",
          "name": "mindfulMinutes",
          "type": "uint256"
        },
        {
          "internalType": "string",
          "name": "dataSourceType",
          "type": "string"
        },
        {
          "internalType": "string",
          "name": "dataSourceId",
          "type": "string"
        },
        {
          "internalType": "bytes",
          "name": "proofData",
          "type": "bytes"
        }
      ],
      "stateMutability": "view",
      "type": "function"
    },
    {
      "inputs": [
        {
          "internalType": "uint256",
          "name": "_challengeId",
          "type": "uint256"
        },
        {
          "internalType": "uint256",
          "name": "_stakeAmount",
          "type": "uint256"
        }
      ],
      "name": "joinChallenge",
      "outputs": [],
      "stateMutability": "nonpayable",
      "type": "function"
    },
    {
      "inputs": [
        {
          "internalType": "uint256",
          "name": "",
          "type": "uint256"
        }
      ],
      "name": "judgeAddresses",
      "outputs": [
        {
          "internalType": "address",
          "name": "",
          "type": "address"
        }
      ],
      "stateMutability": "view",
      "type": "function"
    },
    {
      "inputs": [
        {
          "internalType": "address",
          "name": "",
          "type": "address"
        }
      ],
      "name": "judges",
      "outputs": [
        {
          "internalType": "address",
          "name": "addr",
          "type": "address"
        },
        {
          "internalType": "string",
          "name": "name",
          "type": "string"
        },
        {
          "internalType": "uint256",
          "name": "reputation",
          "type": "uint256"
        },
        {
          "internalType": "enum HealthyWorldChallenges.JudgeStatus",
          "name": "status",
          "type": "uint8"
        }
      ],
      "stateMutability": "view",
      "type": "function"
    },
    {
      "inputs": [],
      "name": "owner",
      "outputs": [
        {
          "internalType": "address",
          "name": "",
          "type": "address"
        }
      ],
      "stateMutability": "view",
      "type": "function"
    },
    {
      "inputs": [],
      "name": "renounceOwnership",
      "outputs": [],
      "stateMutability": "nonpayable",
      "type": "function"
    },
    {
      "inputs": [
        {
          "internalType": "uint256",
          "name": "_challengeId",
          "type": "uint256"
        },
        {
          "internalType": "string",
          "name": "_exerciseName",
          "type": "string"
        },
        {
          "internalType": "uint256",
          "name": "_reps",
          "type": "uint256"
        },
        {
          "internalType": "uint256",
          "name": "_sets",
          "type": "uint256"
        },
        {
          "internalType": "bytes",
          "name": "_proofData",
          "type": "bytes"
        }
      ],
      "name": "submitExerciseData",
      "outputs": [],
      "stateMutability": "nonpayable",
      "type": "function"
    },
    {
      "inputs": [
        {
          "internalType": "uint256",
          "name": "_challengeId",
          "type": "uint256"
        },
        {
          "internalType": "uint256",
          "name": "_steps",
          "type": "uint256"
        },
        {
          "internalType": "uint256",
          "name": "_waterCups",
          "type": "uint256"
        },
        {
          "internalType": "uint256",
          "name": "_sleepHours",
          "type": "uint256"
        },
        {
          "internalType": "uint256",
          "name": "_mindfulMinutes",
          "type": "uint256"
        },
        {
          "internalType": "string",
          "name": "_dataSourceType",
          "type": "string"
        },
        {
          "internalType": "string",
          "name": "_dataSourceId",
          "type": "string"
        },
        {
          "internalType": "bytes",
          "name": "_proofData",
          "type": "bytes"
        }
      ],
      "name": "submitHealthData",
      "outputs": [],
      "stateMutability": "nonpayable",
      "type": "function"
    },
    {
      "inputs": [
        {
          "internalType": "address",
          "name": "newOwner",
          "type": "address"
        }
      ],
      "name": "transferOwnership",
      "outputs": [],
      "stateMutability": "nonpayable",
      "type": "function"
    },
    {
      "inputs": [
        {
          "internalType": "uint256",
          "name": "",
          "type": "uint256"
        },
        {
          "internalType": "address",
          "name": "",
          "type": "address"
        },
        {
          "internalType": "address",
          "name": "",
          "type": "address"
        }
      ],
      "name": "verifications",
      "outputs": [
        {
          "internalType": "bool",
          "name": "",
          "type": "bool"
        }
      ],
      "stateMutability": "view",
      "type": "function"
    },
    {
      "inputs": [
        {
          "internalType": "uint256",
          "name": "_challengeId",
          "type": "uint256"
        },
        {
          "internalType": "address",
          "name": "_participant",
          "type": "address"
        },
        {
          "internalType": "bool",
          "name": "_approved",
          "type": "bool"
        }
      ],
      "name": "verifyCompletion",
      "outputs": [],
      "stateMutability": "nonpayable",
      "type": "function"
    },
    {
      "inputs": [],
      "name": "wldToken",
      "outputs": [
        {
          "internalType": "contract IERC20",
          "name": "",
          "type": "address"
        }
      ],
      "stateMutability": "view",
      "type": "function"
    }
  ],
  "bytecode": "0x608060405234801561001057600080fd5b50604051615f2d380380615f2d833981810160405281019061003291906101d3565b61004e6100436100a460201b60201c565b6100ac60201b60201c565b6001808190555080600260006101000a81548173ffffffffffffffffffffffffffffffffffffffff021916908373ffffffffffffffffffffffffffffffffffffffff160217905550600060038190555050610200565b600033905090565b60008060009054906101000a900473ffffffffffffffffffffffffffffffffffffffff169050816000806101000a81548173ffffffffffffffffffffffffffffffffffffffff021916908373ffffffffffffffffffffffffffffffffffffffff1602179055508173ffffffffffffffffffffffffffffffffffffffff168173ffffffffffffffffffffffffffffffffffffffff167f8be0079c531659141344cd1fd0a4f28419497f9722a3daafe3b4186f6b6457e060405160405180910390a35050565b600080fd5b600073ffffffffffffffffffffffffffffffffffffffff82169050919050565b60006101a082610175565b9050919050565b6101b081610195565b81146101bb57600080fd5b50565b6000815190506101cd816101a7565b92915050565b6000602082840312156101e9576101e8610170565b5b60006101f7848285016101be565b91505092915050565b615d1e8061020f6000396000f3fe608060405234801561001057600080fd5b50600436106101ce5760003560e01c806391996df711610104578063bd5dab12116100a2578063dd23187d11610071578063dd23187d146105b5578063e5faafbb146105e5578063ee43987214610601578063f2fde38b1461061d576101ce565b8063bd5dab1214610518578063bed5072614610534578063c22ebc1514610550578063c929c8b814610585576101ce565b8063a16fd2e2116100de578063a16fd2e214610492578063a2f05725146104c2578063a41483e3146104e0578063a7817bbc146104fc576101ce565b806391996df71461040e578063994116c11461043e5780639be3783d14610474576101ce565b8063480a077e116101715780637d900ed01161014b5780637d900ed0146103535780638422a2f2146103835780638da5cb5b146103b65780638f1d3776146103d4576101ce565b8063480a077e146102e6578063633020fa14610316578063715018a614610349576101ce565b8063257d8286116101ad578063257d82861461025857806339cef1ff146102745780633d40a54f146102905780634241bc47146102ca576101ce565b8062530226146101d3578063023bf9581461020c5780630962ef791461023c575b600080fd5b6101ed60048036038101906101e89190613a83565b610639565b6040516102039a99989796959493929190613bd9565b60405180910390f35b61022660048036038101906102219190613c8a565b61086f565b6040516102339190613d75565b60405180910390f35b61025660048036038101906102519190613c8a565b610913565b005b610272600480360381019061026d9190613fb9565b610ce2565b005b61028e60048036038101906102899190614180565b61104b565b005b6102aa60048036038101906102a59190613c8a565b6113ea565b6040516102c19b9a99989796959493929190614349565b60405180910390f35b6102e460048036038101906102df9190614409565b61162d565b005b61030060048036038101906102fb91906144bc565b61198a565b60405161030d91906144fc565b60405180910390f35b610330600480360381019061032b9190613a83565b6119e8565b6040516103409493929190614517565b60405180910390f35b610351611c36565b005b61036d600480360381019061036891906144bc565b611c4a565b60405161037a91906144fc565b60405180910390f35b61039d60048036038101906103989190614563565b611ca8565b6040516103ad94939291906145d8565b60405180910390f35b6103be611d8d565b6040516103cb9190614624565b60405180910390f35b6103ee60048036038101906103e99190613c8a565b611db6565b6040516104059b9a9998979695949392919061463f565b60405180910390f35b610428600480360381019061042391906144bc565b611fc2565b60405161043591906144fc565b60405180910390f35b61045860048036038101906104539190613a83565b611fe7565b60405161046b97969594939291906146ff565b60405180910390f35b61047c612183565b60405161048991906147db565b60405180910390f35b6104ac60048036038101906104a79190613c8a565b6121a9565b6040516104b99190613d75565b60405180910390f35b6104ca61224d565b6040516104d791906144fc565b60405180910390f35b6104fa60048036038101906104f59190613c8a565b612253565b005b61051660048036038101906105119190613c8a565b6124fc565b005b610532600480360381019061052d91906147f6565b612686565b005b61054e6004803603810190610549919061486e565b612a31565b005b61056a60048036038101906105659190613a83565b612f76565b60405161057c969594939291906148c1565b60405180910390f35b61059f600480360381019061059a9190613c8a565b61327f565b6040516105ac9190614624565b60405180910390f35b6105cf60048036038101906105ca9190614929565b6132be565b6040516105dc919061498b565b60405180910390f35b6105ff60048036038101906105fa91906149cb565b6132fa565b005b61061b60048036038101906106169190614a0b565b61348f565b005b61063760048036038101906106329190614563565b6137b6565b005b6007602052826000526040600020602052816000526040600020818154811061066157600080fd5b90600052602060002090600a020160009250925050508060000154908060010160009054906101000a900473ffffffffffffffffffffffffffffffffffffffff16908060020154908060030154908060040154908060050154908060060154908060070180546106d090614a96565b80601f01602080910402602001604051908101604052809291908181526020018280546106fc90614a96565b80156107495780601f1061071e57610100808354040283529160200191610749565b820191906000526020600020905b81548152906001019060200180831161072c57829003601f168201915b50505050509080600801805461075e90614a96565b80601f016020809104026020016040519081016040528092919081815260200182805461078a90614a96565b80156107d75780601f106107ac576101008083540402835291602001916107d7565b820191906000526020600020905b8154815290600101906020018083116107ba57829003601f168201915b5050505050908060090180546107ec90614a96565b80601f016020809104026020016040519081016040528092919081815260200182805461081890614a96565b80156108655780601f1061083a57610100808354040283529160200191610865565b820191906000526020600020905b81548152906001019060200180831161084857829003601f168201915b505050505090508a565b60606004600083815260200190815260200160002060090180548060200260200160405190810160405280929190818152602001828054801561090757602002820191906000526020600020905b8160009054906101000a900473ffffffffffffffffffffffffffffffffffffffff1673ffffffffffffffffffffffffffffffffffffffff16815260200190600101908083116108bd575b50505050509050919050565b61091b613839565b6000600460008381526020019081526020016000209050600260038111156109465761094561428a565b5b81600d0160009054906101000a900460ff16600381111561096a5761096961428a565b5b146109aa576040517f08c379a00000000000000000000000000000000000000000000000000000000081526004016109a190614b13565b60405180910390fd5b80600b0160003373ffffffffffffffffffffffffffffffffffffffff1673ffffffffffffffffffffffffffffffffffffffff16815260200190815260200160002060009054906101000a900460ff16610a38576040517f08c379a0000000000000000000000000000000000000000000000000000000008152600401610a2f90614b7f565b60405180910390fd5b600081600a0160003373ffffffffffffffffffffffffffffffffffffffff1673ffffffffffffffffffffffffffffffffffffffff1681526020019081526020016000205411610abc576040517f08c379a0000000000000000000000000000000000000000000000000000000008152600401610ab390614beb565b60405180910390fd5b600081600a0160003373ffffffffffffffffffffffffffffffffffffffff1673ffffffffffffffffffffffffffffffffffffffff1681526020019081526020016000205490506000819050826009018054905083600e01541015610b5f576000836008015490508284600e0154610b339190614c3a565b81610b3e9190614c7c565b905083600e015481610b509190614cdf565b82610b5b9190614d10565b9150505b600083600a0160003373ffffffffffffffffffffffffffffffffffffffff1673ffffffffffffffffffffffffffffffffffffffff16815260200190815260200160002081905550600260009054906101000a900473ffffffffffffffffffffffffffffffffffffffff1673ffffffffffffffffffffffffffffffffffffffff1663a9059cbb33836040518363ffffffff1660e01b8152600401610c03929190614d44565b6020604051808303816000875af1158015610c22573d6000803e3d6000fd5b505050506040513d601f19601f82011682018060405250810190610c469190614d82565b610c85576040517f08c379a0000000000000000000000000000000000000000000000000000000008152600401610c7c90614dfb565b60405180910390fd5b3373ffffffffffffffffffffffffffffffffffffffff16847f3300bdb359cfb956935bca32e9db727413eab1ca84341f2e36caea85bb79696883604051610ccc91906144fc565b60405180910390a3505050610cdf613888565b50565b610cea613891565b428411610d2c576040517f08c379a0000000000000000000000000000000000000000000000000000000008152600401610d2390614e67565b60405180910390fd5b838311610d6e576040517f08c379a0000000000000000000000000000000000000000000000000000000008152600401610d6590614ef9565b60405180910390fd5b60008211610db1576040517f08c379a0000000000000000000000000000000000000000000000000000000008152600401610da890614f8b565b60405180910390fd5b600060036000815480929190610dc690614fab565b919050559050600060046000838152602001908152602001600020905081816000018190555089816001019081610dfd9190615195565b5088816002019081610e0f9190615195565b50878160030160006101000a81548160ff02191690836002811115610e3757610e3661428a565b5b021790555086816004019081610e4d9190615195565b50858160050181905550848160060181905550838160070181905550600081600d0160006101000a81548160ff02191690836003811115610e9157610e9061428a565b5b021790555060005b8351811015610ffe5760016002811115610eb657610eb561428a565b5b60056000868481518110610ecd57610ecc615267565b5b602002602001015173ffffffffffffffffffffffffffffffffffffffff1673ffffffffffffffffffffffffffffffffffffffff16815260200190815260200160002060030160009054906101000a900460ff166002811115610f3257610f3161428a565b5b14610f72576040517f08c379a0000000000000000000000000000000000000000000000000000000008152600401610f69906152e2565b60405180910390fd5b81600c01848281518110610f8957610f88615267565b5b60200260200101519080600181540180825580915050600190039060005260206000200160009091909190916101000a81548173ffffffffffffffffffffffffffffffffffffffff021916908373ffffffffffffffffffffffffffffffffffffffff1602179055508080600101915050610e99565b50817fef97b10cfa3ccef3389169c3e270843e065a5cc27a12c3ce1471b10c4346b43c8b88888c8c604051611037959493929190615302565b60405180910390a250505050505050505050565b6000600460008a81526020019081526020016000209050600060038111156110765761107561428a565b5b81600d0160009054906101000a900460ff16600381111561109a5761109961428a565b5b146110da576040517f08c379a00000000000000000000000000000000000000000000000000000000081526004016110d1906153af565b60405180910390fd5b8060050154421015611121576040517f08c379a00000000000000000000000000000000000000000000000000000000081526004016111189061541b565b60405180910390fd5b8060060154421115611168576040517f08c379a000000000000000000000000000000000000000000000000000000000815260040161115f90615487565b60405180910390fd5b600081600a0160003373ffffffffffffffffffffffffffffffffffffffff1673ffffffffffffffffffffffffffffffffffffffff16815260200190815260200160002054116111ec576040517f08c379a00000000000000000000000000000000000000000000000000000000081526004016111e3906154f3565b60405180910390fd5b60006040518061014001604052808b81526020013373ffffffffffffffffffffffffffffffffffffffff1681526020014281526020018a8152602001898152602001888152602001878152602001868152602001858152602001848152509050600760008b815260200190815260200160002060003373ffffffffffffffffffffffffffffffffffffffff1673ffffffffffffffffffffffffffffffffffffffff1681526020019081526020016000208190806001815401808255809150506001900390600052602060002090600a02016000909190919091506000820151816000015560208201518160010160006101000a81548173ffffffffffffffffffffffffffffffffffffffff021916908373ffffffffffffffffffffffffffffffffffffffff16021790555060408201518160020155606082015181600301556080820151816004015560a0820151816005015560c0820151816006015560e082015181600701908161135e9190615195565b506101008201518160080190816113759190615195565b5061012082015181600901908161138c919061556e565b5050503373ffffffffffffffffffffffffffffffffffffffff168a7f29e3699f1e8702a3512f4439dd8ee790d8f15583c9e47c96cd2888301da012ac426040516113d691906144fc565b60405180910390a350505050505050505050565b60608060006060600080600080600080600080600460008e8152602001908152602001600020905080600101816002018260030160009054906101000a900460ff1683600401846005015485600601548660070154876008015488600d0160009054906101000a900460ff1689600901805490508a600e01548a805461146f90614a96565b80601f016020809104026020016040519081016040528092919081815260200182805461149b90614a96565b80156114e85780601f106114bd576101008083540402835291602001916114e8565b820191906000526020600020905b8154815290600101906020018083116114cb57829003601f168201915b50505050509a508980546114fb90614a96565b80601f016020809104026020016040519081016040528092919081815260200182805461152790614a96565b80156115745780601f1061154957610100808354040283529160200191611574565b820191906000526020600020905b81548152906001019060200180831161155757829003601f168201915b5050505050995087805461158790614a96565b80601f01602080910402602001604051908101604052809291908181526020018280546115b390614a96565b80156116005780601f106115d557610100808354040283529160200191611600565b820191906000526020600020905b8154815290600101906020018083116115e357829003601f168201915b505050505097509b509b509b509b509b509b509b509b509b509b509b505091939597999b90929496989a50565b6000600460008781526020019081526020016000209050600060038111156116585761165761428a565b5b81600d0160009054906101000a900460ff16600381111561167c5761167b61428a565b5b146116bc576040517f08c379a00000000000000000000000000000000000000000000000000000000081526004016116b3906153af565b60405180910390fd5b8060050154421015611703576040517f08c379a00000000000000000000000000000000000000000000000000000000081526004016116fa9061541b565b60405180910390fd5b806006015442111561174a576040517f08c379a000000000000000000000000000000000000000000000000000000000815260040161174190615487565b60405180910390fd5b600081600a0160003373ffffffffffffffffffffffffffffffffffffffff1673ffffffffffffffffffffffffffffffffffffffff16815260200190815260200160002054116117ce576040517f08c379a00000000000000000000000000000000000000000000000000000000081526004016117c5906154f3565b60405180910390fd5b60006040518060e001604052808881526020013373ffffffffffffffffffffffffffffffffffffffff1681526020014281526020018781526020018681526020018581526020018481525090506008600088815260200190815260200160002060003373ffffffffffffffffffffffffffffffffffffffff1673ffffffffffffffffffffffffffffffffffffffff1681526020019081526020016000208190806001815401808255809150506001900390600052602060002090600702016000909190919091506000820151816000015560208201518160010160006101000a81548173ffffffffffffffffffffffffffffffffffffffff021916908373ffffffffffffffffffffffffffffffffffffffff1602179055506040820151816002015560608201518160030190816119059190615195565b506080820151816004015560a0820151816005015560c082015181600601908161192f919061556e565b5050503373ffffffffffffffffffffffffffffffffffffffff16877f68731c74334f5481748cab3c485416b9cea6e3c8d3f267f7c2378755744f1d744260405161197991906144fc565b60405180910390a350505050505050565b60006008600084815260200190815260200160002060008373ffffffffffffffffffffffffffffffffffffffff1673ffffffffffffffffffffffffffffffffffffffff16815260200190815260200160002080549050905092915050565b6000606060008060006008600089815260200190815260200160002060008873ffffffffffffffffffffffffffffffffffffffff1673ffffffffffffffffffffffffffffffffffffffff1681526020019081526020016000208681548110611a5357611a52615267565b5b90600052602060002090600702016040518060e0016040529081600082015481526020016001820160009054906101000a900473ffffffffffffffffffffffffffffffffffffffff1673ffffffffffffffffffffffffffffffffffffffff1673ffffffffffffffffffffffffffffffffffffffff16815260200160028201548152602001600382018054611ae690614a96565b80601f0160208091040260200160405190810160405280929190818152602001828054611b1290614a96565b8015611b5f5780601f10611b3457610100808354040283529160200191611b5f565b820191906000526020600020905b815481529060010190602001808311611b4257829003601f168201915b505050505081526020016004820154815260200160058201548152602001600682018054611b8c90614a96565b80601f0160208091040260200160405190810160405280929190818152602001828054611bb890614a96565b8015611c055780601f10611bda57610100808354040283529160200191611c05565b820191906000526020600020905b815481529060010190602001808311611be857829003601f168201915b50505050508152505090508060400151816060015182608001518360a0015194509450945094505093509350935093565b611c3e613891565b611c48600061390f565b565b60006007600084815260200190815260200160002060008373ffffffffffffffffffffffffffffffffffffffff1673ffffffffffffffffffffffffffffffffffffffff16815260200190815260200160002080549050905092915050565b60056020528060005260406000206000915090508060000160009054906101000a900473ffffffffffffffffffffffffffffffffffffffff1690806001018054611cf190614a96565b80601f0160208091040260200160405190810160405280929190818152602001828054611d1d90614a96565b8015611d6a5780601f10611d3f57610100808354040283529160200191611d6a565b820191906000526020600020905b815481529060010190602001808311611d4d57829003601f168201915b5050505050908060020154908060030160009054906101000a900460ff16905084565b60008060009054906101000a900473ffffffffffffffffffffffffffffffffffffffff16905090565b6004602052806000526040600020600091509050806000015490806001018054611ddf90614a96565b80601f0160208091040260200160405190810160405280929190818152602001828054611e0b90614a96565b8015611e585780601f10611e2d57610100808354040283529160200191611e58565b820191906000526020600020905b815481529060010190602001808311611e3b57829003601f168201915b505050505090806002018054611e6d90614a96565b80601f0160208091040260200160405190810160405280929190818152602001828054611e9990614a96565b8015611ee65780601f10611ebb57610100808354040283529160200191611ee6565b820191906000526020600020905b815481529060010190602001808311611ec957829003601f168201915b5050505050908060030160009054906101000a900460ff1690806004018054611f0e90614a96565b80601f0160208091040260200160405190810160405280929190818152602001828054611f3a90614a96565b8015611f875780601f10611f5c57610100808354040283529160200191611f87565b820191906000526020600020905b815481529060010190602001808311611f6a57829003601f168201915b50505050509080600501549080600601549080600701549080600801549080600d0160009054906101000a900460ff169080600e015490508b565b600a602052816000526040600020602052806000526040600020600091509150505481565b6008602052826000526040600020602052816000526040600020818154811061200f57600080fd5b906000526020600020906007020160009250925050508060000154908060010160009054906101000a900473ffffffffffffffffffffffffffffffffffffffff169080600201549080600301805461206690614a96565b80601f016020809104026020016040519081016040528092919081815260200182805461209290614a96565b80156120df5780601f106120b4576101008083540402835291602001916120df565b820191906000526020600020905b8154815290600101906020018083116120c257829003601f168201915b50505050509080600401549080600501549080600601805461210090614a96565b80601f016020809104026020016040519081016040528092919081815260200182805461212c90614a96565b80156121795780601f1061214e57610100808354040283529160200191612179565b820191906000526020600020905b81548152906001019060200180831161215c57829003601f168201915b5050505050905087565b600260009054906101000a900473ffffffffffffffffffffffffffffffffffffffff1681565b606060046000838152602001908152602001600020600c0180548060200260200160405190810160405280929190818152602001828054801561224157602002820191906000526020600020905b8160009054906101000a900473ffffffffffffffffffffffffffffffffffffffff1673ffffffffffffffffffffffffffffffffffffffff16815260200190600101908083116121f7575b50505050509050919050565b60035481565b61225b613891565b6000600460008381526020019081526020016000209050600260038111156122865761228561428a565b5b81600d0160009054906101000a900460ff1660038111156122aa576122a961428a565b5b141580156122ed57506003808111156122c6576122c561428a565b5b81600d0160009054906101000a900460ff1660038111156122ea576122e961428a565b5b14155b61232c576040517f08c379a0000000000000000000000000000000000000000000000000000000008152600401612323906156b2565b60405180910390fd5b600381600d0160006101000a81548160ff021916908360038111156123545761235361428a565b5b021790555060005b81600901805490508110156124f757600082600901828154811061238357612382615267565b5b9060005260206000200160009054906101000a900473ffffffffffffffffffffffffffffffffffffffff169050600083600a0160008373ffffffffffffffffffffffffffffffffffffffff1673ffffffffffffffffffffffffffffffffffffffff16815260200190815260200160002054905060008111156124e857600084600a0160008473ffffffffffffffffffffffffffffffffffffffff1673ffffffffffffffffffffffffffffffffffffffff16815260200190815260200160002081905550600260009054906101000a900473ffffffffffffffffffffffffffffffffffffffff1673ffffffffffffffffffffffffffffffffffffffff1663a9059cbb83836040518363ffffffff1660e01b81526004016124a3929190614d44565b6020604051808303816000875af11580156124c2573d6000803e3d6000fd5b505050506040513d601f19601f820116820180604052508101906124e69190614d82565b505b5050808060010191505061235c565b505050565b612504613891565b60006004600083815260200190815260200160002090506000600381111561252f5761252e61428a565b5b81600d0160009054906101000a900460ff1660038111156125535761255261428a565b5b148061259457506001600381111561256e5761256d61428a565b5b81600d0160009054906101000a900460ff1660038111156125925761259161428a565b5b145b6125d3576040517f08c379a00000000000000000000000000000000000000000000000000000000081526004016125ca9061571e565b60405180910390fd5b80600601544211612619576040517f08c379a00000000000000000000000000000000000000000000000000000000081526004016126109061578a565b60405180910390fd5b600281600d0160006101000a81548160ff021916908360038111156126415761264061428a565b5b0217905550817f935f507847532aab1e4c5aaa641829c1b2dbf7333bfe24d3d11a358feec84c97826008015460405161267a91906144fc565b60405180910390a25050565b61268e613839565b6000600460008481526020019081526020016000209050600060038111156126b9576126b861428a565b5b81600d0160009054906101000a900460ff1660038111156126dd576126dc61428a565b5b1461271d576040517f08c379a0000000000000000000000000000000000000000000000000000000008152600401612714906153af565b60405180910390fd5b80600601544210612763576040517f08c379a000000000000000000000000000000000000000000000000000000000815260040161275a90615487565b60405180910390fd5b80600701548210156127aa576040517f08c379a00000000000000000000000000000000000000000000000000000000081526004016127a1906157f6565b60405180910390fd5b600081600a0160003373ffffffffffffffffffffffffffffffffffffffff1673ffffffffffffffffffffffffffffffffffffffff168152602001908152602001600020541461282e576040517f08c379a000000000000000000000000000000000000000000000000000000000815260040161282590615862565b60405180910390fd5b600260009054906101000a900473ffffffffffffffffffffffffffffffffffffffff1673ffffffffffffffffffffffffffffffffffffffff166323b872dd3330856040518463ffffffff1660e01b815260040161288d93929190615882565b6020604051808303816000875af11580156128ac573d6000803e3d6000fd5b505050506040513d601f19601f820116820180604052508101906128d09190614d82565b61290f576040517f08c379a000000000000000000000000000000000000000000000000000000000815260040161290690614dfb565b60405180910390fd5b80600901339080600181540180825580915050600190039060005260206000200160009091909190916101000a81548173ffffffffffffffffffffffffffffffffffffffff021916908373ffffffffffffffffffffffffffffffffffffffff1602179055508181600a0160003373ffffffffffffffffffffffffffffffffffffffff1673ffffffffffffffffffffffffffffffffffffffff16815260200190815260200160002081905550818160080160008282546129ce9190614d10565b925050819055503373ffffffffffffffffffffffffffffffffffffffff16837f44c4b6abb371768de3a7756bdb12fd74800a75207fae3d12f5bcd7a7bc4fcee984604051612a1c91906144fc565b60405180910390a350612a2d613888565b5050565b60006004600085815260200190815260200160002090506000805b82600c0180549050811015612ae4573373ffffffffffffffffffffffffffffffffffffffff1683600c018281548110612a8857612a87615267565b5b9060005260206000200160009054906101000a900473ffffffffffffffffffffffffffffffffffffffff1673ffffffffffffffffffffffffffffffffffffffff1603612ad75760019150612ae4565b8080600101915050612a4c565b5080612b25576040517f08c379a0000000000000000000000000000000000000000000000000000000008152600401612b1c90615905565b60405180910390fd5b60016002811115612b3957612b3861428a565b5b600560003373ffffffffffffffffffffffffffffffffffffffff1673ffffffffffffffffffffffffffffffffffffffff16815260200190815260200160002060030160009054906101000a900460ff166002811115612b9b57612b9a61428a565b5b14612bdb576040517f08c379a0000000000000000000000000000000000000000000000000000000008152600401612bd290615971565b60405180910390fd5b60006003811115612bef57612bee61428a565b5b82600d0160009054906101000a900460ff166003811115612c1357612c1261428a565b5b1480612c54575060016003811115612c2e57612c2d61428a565b5b82600d0160009054906101000a900460ff166003811115612c5257612c5161428a565b5b145b612c93576040517f08c379a0000000000000000000000000000000000000000000000000000000008152600401612c8a906159dd565b60405180910390fd5b600082600a0160008673ffffffffffffffffffffffffffffffffffffffff1673ffffffffffffffffffffffffffffffffffffffff1681526020019081526020016000205411612d17576040517f08c379a0000000000000000000000000000000000000000000000000000000008152600401612d0e906154f3565b60405180910390fd5b826009600087815260200190815260200160002060008673ffffffffffffffffffffffffffffffffffffffff1673ffffffffffffffffffffffffffffffffffffffff16815260200190815260200160002060003373ffffffffffffffffffffffffffffffffffffffff1673ffffffffffffffffffffffffffffffffffffffff16815260200190815260200160002060006101000a81548160ff0219169083151502179055508215612f0957600a600086815260200190815260200160002060008573ffffffffffffffffffffffffffffffffffffffff1673ffffffffffffffffffffffffffffffffffffffff1681526020019081526020016000206000815480929190612e2390614fab565b9190505550600282600c0180549050612e3c9190614cdf565b600a600087815260200190815260200160002060008673ffffffffffffffffffffffffffffffffffffffff1673ffffffffffffffffffffffffffffffffffffffff168152602001908152602001600020541115612f0857600182600b0160008673ffffffffffffffffffffffffffffffffffffffff1673ffffffffffffffffffffffffffffffffffffffff16815260200190815260200160002060006101000a81548160ff02191690831515021790555081600e016000815480929190612f0290614fab565b91905055505b5b3373ffffffffffffffffffffffffffffffffffffffff168473ffffffffffffffffffffffffffffffffffffffff16867ff6d53a744b012e56d1a71f1abfce34b71f019e99d266f9d1eb3ef6ee4b07daa986604051612f67919061498b565b60405180910390a45050505050565b600080600080600060606000600760008b815260200190815260200160002060008a73ffffffffffffffffffffffffffffffffffffffff1673ffffffffffffffffffffffffffffffffffffffff1681526020019081526020016000208881548110612fe457612fe3615267565b5b90600052602060002090600a020160405180610140016040529081600082015481526020016001820160009054906101000a900473ffffffffffffffffffffffffffffffffffffffff1673ffffffffffffffffffffffffffffffffffffffff1673ffffffffffffffffffffffffffffffffffffffff16815260200160028201548152602001600382015481526020016004820154815260200160058201548152602001600682015481526020016007820180546130a090614a96565b80601f01602080910402602001604051908101604052809291908181526020018280546130cc90614a96565b80156131195780601f106130ee57610100808354040283529160200191613119565b820191906000526020600020905b8154815290600101906020018083116130fc57829003601f168201915b5050505050815260200160088201805461313290614a96565b80601f016020809104026020016040519081016040528092919081815260200182805461315e90614a96565b80156131ab5780601f10613180576101008083540402835291602001916131ab565b820191906000526020600020905b81548152906001019060200180831161318e57829003601f168201915b505050505081526020016009820180546131c490614a96565b80601f01602080910402602001604051908101604052809291908181526020018280546131f090614a96565b801561323d5780601f106132125761010080835404028352916020019161323d565b820191906000526020600020905b81548152906001019060200180831161322057829003601f168201915b50505050508152505090508060400151816060015182608001518360a001518460c001518560e001519650965096509650965096505093975093979195509350565b6006818154811061328f57600080fd5b906000526020600020016000915054906101000a900473ffffffffffffffffffffffffffffffffffffffff1681565b6009602052826000526040600020602052816000526040600020602052806000526040600020600092509250509054906101000a900460ff1681565b613302613891565b600073ffffffffffffffffffffffffffffffffffffffff16600560008473ffffffffffffffffffffffffffffffffffffffff1673ffffffffffffffffffffffffffffffffffffffff16815260200190815260200160002060000160009054906101000a900473ffffffffffffffffffffffffffffffffffffffff1673ffffffffffffffffffffffffffffffffffffffff16036133d3576040517f08c379a00000000000000000000000000000000000000000000000000000000081526004016133ca90615a49565b60405180910390fd5b80600560008473ffffffffffffffffffffffffffffffffffffffff1673ffffffffffffffffffffffffffffffffffffffff16815260200190815260200160002060030160006101000a81548160ff021916908360028111156134385761343761428a565b5b02179055508173ffffffffffffffffffffffffffffffffffffffff167f13f230fb0671145c06a2815c6ade485308c7924ec193dface37384148a36af7f826040516134839190615a69565b60405180910390a25050565b613497613891565b600073ffffffffffffffffffffffffffffffffffffffff168273ffffffffffffffffffffffffffffffffffffffff1603613506576040517f08c379a00000000000000000000000000000000000000000000000000000000081526004016134fd90615ad0565b60405180910390fd5b600073ffffffffffffffffffffffffffffffffffffffff16600560008473ffffffffffffffffffffffffffffffffffffffff1673ffffffffffffffffffffffffffffffffffffffff16815260200190815260200160002060000160009054906101000a900473ffffffffffffffffffffffffffffffffffffffff1673ffffffffffffffffffffffffffffffffffffffff16146135d7576040517f08c379a00000000000000000000000000000000000000000000000000000000081526004016135ce90615b3c565b60405180910390fd5b600060405180608001604052808473ffffffffffffffffffffffffffffffffffffffff16815260200183815260200160648152602001600160028111156136215761362061428a565b5b815250905080600560008573ffffffffffffffffffffffffffffffffffffffff1673ffffffffffffffffffffffffffffffffffffffff16815260200190815260200160002060008201518160000160006101000a81548173ffffffffffffffffffffffffffffffffffffffff021916908373ffffffffffffffffffffffffffffffffffffffff16021790555060208201518160010190816136c29190615195565b506040820151816002015560608201518160030160006101000a81548160ff021916908360028111156136f8576136f761428a565b5b02179055509050506006839080600181540180825580915050600190039060005260206000200160009091909190916101000a81548173ffffffffffffffffffffffffffffffffffffffff021916908373ffffffffffffffffffffffffffffffffffffffff1602179055508273ffffffffffffffffffffffffffffffffffffffff167f2ebc0713155154f285863392d371d359a16a35da1e02e9cc3a241a78eb6ae24a836040516137a99190615b5c565b60405180910390a2505050565b6137be613891565b600073ffffffffffffffffffffffffffffffffffffffff168173ffffffffffffffffffffffffffffffffffffffff160361382d576040517f08c379a000000000000000000000000000000000000000000000000000000000815260040161382490615bf0565b60405180910390fd5b6138368161390f565b50565b60026001540361387e576040517f08c379a000000000000000000000000000000000000000000000000000000000815260040161387590615c5c565b60405180910390fd5b6002600181905550565b60018081905550565b6138996139d3565b73ffffffffffffffffffffffffffffffffffffffff166138b7611d8d565b73ffffffffffffffffffffffffffffffffffffffff161461390d576040517f08c379a000000000000000000000000000000000000000000000000000000000815260040161390490615cc8565b60405180910390fd5b565b60008060009054906101000a900473ffffffffffffffffffffffffffffffffffffffff169050816000806101000a81548173ffffffffffffffffffffffffffffffffffffffff021916908373ffffffffffffffffffffffffffffffffffffffff1602179055508173ffffffffffffffffffffffffffffffffffffffff168173ffffffffffffffffffffffffffffffffffffffff167f8be0079c531659141344cd1fd0a4f28419497f9722a3daafe3b4186f6b6457e060405160405180910390a35050565b600033905090565b6000604051905090565b600080fd5b600080fd5b6000819050919050565b613a02816139ef565b8114613a0d57600080fd5b50565b600081359050613a1f816139f9565b92915050565b600073ffffffffffffffffffffffffffffffffffffffff82169050919050565b6000613a5082613a25565b9050919050565b613a6081613a45565b8114613a6b57600080fd5b50565b600081359050613a7d81613a57565b92915050565b600080600060608486031215613a9c57613a9b6139e5565b5b6000613aaa86828701613a10565b9350506020613abb86828701613a6e565b9250506040613acc86828701613a10565b9150509250925092565b613adf816139ef565b82525050565b613aee81613a45565b82525050565b600081519050919050565b600082825260208201905092915050565b60005b83811015613b2e578082015181840152602081019050613b13565b60008484015250505050565b6000601f19601f8301169050919050565b6000613b5682613af4565b613b608185613aff565b9350613b70818560208601613b10565b613b7981613b3a565b840191505092915050565b600081519050919050565b600082825260208201905092915050565b6000613bab82613b84565b613bb58185613b8f565b9350613bc5818560208601613b10565b613bce81613b3a565b840191505092915050565b600061014082019050613bef600083018d613ad6565b613bfc602083018c613ae5565b613c09604083018b613ad6565b613c16606083018a613ad6565b613c236080830189613ad6565b613c3060a0830188613ad6565b613c3d60c0830187613ad6565b81810360e0830152613c4f8186613b4b565b9050818103610100830152613c648185613b4b565b9050818103610120830152613c798184613ba0565b90509b9a5050505050505050505050565b600060208284031215613ca057613c9f6139e5565b5b6000613cae84828501613a10565b91505092915050565b600081519050919050565b600082825260208201905092915050565b6000819050602082019050919050565b613cec81613a45565b82525050565b6000613cfe8383613ce3565b60208301905092915050565b6000602082019050919050565b6000613d2282613cb7565b613d2c8185613cc2565b9350613d3783613cd3565b8060005b83811015613d68578151613d4f8882613cf2565b9750613d5a83613d0a565b925050600181019050613d3b565b5085935050505092915050565b60006020820190508181036000830152613d8f8184613d17565b905092915050565b600080fd5b600080fd5b7f4e487b7100000000000000000000000000000000000000000000000000000000600052604160045260246000fd5b613dd982613b3a565b810181811067ffffffffffffffff82111715613df857613df7613da1565b5b80604052505050565b6000613e0b6139db565b9050613e178282613dd0565b919050565b600067ffffffffffffffff821115613e3757613e36613da1565b5b613e4082613b3a565b9050602081019050919050565b82818337600083830152505050565b6000613e6f613e6a84613e1c565b613e01565b905082815260208101848484011115613e8b57613e8a613d9c565b5b613e96848285613e4d565b509392505050565b600082601f830112613eb357613eb2613d97565b5b8135613ec3848260208601613e5c565b91505092915050565b60038110613ed957600080fd5b50565b600081359050613eeb81613ecc565b92915050565b600067ffffffffffffffff821115613f0c57613f0b613da1565b5b602082029050602081019050919050565b600080fd5b6000613f35613f3084613ef1565b613e01565b90508083825260208201905060208402830185811115613f5857613f57613f1d565b5b835b81811015613f815780613f6d8882613a6e565b845260208401935050602081019050613f5a565b5050509392505050565b600082601f830112613fa057613f9f613d97565b5b8135613fb0848260208601613f22565b91505092915050565b600080600080600080600080610100898b031215613fda57613fd96139e5565b5b600089013567ffffffffffffffff811115613ff857613ff76139ea565b5b6140048b828c01613e9e565b985050602089013567ffffffffffffffff811115614025576140246139ea565b5b6140318b828c01613e9e565b97505060406140428b828c01613edc565b965050606089013567ffffffffffffffff811115614063576140626139ea565b5b61406f8b828c01613e9e565b95505060806140808b828c01613a10565b94505060a06140918b828c01613a10565b93505060c06140a28b828c01613a10565b92505060e089013567ffffffffffffffff8111156140c3576140c26139ea565b5b6140cf8b828c01613f8b565b9150509295985092959890939650565b600067ffffffffffffffff8211156140fa576140f9613da1565b5b61410382613b3a565b9050602081019050919050565b600061412361411e846140df565b613e01565b90508281526020810184848401111561413f5761413e613d9c565b5b61414a848285613e4d565b509392505050565b600082601f83011261416757614166613d97565b5b8135614177848260208601614110565b91505092915050565b600080600080600080600080610100898b0312156141a1576141a06139e5565b5b60006141af8b828c01613a10565b98505060206141c08b828c01613a10565b97505060406141d18b828c01613a10565b96505060606141e28b828c01613a10565b95505060806141f38b828c01613a10565b94505060a089013567ffffffffffffffff811115614214576142136139ea565b5b6142208b828c01613e9e565b93505060c089013567ffffffffffffffff811115614241576142406139ea565b5b61424d8b828c01613e9e565b92505060e089013567ffffffffffffffff81111561426e5761426d6139ea565b5b61427a8b828c01614152565b9150509295985092959890939650565b7f4e487b7100000000000000000000000000000000000000000000000000000000600052602160045260246000fd5b600381106142ca576142c961428a565b5b50565b60008190506142db826142b9565b919050565b60006142eb826142cd565b9050919050565b6142fb816142e0565b82525050565b600481106143125761431161428a565b5b50565b600081905061432382614301565b919050565b600061433382614315565b9050919050565b61434381614328565b82525050565b6000610160820190508181036000830152614364818e613b4b565b90508181036020830152614378818d613b4b565b9050614387604083018c6142f2565b8181036060830152614399818b613b4b565b90506143a8608083018a613ad6565b6143b560a0830189613ad6565b6143c260c0830188613ad6565b6143cf60e0830187613ad6565b6143dd61010083018661433a565b6143eb610120830185613ad6565b6143f9610140830184613ad6565b9c9b505050505050505050505050565b600080600080600060a08688031215614425576144246139e5565b5b600061443388828901613a10565b955050602086013567ffffffffffffffff811115614454576144536139ea565b5b61446088828901613e9e565b945050604061447188828901613a10565b935050606061448288828901613a10565b925050608086013567ffffffffffffffff8111156144a3576144a26139ea565b5b6144af88828901614152565b9150509295509295909350565b600080604083850312156144d3576144d26139e5565b5b60006144e185828601613a10565b92505060206144f285828601613a6e565b9150509250929050565b60006020820190506145116000830184613ad6565b92915050565b600060808201905061452c6000830187613ad6565b818103602083015261453e8186613b4b565b905061454d6040830185613ad6565b61455a6060830184613ad6565b95945050505050565b600060208284031215614579576145786139e5565b5b600061458784828501613a6e565b91505092915050565b600381106145a1576145a061428a565b5b50565b60008190506145b282614590565b919050565b60006145c2826145a4565b9050919050565b6145d2816145b7565b82525050565b60006080820190506145ed6000830187613ae5565b81810360208301526145ff8186613b4b565b905061460e6040830185613ad6565b61461b60608301846145c9565b95945050505050565b60006020820190506146396000830184613ae5565b92915050565b600061016082019050614655600083018e613ad6565b8181036020830152614667818d613b4b565b9050818103604083015261467b818c613b4b565b905061468a606083018b6142f2565b818103608083015261469c818a613b4b565b90506146ab60a0830189613ad6565b6146b860c0830188613ad6565b6146c560e0830187613ad6565b6146d3610100830186613ad6565b6146e161012083018561433a565b6146ef610140830184613ad6565b9c9b505050505050505050505050565b600060e082019050614714600083018a613ad6565b6147216020830189613ae5565b61472e6040830188613ad6565b81810360608301526147408187613b4b565b905061474f6080830186613ad6565b61475c60a0830185613ad6565b81810360c083015261476e8184613ba0565b905098975050505050505050565b6000819050919050565b60006147a161479c61479784613a25565b61477c565b613a25565b9050919050565b60006147b382614786565b9050919050565b60006147c5826147a8565b9050919050565b6147d5816147ba565b82525050565b60006020820190506147f060008301846147cc565b92915050565b6000806040838503121561480d5761480c6139e5565b5b600061481b85828601613a10565b925050602061482c85828601613a10565b9150509250929050565b60008115159050919050565b61484b81614836565b811461485657600080fd5b50565b60008135905061486881614842565b92915050565b600080600060608486031215614887576148866139e5565b5b600061489586828701613a10565b93505060206148a686828701613a6e565b92505060406148b786828701614859565b9150509250925092565b600060c0820190506148d66000830189613ad6565b6148e36020830188613ad6565b6148f06040830187613ad6565b6148fd6060830186613ad6565b61490a6080830185613ad6565b81810360a083015261491c8184613b4b565b9050979650505050505050565b600080600060608486031215614942576149416139e5565b5b600061495086828701613a10565b935050602061496186828701613a6e565b925050604061497286828701613a6e565b9150509250925092565b61498581614836565b82525050565b60006020820190506149a0600083018461497c565b92915050565b600381106149b357600080fd5b50565b6000813590506149c5816149a6565b92915050565b600080604083850312156149e2576149e16139e5565b5b60006149f085828601613a6e565b9250506020614a01858286016149b6565b9150509250929050565b60008060408385031215614a2257614a216139e5565b5b6000614a3085828601613a6e565b925050602083013567ffffffffffffffff811115614a5157614a506139ea565b5b614a5d85828601613e9e565b9150509250929050565b7f4e487b7100000000000000000000000000000000000000000000000000000000600052602260045260246000fd5b60006002820490506001821680614aae57607f821691505b602082108103614ac157614ac0614a67565b5b50919050565b7f4368616c6c656e6765206e6f7420636f6d706c65746564000000000000000000600082015250565b6000614afd601783613aff565b9150614b0882614ac7565b602082019050919050565b60006020820190508181036000830152614b2c81614af0565b9050919050565b7f446964206e6f7420636f6d706c657465206368616c6c656e6765000000000000600082015250565b6000614b69601a83613aff565b9150614b7482614b33565b602082019050919050565b60006020820190508181036000830152614b9881614b5c565b9050919050565b7f4e6f207374616b6520666f756e64000000000000000000000000000000000000600082015250565b6000614bd5600e83613aff565b9150614be082614b9f565b602082019050919050565b60006020820190508181036000830152614c0481614bc8565b9050919050565b7f4e487b7100000000000000000000000000000000000000000000000000000000600052601160045260246000fd5b6000614c45826139ef565b9150614c50836139ef565b9250828202614c5e816139ef565b91508282048414831517614c7557614c74614c0b565b5b5092915050565b6000614c87826139ef565b9150614c92836139ef565b9250828203905081811115614caa57614ca9614c0b565b5b92915050565b7f4e487b7100000000000000000000000000000000000000000000000000000000600052601260045260246000fd5b6000614cea826139ef565b9150614cf5836139ef565b925082614d0557614d04614cb0565b5b828204905092915050565b6000614d1b826139ef565b9150614d26836139ef565b9250828201905080821115614d3e57614d3d614c0b565b5b92915050565b6000604082019050614d596000830185613ae5565b614d666020830184613ad6565b9392505050565b600081519050614d7c81614842565b92915050565b600060208284031215614d9857614d976139e5565b5b6000614da684828501614d6d565b91505092915050565b7f546f6b656e207472616e73666572206661696c65640000000000000000000000600082015250565b6000614de5601583613aff565b9150614df082614daf565b602082019050919050565b60006020820190508181036000830152614e1481614dd8565b9050919050565b7f53746172742064617465206d75737420626520696e2074686520667574757265600082015250565b6000614e51602083613aff565b9150614e5c82614e1b565b602082019050919050565b60006020820190508181036000830152614e8081614e44565b9050919050565b7f456e642064617465206d7573742062652061667465722073746172742064617460008201527f6500000000000000000000000000000000000000000000000000000000000000602082015250565b6000614ee3602183613aff565b9150614eee82614e87565b604082019050919050565b60006020820190508181036000830152614f1281614ed6565b9050919050565b7f4d696e696d756d207374616b65206d757374206265206772656174657220746860008201527f616e203000000000000000000000000000000000000000000000000000000000602082015250565b6000614f75602483613aff565b9150614f8082614f19565b604082019050919050565b60006020820190508181036000830152614fa481614f68565b9050919050565b6000614fb6826139ef565b91507fffffffffffffffffffffffffffffffffffffffffffffffffffffffffffffffff8203614fe857614fe7614c0b565b5b600182019050919050565b60008190508160005260206000209050919050565b60006020601f8301049050919050565b600082821b905092915050565b6000600883026150557fffffffffffffffffffffffffffffffffffffffffffffffffffffffffffffffff82615018565b61505f8683615018565b95508019841693508086168417925050509392505050565b600061509261508d615088846139ef565b61477c565b6139ef565b9050919050565b6000819050919050565b6150ac83615077565b6150c06150b882615099565b848454615025565b825550505050565b600090565b6150d56150c8565b6150e08184846150a3565b505050565b5b81811015615104576150f96000826150cd565b6001810190506150e6565b5050565b601f8211156151495761511a81614ff3565b61512384615008565b81016020851015615132578190505b61514661513e85615008565b8301826150e5565b50505b505050565b600082821c905092915050565b600061516c6000198460080261514e565b1980831691505092915050565b6000615185838361515b565b9150826002028217905092915050565b61519e82613af4565b67ffffffffffffffff8111156151b7576151b6613da1565b5b6151c18254614a96565b6151cc828285615108565b600060209050601f8311600181146151ff57600084156151ed578287015190505b6151f78582615179565b86555061525f565b601f19841661520d86614ff3565b60005b8281101561523557848901518255600182019150602085019450602081019050615210565b86831015615252578489015161524e601f89168261515b565b8355505b6001600288020188555050505b505050505050565b7f4e487b7100000000000000000000000000000000000000000000000000000000600052603260045260246000fd5b7f496e76616c6964206a7564676500000000000000000000000000000000000000600082015250565b60006152cc600d83613aff565b91506152d782615296565b602082019050919050565b600060208201905081810360008301526152fb816152bf565b9050919050565b600060a082019050818103600083015261531c8188613b4b565b905061532b6020830187613ad6565b6153386040830186613ad6565b61534560608301856142f2565b81810360808301526153578184613b4b565b90509695505050505050565b7f4368616c6c656e6765206973206e6f7420616374697665000000000000000000600082015250565b6000615399601783613aff565b91506153a482615363565b602082019050919050565b600060208201905081810360008301526153c88161538c565b9050919050565b7f4368616c6c656e676520686173206e6f74207374617274656400000000000000600082015250565b6000615405601983613aff565b9150615410826153cf565b602082019050919050565b60006020820190508181036000830152615434816153f8565b9050919050565b7f4368616c6c656e67652068617320656e64656400000000000000000000000000600082015250565b6000615471601383613aff565b915061547c8261543b565b602082019050919050565b600060208201905081810360008301526154a081615464565b9050919050565b7f4e6f742061207061727469636970616e74000000000000000000000000000000600082015250565b60006154dd601183613aff565b91506154e8826154a7565b602082019050919050565b6000602082019050818103600083015261550c816154d0565b9050919050565b60008190508160005260206000209050919050565b601f8211156155695761553a81615513565b61554384615008565b81016020851015615552578190505b61556661555e85615008565b8301826150e5565b50505b505050565b61557782613b84565b67ffffffffffffffff8111156155905761558f613da1565b5b61559a8254614a96565b6155a5828285615528565b600060209050601f8311600181146155d857600084156155c6578287015190505b6155d08582615179565b865550615638565b601f1984166155e686615513565b60005b8281101561560e578489015182556001820191506020850194506020810190506155e9565b8683101561562b5784890151615627601f89168261515b565b8355505b6001600288020188555050505b505050505050565b7f4368616c6c656e676520616c726561647920636f6d706c65746564206f72206360008201527f616e63656c6c6564000000000000000000000000000000000000000000000000602082015250565b600061569c602883613aff565b91506156a782615640565b604082019050919050565b600060208201905081810360008301526156cb8161568f565b9050919050565b7f4368616c6c656e67652063616e6e6f7420626520636f6d706c65746564000000600082015250565b6000615708601d83613aff565b9150615713826156d2565b602082019050919050565b60006020820190508181036000830152615737816156fb565b9050919050565b7f4368616c6c656e676520686173206e6f7420656e646564000000000000000000600082015250565b6000615774601783613aff565b915061577f8261573e565b602082019050919050565b600060208201905081810360008301526157a381615767565b9050919050565b7f5374616b6520616d6f756e7420746f6f206c6f77000000000000000000000000600082015250565b60006157e0601483613aff565b91506157eb826157aa565b602082019050919050565b6000602082019050818103600083015261580f816157d3565b9050919050565b7f416c7265616479206a6f696e6564000000000000000000000000000000000000600082015250565b600061584c600e83613aff565b915061585782615816565b602082019050919050565b6000602082019050818103600083015261587b8161583f565b9050919050565b60006060820190506158976000830186613ae5565b6158a46020830185613ae5565b6158b16040830184613ad6565b949350505050565b7f4e6f742061206a7564676520666f722074686973206368616c6c656e67650000600082015250565b60006158ef601e83613aff565b91506158fa826158b9565b602082019050919050565b6000602082019050818103600083015261591e816158e2565b9050919050565b7f4a75646765206973206e6f742061637469766500000000000000000000000000600082015250565b600061595b601383613aff565b915061596682615925565b602082019050919050565b6000602082019050818103600083015261598a8161594e565b9050919050565b7f4368616c6c656e6765206e6f7420696e206a756467696e672070686173650000600082015250565b60006159c7601e83613aff565b91506159d282615991565b602082019050919050565b600060208201905081810360008301526159f6816159ba565b9050919050565b7f4a7564676520646f6573206e6f74206578697374000000000000000000000000600082015250565b6000615a33601483613aff565b9150615a3e826159fd565b602082019050919050565b60006020820190508181036000830152615a6281615a26565b9050919050565b6000602082019050615a7e60008301846145c9565b92915050565b7f496e76616c696420616464726573730000000000000000000000000000000000600082015250565b6000615aba600f83613aff565b9150615ac582615a84565b602082019050919050565b60006020820190508181036000830152615ae981615aad565b9050919050565b7f4a7564676520616c726561647920657869737473000000000000000000000000600082015250565b6000615b26601483613aff565b9150615b3182615af0565b602082019050919050565b60006020820190508181036000830152615b5581615b19565b9050919050565b60006020820190508181036000830152615b768184613b4b565b905092915050565b7f4f776e61626c653a206e6577206f776e657220697320746865207a65726f206160008201527f6464726573730000000000000000000000000000000000000000000000000000602082015250565b6000615bda602683613aff565b9150615be582615b7e565b604082019050919050565b60006020820190508181036000830152615c0981615bcd565b9050919050565b7f5265656e7472616e637947756172643a207265656e7472616e742063616c6c00600082015250565b6000615c46601f83613aff565b9150615c5182615c10565b602082019050919050565b60006020820190508181036000830152615c7581615c39565b9050919050565b7f4f776e61626c653a2063616c6c6572206973206e6f7420746865206f776e6572600082015250565b6000615cb2602083613aff565b9150615cbd82615c7c565b602082019050919050565b60006020820190508181036000830152615ce181615ca5565b905091905056fea26469706673582212206207553d8a52810073beb7d7e4e611a448b1d085c4574354e8e52dc53b83038564736f6c634300081c0033",
  "linkReferences": {},
  "deployedLinkReferences": {}
}