{
  "_format": "hh-sol-artifact-1",
  "contractName": "HealthyWorldChallenges",
  "sourceName": "contracts/HealthyWorldChallenges.sol",
  "abi": [
    {
      "inputs": [
        {
          "internalType": "address",
          "name": "_wldToken",
          "type": "address"
        }
      ],
      "stateMutability": "nonpayable",
      "type": "constructor"
    },
    {
      "anonymous": false,
      "inputs": [
        {
          "indexed": true,
          "internalType": "uint256",
          "name": "challengeId",
          "type": "uint256"
        },
        {
          "indexed": false,
          "internalType": "uint256",
          "name": "totalRewards",
          "type": "uint256"
        }
      ],
      "name": "ChallengeCompleted",
      "type": "event"
    },
    {
      "anonymous": false,
      "inputs": [
        {
          "indexed": true,
          "internalType": "uint256",
          "name": "challengeId",
          "type": "uint256"
        },
        {
          "indexed": false,
          "internalType": "string",
          "name": "name",
          "type": "string"
        },
        {
          "indexed": false,
          "internalType": "uint256",
          "name": "startDate",
          "type": "uint256"
        },
        {
          "indexed": false,
          "internalType": "uint256",
          "name": "endDate",
          "type": "uint256"
        }
      ],
      "name": "ChallengeCreated",
      "type": "event"
    },
    {
      "anonymous": false,
      "inputs": [
        {
          "indexed": true,
          "internalType": "uint256",
          "name": "challengeId",
          "type": "uint256"
        },
        {
          "indexed": true,
          "internalType": "address",
          "name": "participant",
          "type": "address"
        },
        {
          "indexed": false,
          "internalType": "uint256",
          "name": "stakeAmount",
          "type": "uint256"
        }
      ],
      "name": "ChallengeJoined",
      "type": "event"
    },
    {
      "anonymous": false,
      "inputs": [
        {
          "indexed": true,
          "internalType": "uint256",
          "name": "challengeId",
          "type": "uint256"
        },
        {
          "indexed": true,
          "internalType": "address",
          "name": "participant",
          "type": "address"
        },
        {
          "indexed": true,
          "internalType": "address",
          "name": "judge",
          "type": "address"
        },
        {
          "indexed": false,
          "internalType": "bool",
          "name": "approved",
          "type": "bool"
        }
      ],
      "name": "ChallengeVerified",
      "type": "event"
    },
    {
      "anonymous": false,
      "inputs": [
        {
          "indexed": true,
          "internalType": "uint256",
          "name": "challengeId",
          "type": "uint256"
        },
        {
          "indexed": true,
          "internalType": "address",
          "name": "participant",
          "type": "address"
        },
        {
          "indexed": false,
          "internalType": "uint256",
          "name": "timestamp",
          "type": "uint256"
        }
      ],
      "name": "HealthDataSubmitted",
      "type": "event"
    },
    {
      "anonymous": false,
      "inputs": [
        {
          "indexed": true,
          "internalType": "address",
          "name": "judge",
          "type": "address"
        },
        {
          "indexed": false,
          "internalType": "string",
          "name": "name",
          "type": "string"
        }
      ],
      "name": "JudgeAdded",
      "type": "event"
    },
    {
      "anonymous": false,
      "inputs": [
        {
          "indexed": true,
          "internalType": "address",
          "name": "judge",
          "type": "address"
        },
        {
          "indexed": false,
          "internalType": "enum HealthyWorldChallenges.JudgeStatus",
          "name": "status",
          "type": "uint8"
        }
      ],
      "name": "JudgeStatusChanged",
      "type": "event"
    },
    {
      "anonymous": false,
      "inputs": [
        {
          "indexed": true,
          "internalType": "address",
          "name": "previousOwner",
          "type": "address"
        },
        {
          "indexed": true,
          "internalType": "address",
          "name": "newOwner",
          "type": "address"
        }
      ],
      "name": "OwnershipTransferred",
      "type": "event"
    },
    {
      "anonymous": false,
      "inputs": [
        {
          "indexed": true,
          "internalType": "uint256",
          "name": "challengeId",
          "type": "uint256"
        },
        {
          "indexed": true,
          "internalType": "address",
          "name": "participant",
          "type": "address"
        },
        {
          "indexed": false,
          "internalType": "uint256",
          "name": "amount",
          "type": "uint256"
        }
      ],
      "name": "RewardsClaimed",
      "type": "event"
    },
    {
      "inputs": [
        {
          "internalType": "address",
          "name": "_judge",
          "type": "address"
        },
        {
          "internalType": "string",
          "name": "_name",
          "type": "string"
        }
      ],
      "name": "addJudge",
      "outputs": [],
      "stateMutability": "nonpayable",
      "type": "function"
    },
    {
      "inputs": [
        {
          "internalType": "uint256",
          "name": "",
          "type": "uint256"
        },
        {
          "internalType": "address",
          "name": "",
          "type": "address"
        }
      ],
      "name": "approvalCount",
      "outputs": [
        {
          "internalType": "uint256",
          "name": "",
          "type": "uint256"
        }
      ],
      "stateMutability": "view",
      "type": "function"
    },
    {
      "inputs": [
        {
          "internalType": "uint256",
          "name": "_challengeId",
          "type": "uint256"
        }
      ],
      "name": "cancelChallenge",
      "outputs": [],
      "stateMutability": "nonpayable",
      "type": "function"
    },
    {
      "inputs": [],
      "name": "challengeCount",
      "outputs": [
        {
          "internalType": "uint256",
          "name": "",
          "type": "uint256"
        }
      ],
      "stateMutability": "view",
      "type": "function"
    },
    {
      "inputs": [
        {
          "internalType": "uint256",
          "name": "",
          "type": "uint256"
        }
      ],
      "name": "challenges",
      "outputs": [
        {
          "internalType": "uint256",
          "name": "id",
          "type": "uint256"
        },
        {
          "internalType": "string",
          "name": "name",
          "type": "string"
        },
        {
          "internalType": "string",
          "name": "description",
          "type": "string"
        },
        {
          "internalType": "uint256",
          "name": "startDate",
          "type": "uint256"
        },
        {
          "internalType": "uint256",
          "name": "endDate",
          "type": "uint256"
        },
        {
          "internalType": "uint256",
          "name": "minStake",
          "type": "uint256"
        },
        {
          "internalType": "uint256",
          "name": "poolSize",
          "type": "uint256"
        },
        {
          "internalType": "enum HealthyWorldChallenges.ChallengeStatus",
          "name": "status",
          "type": "uint8"
        },
        {
          "internalType": "uint256",
          "name": "completedParticipants",
          "type": "uint256"
        }
      ],
      "stateMutability": "view",
      "type": "function"
    },
    {
      "inputs": [
        {
          "internalType": "address",
          "name": "_judge",
          "type": "address"
        },
        {
          "internalType": "enum HealthyWorldChallenges.JudgeStatus",
          "name": "_status",
          "type": "uint8"
        }
      ],
      "name": "changeJudgeStatus",
      "outputs": [],
      "stateMutability": "nonpayable",
      "type": "function"
    },
    {
      "inputs": [
        {
          "internalType": "uint256",
          "name": "_challengeId",
          "type": "uint256"
        }
      ],
      "name": "claimRewards",
      "outputs": [],
      "stateMutability": "nonpayable",
      "type": "function"
    },
    {
      "inputs": [
        {
          "internalType": "uint256",
          "name": "_challengeId",
          "type": "uint256"
        }
      ],
      "name": "completeChallenge",
      "outputs": [],
      "stateMutability": "nonpayable",
      "type": "function"
    },
    {
      "inputs": [
        {
          "internalType": "string",
          "name": "_name",
          "type": "string"
        },
        {
          "internalType": "string",
          "name": "_description",
          "type": "string"
        },
        {
          "internalType": "uint256",
          "name": "_startDate",
          "type": "uint256"
        },
        {
          "internalType": "uint256",
          "name": "_endDate",
          "type": "uint256"
        },
        {
          "internalType": "uint256",
          "name": "_minStake",
          "type": "uint256"
        },
        {
          "internalType": "address[]",
          "name": "_judges",
          "type": "address[]"
        }
      ],
      "name": "createChallenge",
      "outputs": [],
      "stateMutability": "nonpayable",
      "type": "function"
    },
    {
      "inputs": [
        {
          "internalType": "uint256",
          "name": "_challengeId",
          "type": "uint256"
        }
      ],
      "name": "getChallengeDetails",
      "outputs": [
        {
          "internalType": "string",
          "name": "name",
          "type": "string"
        },
        {
          "internalType": "string",
          "name": "description",
          "type": "string"
        },
        {
          "internalType": "uint256",
          "name": "startDate",
          "type": "uint256"
        },
        {
          "internalType": "uint256",
          "name": "endDate",
          "type": "uint256"
        },
        {
          "internalType": "uint256",
          "name": "minStake",
          "type": "uint256"
        },
        {
          "internalType": "uint256",
          "name": "poolSize",
          "type": "uint256"
        },
        {
          "internalType": "enum HealthyWorldChallenges.ChallengeStatus",
          "name": "status",
          "type": "uint8"
        },
        {
          "internalType": "uint256",
          "name": "participantCount",
          "type": "uint256"
        },
        {
          "internalType": "uint256",
          "name": "completedCount",
          "type": "uint256"
        }
      ],
      "stateMutability": "view",
      "type": "function"
    },
    {
      "inputs": [
        {
          "internalType": "uint256",
          "name": "_challengeId",
          "type": "uint256"
        }
      ],
      "name": "getChallengeJudges",
      "outputs": [
        {
          "internalType": "address[]",
          "name": "",
          "type": "address[]"
        }
      ],
      "stateMutability": "view",
      "type": "function"
    },
    {
      "inputs": [
        {
          "internalType": "uint256",
          "name": "_challengeId",
          "type": "uint256"
        }
      ],
      "name": "getChallengeParticipants",
      "outputs": [
        {
          "internalType": "address[]",
          "name": "",
          "type": "address[]"
        }
      ],
      "stateMutability": "view",
      "type": "function"
    },
    {
      "inputs": [
        {
          "internalType": "uint256",
          "name": "_challengeId",
          "type": "uint256"
        },
        {
          "internalType": "address",
          "name": "_participant",
          "type": "address"
        },
        {
          "internalType": "uint256",
          "name": "_index",
          "type": "uint256"
        }
      ],
      "name": "getHealthData",
      "outputs": [
        {
          "internalType": "uint256",
          "name": "timestamp",
          "type": "uint256"
        },
        {
          "internalType": "uint256",
          "name": "steps",
          "type": "uint256"
        },
        {
          "internalType": "uint256",
          "name": "waterCups",
          "type": "uint256"
        },
        {
          "internalType": "uint256",
          "name": "sleepHours",
          "type": "uint256"
        },
        {
          "internalType": "uint256",
          "name": "mindfulMinutes",
          "type": "uint256"
        },
        {
          "internalType": "string",
          "name": "dataSourceType",
          "type": "string"
        }
      ],
      "stateMutability": "view",
      "type": "function"
    },
    {
      "inputs": [
        {
          "internalType": "uint256",
          "name": "_challengeId",
          "type": "uint256"
        },
        {
          "internalType": "address",
          "name": "_participant",
          "type": "address"
        }
      ],
      "name": "getHealthDataCount",
      "outputs": [
        {
          "internalType": "uint256",
          "name": "",
          "type": "uint256"
        }
      ],
      "stateMutability": "view",
      "type": "function"
    },
    {
      "inputs": [
        {
          "internalType": "uint256",
          "name": "",
          "type": "uint256"
        },
        {
          "internalType": "address",
          "name": "",
          "type": "address"
        },
        {
          "internalType": "uint256",
          "name": "",
          "type": "uint256"
        }
      ],
      "name": "healthDataSubmissions",
      "outputs": [
        {
          "internalType": "uint256",
          "name": "challengeId",
          "type": "uint256"
        },
        {
          "internalType": "address",
          "name": "participant",
          "type": "address"
        },
        {
          "internalType": "uint256",
          "name": "timestamp",
          "type": "uint256"
        },
        {
          "internalType": "uint256",
          "name": "steps",
          "type": "uint256"
        },
        {
          "internalType": "uint256",
          "name": "waterCups",
          "type": "uint256"
        },
        {
          "internalType": "uint256",
          "name": "sleepHours",
          "type": "uint256"
        },
        {
          "internalType": "uint256",
          "name": "mindfulMinutes",
          "type": "uint256"
        },
        {
          "internalType": "string",
          "name": "dataSourceType",
          "type": "string"
        },
        {
          "internalType": "string",
          "name": "dataSourceId",
          "type": "string"
        },
        {
          "internalType": "bytes",
          "name": "proofData",
          "type": "bytes"
        }
      ],
      "stateMutability": "view",
      "type": "function"
    },
    {
      "inputs": [
        {
          "internalType": "uint256",
          "name": "_challengeId",
          "type": "uint256"
        },
        {
          "internalType": "uint256",
          "name": "_stakeAmount",
          "type": "uint256"
        }
      ],
      "name": "joinChallenge",
      "outputs": [],
      "stateMutability": "nonpayable",
      "type": "function"
    },
    {
      "inputs": [
        {
          "internalType": "uint256",
          "name": "",
          "type": "uint256"
        }
      ],
      "name": "judgeAddresses",
      "outputs": [
        {
          "internalType": "address",
          "name": "",
          "type": "address"
        }
      ],
      "stateMutability": "view",
      "type": "function"
    },
    {
      "inputs": [
        {
          "internalType": "address",
          "name": "",
          "type": "address"
        }
      ],
      "name": "judges",
      "outputs": [
        {
          "internalType": "address",
          "name": "addr",
          "type": "address"
        },
        {
          "internalType": "string",
          "name": "name",
          "type": "string"
        },
        {
          "internalType": "uint256",
          "name": "reputation",
          "type": "uint256"
        },
        {
          "internalType": "enum HealthyWorldChallenges.JudgeStatus",
          "name": "status",
          "type": "uint8"
        }
      ],
      "stateMutability": "view",
      "type": "function"
    },
    {
      "inputs": [],
      "name": "owner",
      "outputs": [
        {
          "internalType": "address",
          "name": "",
          "type": "address"
        }
      ],
      "stateMutability": "view",
      "type": "function"
    },
    {
      "inputs": [],
      "name": "renounceOwnership",
      "outputs": [],
      "stateMutability": "nonpayable",
      "type": "function"
    },
    {
      "inputs": [
        {
          "internalType": "uint256",
          "name": "_challengeId",
          "type": "uint256"
        },
        {
          "internalType": "uint256",
          "name": "_steps",
          "type": "uint256"
        },
        {
          "internalType": "uint256",
          "name": "_waterCups",
          "type": "uint256"
        },
        {
          "internalType": "uint256",
          "name": "_sleepHours",
          "type": "uint256"
        },
        {
          "internalType": "uint256",
          "name": "_mindfulMinutes",
          "type": "uint256"
        },
        {
          "internalType": "string",
          "name": "_dataSourceType",
          "type": "string"
        },
        {
          "internalType": "string",
          "name": "_dataSourceId",
          "type": "string"
        },
        {
          "internalType": "bytes",
          "name": "_proofData",
          "type": "bytes"
        }
      ],
      "name": "submitHealthData",
      "outputs": [],
      "stateMutability": "nonpayable",
      "type": "function"
    },
    {
      "inputs": [
        {
          "internalType": "address",
          "name": "newOwner",
          "type": "address"
        }
      ],
      "name": "transferOwnership",
      "outputs": [],
      "stateMutability": "nonpayable",
      "type": "function"
    },
    {
      "inputs": [
        {
          "internalType": "uint256",
          "name": "",
          "type": "uint256"
        },
        {
          "internalType": "address",
          "name": "",
          "type": "address"
        },
        {
          "internalType": "address",
          "name": "",
          "type": "address"
        }
      ],
      "name": "verifications",
      "outputs": [
        {
          "internalType": "bool",
          "name": "",
          "type": "bool"
        }
      ],
      "stateMutability": "view",
      "type": "function"
    },
    {
      "inputs": [
        {
          "internalType": "uint256",
          "name": "_challengeId",
          "type": "uint256"
        },
        {
          "internalType": "address",
          "name": "_participant",
          "type": "address"
        },
        {
          "internalType": "bool",
          "name": "_approved",
          "type": "bool"
        }
      ],
      "name": "verifyCompletion",
      "outputs": [],
      "stateMutability": "nonpayable",
      "type": "function"
    },
    {
      "inputs": [],
      "name": "wldToken",
      "outputs": [
        {
          "internalType": "contract IERC20",
          "name": "",
          "type": "address"
        }
      ],
      "stateMutability": "view",
      "type": "function"
    }
  ],
  "bytecode": "0x608060405234801561001057600080fd5b50604051615247380380615247833981810160405281019061003291906101d3565b61004e6100436100a460201b60201c565b6100ac60201b60201c565b6001808190555080600260006101000a81548173ffffffffffffffffffffffffffffffffffffffff021916908373ffffffffffffffffffffffffffffffffffffffff160217905550600060038190555050610200565b600033905090565b60008060009054906101000a900473ffffffffffffffffffffffffffffffffffffffff169050816000806101000a81548173ffffffffffffffffffffffffffffffffffffffff021916908373ffffffffffffffffffffffffffffffffffffffff1602179055508173ffffffffffffffffffffffffffffffffffffffff168173ffffffffffffffffffffffffffffffffffffffff167f8be0079c531659141344cd1fd0a4f28419497f9722a3daafe3b4186f6b6457e060405160405180910390a35050565b600080fd5b600073ffffffffffffffffffffffffffffffffffffffff82169050919050565b60006101a082610175565b9050919050565b6101b081610195565b81146101bb57600080fd5b50565b6000815190506101cd816101a7565b92915050565b6000602082840312156101e9576101e8610170565b5b60006101f7848285016101be565b91505092915050565b6150388061020f6000396000f3fe608060405234801561001057600080fd5b50600436106101725760003560e01c80639be3783d116100de578063bed5072611610097578063dd23187d11610071578063dd23187d146104a0578063e5faafbb146104d0578063ee439872146104ec578063f2fde38b1461050857610172565b8063bed507261461041f578063c22ebc151461043b578063c929c8b81461047057610172565b80639be3783d1461035f578063a16fd2e21461037d578063a2f05725146103ad578063a41483e3146103cb578063a7817bbc146103e7578063bd5dab121461040357610172565b8063715018a611610130578063715018a61461026c5780637d900ed0146102765780638422a2f2146102a65780638da5cb5b146102d95780638f1d3776146102f757806391996df71461032f57610172565b806253022614610177578063023bf958146101b05780630962ef79146101e057806339cef1ff146101fc5780633d40a54f146102185780635fa079bf14610250575b600080fd5b610191600480360381019061018c9190613038565b610524565b6040516101a79a9998979695949392919061318e565b60405180910390f35b6101ca60048036038101906101c5919061323f565b61075a565b6040516101d7919061332a565b60405180910390f35b6101fa60048036038101906101f5919061323f565b6107fe565b005b61021660048036038101906102119190613522565b610bcd565b005b610232600480360381019061022d919061323f565b610f6c565b604051610247999897969594939291906136a3565b60405180910390f35b61026a60048036038101906102659190613806565b611103565b005b610274611428565b005b610290600480360381019061028b91906138e7565b61143c565b60405161029d9190613927565b60405180910390f35b6102c060048036038101906102bb9190613942565b61149a565b6040516102d094939291906139b7565b60405180910390f35b6102e161157f565b6040516102ee9190613a03565b60405180910390f35b610311600480360381019061030c919061323f565b6115a8565b60405161032699989796959493929190613a1e565b60405180910390f35b610349600480360381019061034491906138e7565b611713565b6040516103569190613927565b60405180910390f35b610367611738565b6040516103749190613b18565b60405180910390f35b6103976004803603810190610392919061323f565b61175e565b6040516103a4919061332a565b60405180910390f35b6103b5611802565b6040516103c29190613927565b60405180910390f35b6103e560048036038101906103e0919061323f565b611808565b005b61040160048036038101906103fc919061323f565b611ab1565b005b61041d60048036038101906104189190613b33565b611c3b565b005b61043960048036038101906104349190613bab565b611fe6565b005b61045560048036038101906104509190613038565b61252b565b60405161046796959493929190613bfe565b60405180910390f35b61048a6004803603810190610485919061323f565b612834565b6040516104979190613a03565b60405180910390f35b6104ba60048036038101906104b59190613c66565b612873565b6040516104c79190613cc8565b60405180910390f35b6104ea60048036038101906104e59190613d08565b6128af565b005b61050660048036038101906105019190613d48565b612a44565b005b610522600480360381019061051d9190613942565b612d6b565b005b6007602052826000526040600020602052816000526040600020818154811061054c57600080fd5b90600052602060002090600a020160009250925050508060000154908060010160009054906101000a900473ffffffffffffffffffffffffffffffffffffffff16908060020154908060030154908060040154908060050154908060060154908060070180546105bb90613dd3565b80601f01602080910402602001604051908101604052809291908181526020018280546105e790613dd3565b80156106345780601f1061060957610100808354040283529160200191610634565b820191906000526020600020905b81548152906001019060200180831161061757829003601f168201915b50505050509080600801805461064990613dd3565b80601f016020809104026020016040519081016040528092919081815260200182805461067590613dd3565b80156106c25780601f10610697576101008083540402835291602001916106c2565b820191906000526020600020905b8154815290600101906020018083116106a557829003601f168201915b5050505050908060090180546106d790613dd3565b80601f016020809104026020016040519081016040528092919081815260200182805461070390613dd3565b80156107505780601f1061072557610100808354040283529160200191610750565b820191906000526020600020905b81548152906001019060200180831161073357829003601f168201915b505050505090508a565b6060600460008381526020019081526020016000206007018054806020026020016040519081016040528092919081815260200182805480156107f257602002820191906000526020600020905b8160009054906101000a900473ffffffffffffffffffffffffffffffffffffffff1673ffffffffffffffffffffffffffffffffffffffff16815260200190600101908083116107a8575b50505050509050919050565b610806612dee565b6000600460008381526020019081526020016000209050600260038111156108315761083061362c565b5b81600b0160009054906101000a900460ff1660038111156108555761085461362c565b5b14610895576040517f08c379a000000000000000000000000000000000000000000000000000000000815260040161088c90613e50565b60405180910390fd5b8060090160003373ffffffffffffffffffffffffffffffffffffffff1673ffffffffffffffffffffffffffffffffffffffff16815260200190815260200160002060009054906101000a900460ff16610923576040517f08c379a000000000000000000000000000000000000000000000000000000000815260040161091a90613ebc565b60405180910390fd5b60008160080160003373ffffffffffffffffffffffffffffffffffffffff1673ffffffffffffffffffffffffffffffffffffffff16815260200190815260200160002054116109a7576040517f08c379a000000000000000000000000000000000000000000000000000000000815260040161099e90613f28565b60405180910390fd5b60008160080160003373ffffffffffffffffffffffffffffffffffffffff1673ffffffffffffffffffffffffffffffffffffffff1681526020019081526020016000205490506000819050826007018054905083600c01541015610a4a576000836006015490508284600c0154610a1e9190613f77565b81610a299190613fb9565b905083600c015481610a3b919061401c565b82610a46919061404d565b9150505b60008360080160003373ffffffffffffffffffffffffffffffffffffffff1673ffffffffffffffffffffffffffffffffffffffff16815260200190815260200160002081905550600260009054906101000a900473ffffffffffffffffffffffffffffffffffffffff1673ffffffffffffffffffffffffffffffffffffffff1663a9059cbb33836040518363ffffffff1660e01b8152600401610aee929190614081565b6020604051808303816000875af1158015610b0d573d6000803e3d6000fd5b505050506040513d601f19601f82011682018060405250810190610b3191906140bf565b610b70576040517f08c379a0000000000000000000000000000000000000000000000000000000008152600401610b6790614138565b60405180910390fd5b3373ffffffffffffffffffffffffffffffffffffffff16847f3300bdb359cfb956935bca32e9db727413eab1ca84341f2e36caea85bb79696883604051610bb79190613927565b60405180910390a3505050610bca612e3d565b50565b6000600460008a8152602001908152602001600020905060006003811115610bf857610bf761362c565b5b81600b0160009054906101000a900460ff166003811115610c1c57610c1b61362c565b5b14610c5c576040517f08c379a0000000000000000000000000000000000000000000000000000000008152600401610c53906141a4565b60405180910390fd5b8060030154421015610ca3576040517f08c379a0000000000000000000000000000000000000000000000000000000008152600401610c9a90614210565b60405180910390fd5b8060040154421115610cea576040517f08c379a0000000000000000000000000000000000000000000000000000000008152600401610ce19061427c565b60405180910390fd5b60008160080160003373ffffffffffffffffffffffffffffffffffffffff1673ffffffffffffffffffffffffffffffffffffffff1681526020019081526020016000205411610d6e576040517f08c379a0000000000000000000000000000000000000000000000000000000008152600401610d65906142e8565b60405180910390fd5b60006040518061014001604052808b81526020013373ffffffffffffffffffffffffffffffffffffffff1681526020014281526020018a8152602001898152602001888152602001878152602001868152602001858152602001848152509050600760008b815260200190815260200160002060003373ffffffffffffffffffffffffffffffffffffffff1673ffffffffffffffffffffffffffffffffffffffff1681526020019081526020016000208190806001815401808255809150506001900390600052602060002090600a02016000909190919091506000820151816000015560208201518160010160006101000a81548173ffffffffffffffffffffffffffffffffffffffff021916908373ffffffffffffffffffffffffffffffffffffffff16021790555060408201518160020155606082015181600301556080820151816004015560a0820151816005015560c0820151816006015560e0820151816007019081610ee091906144aa565b50610100820151816008019081610ef791906144aa565b50610120820151816009019081610f0e91906145d7565b5050503373ffffffffffffffffffffffffffffffffffffffff168a7f29e3699f1e8702a3512f4439dd8ee790d8f15583c9e47c96cd2888301da012ac42604051610f589190613927565b60405180910390a350505050505050505050565b606080600080600080600080600080600460008c815260200190815260200160002090508060010181600201826003015483600401548460050154856006015486600b0160009054906101000a900460ff16876007018054905088600c0154888054610fd790613dd3565b80601f016020809104026020016040519081016040528092919081815260200182805461100390613dd3565b80156110505780601f1061102557610100808354040283529160200191611050565b820191906000526020600020905b81548152906001019060200180831161103357829003601f168201915b5050505050985087805461106390613dd3565b80601f016020809104026020016040519081016040528092919081815260200182805461108f90613dd3565b80156110dc5780601f106110b1576101008083540402835291602001916110dc565b820191906000526020600020905b8154815290600101906020018083116110bf57829003601f168201915b50505050509750995099509950995099509950995099509950509193959799909294969850565b61110b612e46565b42841161114d576040517f08c379a0000000000000000000000000000000000000000000000000000000008152600401611144906146f5565b60405180910390fd5b83831161118f576040517f08c379a000000000000000000000000000000000000000000000000000000000815260040161118690614787565b60405180910390fd5b600082116111d2576040517f08c379a00000000000000000000000000000000000000000000000000000000081526004016111c990614819565b60405180910390fd5b6000600360008154809291906111e790614839565b91905055905060006004600083815260200190815260200160002090508181600001819055508781600101908161121e91906144aa565b508681600201908161123091906144aa565b50858160030181905550848160040181905550838160050181905550600081600b0160006101000a81548160ff021916908360038111156112745761127361362c565b5b021790555060005b83518110156113e157600160028111156112995761129861362c565b5b600560008684815181106112b0576112af614881565b5b602002602001015173ffffffffffffffffffffffffffffffffffffffff1673ffffffffffffffffffffffffffffffffffffffff16815260200190815260200160002060030160009054906101000a900460ff1660028111156113155761131461362c565b5b14611355576040517f08c379a000000000000000000000000000000000000000000000000000000000815260040161134c906148fc565b60405180910390fd5b81600a0184828151811061136c5761136b614881565b5b60200260200101519080600181540180825580915050600190039060005260206000200160009091909190916101000a81548173ffffffffffffffffffffffffffffffffffffffff021916908373ffffffffffffffffffffffffffffffffffffffff160217905550808060010191505061127c565b50817f5ada7bcb61317fcef34c60f3ed6612f30405f948126c579af585b4608de59bbe8988886040516114169392919061491c565b60405180910390a25050505050505050565b611430612e46565b61143a6000612ec4565b565b60006007600084815260200190815260200160002060008373ffffffffffffffffffffffffffffffffffffffff1673ffffffffffffffffffffffffffffffffffffffff16815260200190815260200160002080549050905092915050565b60056020528060005260406000206000915090508060000160009054906101000a900473ffffffffffffffffffffffffffffffffffffffff16908060010180546114e390613dd3565b80601f016020809104026020016040519081016040528092919081815260200182805461150f90613dd3565b801561155c5780601f106115315761010080835404028352916020019161155c565b820191906000526020600020905b81548152906001019060200180831161153f57829003601f168201915b5050505050908060020154908060030160009054906101000a900460ff16905084565b60008060009054906101000a900473ffffffffffffffffffffffffffffffffffffffff16905090565b60046020528060005260406000206000915090508060000154908060010180546115d190613dd3565b80601f01602080910402602001604051908101604052809291908181526020018280546115fd90613dd3565b801561164a5780601f1061161f5761010080835404028352916020019161164a565b820191906000526020600020905b81548152906001019060200180831161162d57829003601f168201915b50505050509080600201805461165f90613dd3565b80601f016020809104026020016040519081016040528092919081815260200182805461168b90613dd3565b80156116d85780601f106116ad576101008083540402835291602001916116d8565b820191906000526020600020905b8154815290600101906020018083116116bb57829003601f168201915b50505050509080600301549080600401549080600501549080600601549080600b0160009054906101000a900460ff169080600c0154905089565b6009602052816000526040600020602052806000526040600020600091509150505481565b600260009054906101000a900473ffffffffffffffffffffffffffffffffffffffff1681565b606060046000838152602001908152602001600020600a018054806020026020016040519081016040528092919081815260200182805480156117f657602002820191906000526020600020905b8160009054906101000a900473ffffffffffffffffffffffffffffffffffffffff1673ffffffffffffffffffffffffffffffffffffffff16815260200190600101908083116117ac575b50505050509050919050565b60035481565b611810612e46565b60006004600083815260200190815260200160002090506002600381111561183b5761183a61362c565b5b81600b0160009054906101000a900460ff16600381111561185f5761185e61362c565b5b141580156118a2575060038081111561187b5761187a61362c565b5b81600b0160009054906101000a900460ff16600381111561189f5761189e61362c565b5b14155b6118e1576040517f08c379a00000000000000000000000000000000000000000000000000000000081526004016118d8906149cc565b60405180910390fd5b600381600b0160006101000a81548160ff021916908360038111156119095761190861362c565b5b021790555060005b8160070180549050811015611aac57600082600701828154811061193857611937614881565b5b9060005260206000200160009054906101000a900473ffffffffffffffffffffffffffffffffffffffff16905060008360080160008373ffffffffffffffffffffffffffffffffffffffff1673ffffffffffffffffffffffffffffffffffffffff1681526020019081526020016000205490506000811115611a9d5760008460080160008473ffffffffffffffffffffffffffffffffffffffff1673ffffffffffffffffffffffffffffffffffffffff16815260200190815260200160002081905550600260009054906101000a900473ffffffffffffffffffffffffffffffffffffffff1673ffffffffffffffffffffffffffffffffffffffff1663a9059cbb83836040518363ffffffff1660e01b8152600401611a58929190614081565b6020604051808303816000875af1158015611a77573d6000803e3d6000fd5b505050506040513d601f19601f82011682018060405250810190611a9b91906140bf565b505b50508080600101915050611911565b505050565b611ab9612e46565b600060046000838152602001908152602001600020905060006003811115611ae457611ae361362c565b5b81600b0160009054906101000a900460ff166003811115611b0857611b0761362c565b5b1480611b49575060016003811115611b2357611b2261362c565b5b81600b0160009054906101000a900460ff166003811115611b4757611b4661362c565b5b145b611b88576040517f08c379a0000000000000000000000000000000000000000000000000000000008152600401611b7f90614a38565b60405180910390fd5b80600401544211611bce576040517f08c379a0000000000000000000000000000000000000000000000000000000008152600401611bc590614aa4565b60405180910390fd5b600281600b0160006101000a81548160ff02191690836003811115611bf657611bf561362c565b5b0217905550817f935f507847532aab1e4c5aaa641829c1b2dbf7333bfe24d3d11a358feec84c978260060154604051611c2f9190613927565b60405180910390a25050565b611c43612dee565b600060046000848152602001908152602001600020905060006003811115611c6e57611c6d61362c565b5b81600b0160009054906101000a900460ff166003811115611c9257611c9161362c565b5b14611cd2576040517f08c379a0000000000000000000000000000000000000000000000000000000008152600401611cc9906141a4565b60405180910390fd5b80600401544210611d18576040517f08c379a0000000000000000000000000000000000000000000000000000000008152600401611d0f9061427c565b60405180910390fd5b8060050154821015611d5f576040517f08c379a0000000000000000000000000000000000000000000000000000000008152600401611d5690614b10565b60405180910390fd5b60008160080160003373ffffffffffffffffffffffffffffffffffffffff1673ffffffffffffffffffffffffffffffffffffffff1681526020019081526020016000205414611de3576040517f08c379a0000000000000000000000000000000000000000000000000000000008152600401611dda90614b7c565b60405180910390fd5b600260009054906101000a900473ffffffffffffffffffffffffffffffffffffffff1673ffffffffffffffffffffffffffffffffffffffff166323b872dd3330856040518463ffffffff1660e01b8152600401611e4293929190614b9c565b6020604051808303816000875af1158015611e61573d6000803e3d6000fd5b505050506040513d601f19601f82011682018060405250810190611e8591906140bf565b611ec4576040517f08c379a0000000000000000000000000000000000000000000000000000000008152600401611ebb90614138565b60405180910390fd5b80600701339080600181540180825580915050600190039060005260206000200160009091909190916101000a81548173ffffffffffffffffffffffffffffffffffffffff021916908373ffffffffffffffffffffffffffffffffffffffff160217905550818160080160003373ffffffffffffffffffffffffffffffffffffffff1673ffffffffffffffffffffffffffffffffffffffff1681526020019081526020016000208190555081816006016000828254611f83919061404d565b925050819055503373ffffffffffffffffffffffffffffffffffffffff16837f44c4b6abb371768de3a7756bdb12fd74800a75207fae3d12f5bcd7a7bc4fcee984604051611fd19190613927565b60405180910390a350611fe2612e3d565b5050565b60006004600085815260200190815260200160002090506000805b82600a0180549050811015612099573373ffffffffffffffffffffffffffffffffffffffff1683600a01828154811061203d5761203c614881565b5b9060005260206000200160009054906101000a900473ffffffffffffffffffffffffffffffffffffffff1673ffffffffffffffffffffffffffffffffffffffff160361208c5760019150612099565b8080600101915050612001565b50806120da576040517f08c379a00000000000000000000000000000000000000000000000000000000081526004016120d190614c1f565b60405180910390fd5b600160028111156120ee576120ed61362c565b5b600560003373ffffffffffffffffffffffffffffffffffffffff1673ffffffffffffffffffffffffffffffffffffffff16815260200190815260200160002060030160009054906101000a900460ff1660028111156121505761214f61362c565b5b14612190576040517f08c379a000000000000000000000000000000000000000000000000000000000815260040161218790614c8b565b60405180910390fd5b600060038111156121a4576121a361362c565b5b82600b0160009054906101000a900460ff1660038111156121c8576121c761362c565b5b14806122095750600160038111156121e3576121e261362c565b5b82600b0160009054906101000a900460ff1660038111156122075761220661362c565b5b145b612248576040517f08c379a000000000000000000000000000000000000000000000000000000000815260040161223f90614cf7565b60405180910390fd5b60008260080160008673ffffffffffffffffffffffffffffffffffffffff1673ffffffffffffffffffffffffffffffffffffffff16815260200190815260200160002054116122cc576040517f08c379a00000000000000000000000000000000000000000000000000000000081526004016122c3906142e8565b60405180910390fd5b826008600087815260200190815260200160002060008673ffffffffffffffffffffffffffffffffffffffff1673ffffffffffffffffffffffffffffffffffffffff16815260200190815260200160002060003373ffffffffffffffffffffffffffffffffffffffff1673ffffffffffffffffffffffffffffffffffffffff16815260200190815260200160002060006101000a81548160ff02191690831515021790555082156124be576009600086815260200190815260200160002060008573ffffffffffffffffffffffffffffffffffffffff1673ffffffffffffffffffffffffffffffffffffffff16815260200190815260200160002060008154809291906123d890614839565b9190505550600282600a01805490506123f1919061401c565b6009600087815260200190815260200160002060008673ffffffffffffffffffffffffffffffffffffffff1673ffffffffffffffffffffffffffffffffffffffff1681526020019081526020016000205411156124bd5760018260090160008673ffffffffffffffffffffffffffffffffffffffff1673ffffffffffffffffffffffffffffffffffffffff16815260200190815260200160002060006101000a81548160ff02191690831515021790555081600c0160008154809291906124b790614839565b91905055505b5b3373ffffffffffffffffffffffffffffffffffffffff168473ffffffffffffffffffffffffffffffffffffffff16867ff6d53a744b012e56d1a71f1abfce34b71f019e99d266f9d1eb3ef6ee4b07daa98660405161251c9190613cc8565b60405180910390a45050505050565b600080600080600060606000600760008b815260200190815260200160002060008a73ffffffffffffffffffffffffffffffffffffffff1673ffffffffffffffffffffffffffffffffffffffff168152602001908152602001600020888154811061259957612598614881565b5b90600052602060002090600a020160405180610140016040529081600082015481526020016001820160009054906101000a900473ffffffffffffffffffffffffffffffffffffffff1673ffffffffffffffffffffffffffffffffffffffff1673ffffffffffffffffffffffffffffffffffffffff168152602001600282015481526020016003820154815260200160048201548152602001600582015481526020016006820154815260200160078201805461265590613dd3565b80601f016020809104026020016040519081016040528092919081815260200182805461268190613dd3565b80156126ce5780601f106126a3576101008083540402835291602001916126ce565b820191906000526020600020905b8154815290600101906020018083116126b157829003601f168201915b505050505081526020016008820180546126e790613dd3565b80601f016020809104026020016040519081016040528092919081815260200182805461271390613dd3565b80156127605780601f1061273557610100808354040283529160200191612760565b820191906000526020600020905b81548152906001019060200180831161274357829003601f168201915b5050505050815260200160098201805461277990613dd3565b80601f01602080910402602001604051908101604052809291908181526020018280546127a590613dd3565b80156127f25780601f106127c7576101008083540402835291602001916127f2565b820191906000526020600020905b8154815290600101906020018083116127d557829003601f168201915b50505050508152505090508060400151816060015182608001518360a001518460c001518560e001519650965096509650965096505093975093979195509350565b6006818154811061284457600080fd5b906000526020600020016000915054906101000a900473ffffffffffffffffffffffffffffffffffffffff1681565b6008602052826000526040600020602052816000526040600020602052806000526040600020600092509250509054906101000a900460ff1681565b6128b7612e46565b600073ffffffffffffffffffffffffffffffffffffffff16600560008473ffffffffffffffffffffffffffffffffffffffff1673ffffffffffffffffffffffffffffffffffffffff16815260200190815260200160002060000160009054906101000a900473ffffffffffffffffffffffffffffffffffffffff1673ffffffffffffffffffffffffffffffffffffffff1603612988576040517f08c379a000000000000000000000000000000000000000000000000000000000815260040161297f90614d63565b60405180910390fd5b80600560008473ffffffffffffffffffffffffffffffffffffffff1673ffffffffffffffffffffffffffffffffffffffff16815260200190815260200160002060030160006101000a81548160ff021916908360028111156129ed576129ec61362c565b5b02179055508173ffffffffffffffffffffffffffffffffffffffff167f13f230fb0671145c06a2815c6ade485308c7924ec193dface37384148a36af7f82604051612a389190614d83565b60405180910390a25050565b612a4c612e46565b600073ffffffffffffffffffffffffffffffffffffffff168273ffffffffffffffffffffffffffffffffffffffff1603612abb576040517f08c379a0000000000000000000000000000000000000000000000000000000008152600401612ab290614dea565b60405180910390fd5b600073ffffffffffffffffffffffffffffffffffffffff16600560008473ffffffffffffffffffffffffffffffffffffffff1673ffffffffffffffffffffffffffffffffffffffff16815260200190815260200160002060000160009054906101000a900473ffffffffffffffffffffffffffffffffffffffff1673ffffffffffffffffffffffffffffffffffffffff1614612b8c576040517f08c379a0000000000000000000000000000000000000000000000000000000008152600401612b8390614e56565b60405180910390fd5b600060405180608001604052808473ffffffffffffffffffffffffffffffffffffffff1681526020018381526020016064815260200160016002811115612bd657612bd561362c565b5b815250905080600560008573ffffffffffffffffffffffffffffffffffffffff1673ffffffffffffffffffffffffffffffffffffffff16815260200190815260200160002060008201518160000160006101000a81548173ffffffffffffffffffffffffffffffffffffffff021916908373ffffffffffffffffffffffffffffffffffffffff1602179055506020820151816001019081612c7791906144aa565b506040820151816002015560608201518160030160006101000a81548160ff02191690836002811115612cad57612cac61362c565b5b02179055509050506006839080600181540180825580915050600190039060005260206000200160009091909190916101000a81548173ffffffffffffffffffffffffffffffffffffffff021916908373ffffffffffffffffffffffffffffffffffffffff1602179055508273ffffffffffffffffffffffffffffffffffffffff167f2ebc0713155154f285863392d371d359a16a35da1e02e9cc3a241a78eb6ae24a83604051612d5e9190614e76565b60405180910390a2505050565b612d73612e46565b600073ffffffffffffffffffffffffffffffffffffffff168173ffffffffffffffffffffffffffffffffffffffff1603612de2576040517f08c379a0000000000000000000000000000000000000000000000000000000008152600401612dd990614f0a565b60405180910390fd5b612deb81612ec4565b50565b600260015403612e33576040517f08c379a0000000000000000000000000000000000000000000000000000000008152600401612e2a90614f76565b60405180910390fd5b6002600181905550565b60018081905550565b612e4e612f88565b73ffffffffffffffffffffffffffffffffffffffff16612e6c61157f565b73ffffffffffffffffffffffffffffffffffffffff1614612ec2576040517f08c379a0000000000000000000000000000000000000000000000000000000008152600401612eb990614fe2565b60405180910390fd5b565b60008060009054906101000a900473ffffffffffffffffffffffffffffffffffffffff169050816000806101000a81548173ffffffffffffffffffffffffffffffffffffffff021916908373ffffffffffffffffffffffffffffffffffffffff1602179055508173ffffffffffffffffffffffffffffffffffffffff168173ffffffffffffffffffffffffffffffffffffffff167f8be0079c531659141344cd1fd0a4f28419497f9722a3daafe3b4186f6b6457e060405160405180910390a35050565b600033905090565b6000604051905090565b600080fd5b600080fd5b6000819050919050565b612fb781612fa4565b8114612fc257600080fd5b50565b600081359050612fd481612fae565b92915050565b600073ffffffffffffffffffffffffffffffffffffffff82169050919050565b600061300582612fda565b9050919050565b61301581612ffa565b811461302057600080fd5b50565b6000813590506130328161300c565b92915050565b60008060006060848603121561305157613050612f9a565b5b600061305f86828701612fc5565b935050602061307086828701613023565b925050604061308186828701612fc5565b9150509250925092565b61309481612fa4565b82525050565b6130a381612ffa565b82525050565b600081519050919050565b600082825260208201905092915050565b60005b838110156130e35780820151818401526020810190506130c8565b60008484015250505050565b6000601f19601f8301169050919050565b600061310b826130a9565b61311581856130b4565b93506131258185602086016130c5565b61312e816130ef565b840191505092915050565b600081519050919050565b600082825260208201905092915050565b600061316082613139565b61316a8185613144565b935061317a8185602086016130c5565b613183816130ef565b840191505092915050565b6000610140820190506131a4600083018d61308b565b6131b1602083018c61309a565b6131be604083018b61308b565b6131cb606083018a61308b565b6131d8608083018961308b565b6131e560a083018861308b565b6131f260c083018761308b565b81810360e08301526132048186613100565b90508181036101008301526132198185613100565b905081810361012083015261322e8184613155565b90509b9a5050505050505050505050565b60006020828403121561325557613254612f9a565b5b600061326384828501612fc5565b91505092915050565b600081519050919050565b600082825260208201905092915050565b6000819050602082019050919050565b6132a181612ffa565b82525050565b60006132b38383613298565b60208301905092915050565b6000602082019050919050565b60006132d78261326c565b6132e18185613277565b93506132ec83613288565b8060005b8381101561331d57815161330488826132a7565b975061330f836132bf565b9250506001810190506132f0565b5085935050505092915050565b6000602082019050818103600083015261334481846132cc565b905092915050565b600080fd5b600080fd5b7f4e487b7100000000000000000000000000000000000000000000000000000000600052604160045260246000fd5b61338e826130ef565b810181811067ffffffffffffffff821117156133ad576133ac613356565b5b80604052505050565b60006133c0612f90565b90506133cc8282613385565b919050565b600067ffffffffffffffff8211156133ec576133eb613356565b5b6133f5826130ef565b9050602081019050919050565b82818337600083830152505050565b600061342461341f846133d1565b6133b6565b9050828152602081018484840111156134405761343f613351565b5b61344b848285613402565b509392505050565b600082601f8301126134685761346761334c565b5b8135613478848260208601613411565b91505092915050565b600067ffffffffffffffff82111561349c5761349b613356565b5b6134a5826130ef565b9050602081019050919050565b60006134c56134c084613481565b6133b6565b9050828152602081018484840111156134e1576134e0613351565b5b6134ec848285613402565b509392505050565b600082601f8301126135095761350861334c565b5b81356135198482602086016134b2565b91505092915050565b600080600080600080600080610100898b03121561354357613542612f9a565b5b60006135518b828c01612fc5565b98505060206135628b828c01612fc5565b97505060406135738b828c01612fc5565b96505060606135848b828c01612fc5565b95505060806135958b828c01612fc5565b94505060a089013567ffffffffffffffff8111156135b6576135b5612f9f565b5b6135c28b828c01613453565b93505060c089013567ffffffffffffffff8111156135e3576135e2612f9f565b5b6135ef8b828c01613453565b92505060e089013567ffffffffffffffff8111156136105761360f612f9f565b5b61361c8b828c016134f4565b9150509295985092959890939650565b7f4e487b7100000000000000000000000000000000000000000000000000000000600052602160045260246000fd5b6004811061366c5761366b61362c565b5b50565b600081905061367d8261365b565b919050565b600061368d8261366f565b9050919050565b61369d81613682565b82525050565b60006101208201905081810360008301526136be818c613100565b905081810360208301526136d2818b613100565b90506136e1604083018a61308b565b6136ee606083018961308b565b6136fb608083018861308b565b61370860a083018761308b565b61371560c0830186613694565b61372260e083018561308b565b61373061010083018461308b565b9a9950505050505050505050565b600067ffffffffffffffff82111561375957613758613356565b5b602082029050602081019050919050565b600080fd5b600061378261377d8461373e565b6133b6565b905080838252602082019050602084028301858111156137a5576137a461376a565b5b835b818110156137ce57806137ba8882613023565b8452602084019350506020810190506137a7565b5050509392505050565b600082601f8301126137ed576137ec61334c565b5b81356137fd84826020860161376f565b91505092915050565b60008060008060008060c0878903121561382357613822612f9a565b5b600087013567ffffffffffffffff81111561384157613840612f9f565b5b61384d89828a01613453565b965050602087013567ffffffffffffffff81111561386e5761386d612f9f565b5b61387a89828a01613453565b955050604061388b89828a01612fc5565b945050606061389c89828a01612fc5565b93505060806138ad89828a01612fc5565b92505060a087013567ffffffffffffffff8111156138ce576138cd612f9f565b5b6138da89828a016137d8565b9150509295509295509295565b600080604083850312156138fe576138fd612f9a565b5b600061390c85828601612fc5565b925050602061391d85828601613023565b9150509250929050565b600060208201905061393c600083018461308b565b92915050565b60006020828403121561395857613957612f9a565b5b600061396684828501613023565b91505092915050565b600381106139805761397f61362c565b5b50565b60008190506139918261396f565b919050565b60006139a182613983565b9050919050565b6139b181613996565b82525050565b60006080820190506139cc600083018761309a565b81810360208301526139de8186613100565b90506139ed604083018561308b565b6139fa60608301846139a8565b95945050505050565b6000602082019050613a18600083018461309a565b92915050565b600061012082019050613a34600083018c61308b565b8181036020830152613a46818b613100565b90508181036040830152613a5a818a613100565b9050613a69606083018961308b565b613a76608083018861308b565b613a8360a083018761308b565b613a9060c083018661308b565b613a9d60e0830185613694565b613aab61010083018461308b565b9a9950505050505050505050565b6000819050919050565b6000613ade613ad9613ad484612fda565b613ab9565b612fda565b9050919050565b6000613af082613ac3565b9050919050565b6000613b0282613ae5565b9050919050565b613b1281613af7565b82525050565b6000602082019050613b2d6000830184613b09565b92915050565b60008060408385031215613b4a57613b49612f9a565b5b6000613b5885828601612fc5565b9250506020613b6985828601612fc5565b9150509250929050565b60008115159050919050565b613b8881613b73565b8114613b9357600080fd5b50565b600081359050613ba581613b7f565b92915050565b600080600060608486031215613bc457613bc3612f9a565b5b6000613bd286828701612fc5565b9350506020613be386828701613023565b9250506040613bf486828701613b96565b9150509250925092565b600060c082019050613c13600083018961308b565b613c20602083018861308b565b613c2d604083018761308b565b613c3a606083018661308b565b613c47608083018561308b565b81810360a0830152613c598184613100565b9050979650505050505050565b600080600060608486031215613c7f57613c7e612f9a565b5b6000613c8d86828701612fc5565b9350506020613c9e86828701613023565b9250506040613caf86828701613023565b9150509250925092565b613cc281613b73565b82525050565b6000602082019050613cdd6000830184613cb9565b92915050565b60038110613cf057600080fd5b50565b600081359050613d0281613ce3565b92915050565b60008060408385031215613d1f57613d1e612f9a565b5b6000613d2d85828601613023565b9250506020613d3e85828601613cf3565b9150509250929050565b60008060408385031215613d5f57613d5e612f9a565b5b6000613d6d85828601613023565b925050602083013567ffffffffffffffff811115613d8e57613d8d612f9f565b5b613d9a85828601613453565b9150509250929050565b7f4e487b7100000000000000000000000000000000000000000000000000000000600052602260045260246000fd5b60006002820490506001821680613deb57607f821691505b602082108103613dfe57613dfd613da4565b5b50919050565b7f4368616c6c656e6765206e6f7420636f6d706c65746564000000000000000000600082015250565b6000613e3a6017836130b4565b9150613e4582613e04565b602082019050919050565b60006020820190508181036000830152613e6981613e2d565b9050919050565b7f446964206e6f7420636f6d706c657465206368616c6c656e6765000000000000600082015250565b6000613ea6601a836130b4565b9150613eb182613e70565b602082019050919050565b60006020820190508181036000830152613ed581613e99565b9050919050565b7f4e6f207374616b6520666f756e64000000000000000000000000000000000000600082015250565b6000613f12600e836130b4565b9150613f1d82613edc565b602082019050919050565b60006020820190508181036000830152613f4181613f05565b9050919050565b7f4e487b7100000000000000000000000000000000000000000000000000000000600052601160045260246000fd5b6000613f8282612fa4565b9150613f8d83612fa4565b9250828202613f9b81612fa4565b91508282048414831517613fb257613fb1613f48565b5b5092915050565b6000613fc482612fa4565b9150613fcf83612fa4565b9250828203905081811115613fe757613fe6613f48565b5b92915050565b7f4e487b7100000000000000000000000000000000000000000000000000000000600052601260045260246000fd5b600061402782612fa4565b915061403283612fa4565b92508261404257614041613fed565b5b828204905092915050565b600061405882612fa4565b915061406383612fa4565b925082820190508082111561407b5761407a613f48565b5b92915050565b6000604082019050614096600083018561309a565b6140a3602083018461308b565b9392505050565b6000815190506140b981613b7f565b92915050565b6000602082840312156140d5576140d4612f9a565b5b60006140e3848285016140aa565b91505092915050565b7f546f6b656e207472616e73666572206661696c65640000000000000000000000600082015250565b60006141226015836130b4565b915061412d826140ec565b602082019050919050565b6000602082019050818103600083015261415181614115565b9050919050565b7f4368616c6c656e6765206973206e6f7420616374697665000000000000000000600082015250565b600061418e6017836130b4565b915061419982614158565b602082019050919050565b600060208201905081810360008301526141bd81614181565b9050919050565b7f4368616c6c656e676520686173206e6f74207374617274656400000000000000600082015250565b60006141fa6019836130b4565b9150614205826141c4565b602082019050919050565b60006020820190508181036000830152614229816141ed565b9050919050565b7f4368616c6c656e67652068617320656e64656400000000000000000000000000600082015250565b60006142666013836130b4565b915061427182614230565b602082019050919050565b6000602082019050818103600083015261429581614259565b9050919050565b7f4e6f742061207061727469636970616e74000000000000000000000000000000600082015250565b60006142d26011836130b4565b91506142dd8261429c565b602082019050919050565b60006020820190508181036000830152614301816142c5565b9050919050565b60008190508160005260206000209050919050565b60006020601f8301049050919050565b600082821b905092915050565b60006008830261436a7fffffffffffffffffffffffffffffffffffffffffffffffffffffffffffffffff8261432d565b614374868361432d565b95508019841693508086168417925050509392505050565b60006143a76143a261439d84612fa4565b613ab9565b612fa4565b9050919050565b6000819050919050565b6143c18361438c565b6143d56143cd826143ae565b84845461433a565b825550505050565b600090565b6143ea6143dd565b6143f58184846143b8565b505050565b5b818110156144195761440e6000826143e2565b6001810190506143fb565b5050565b601f82111561445e5761442f81614308565b6144388461431d565b81016020851015614447578190505b61445b6144538561431d565b8301826143fa565b50505b505050565b600082821c905092915050565b600061448160001984600802614463565b1980831691505092915050565b600061449a8383614470565b9150826002028217905092915050565b6144b3826130a9565b67ffffffffffffffff8111156144cc576144cb613356565b5b6144d68254613dd3565b6144e182828561441d565b600060209050601f8311600181146145145760008415614502578287015190505b61450c858261448e565b865550614574565b601f19841661452286614308565b60005b8281101561454a57848901518255600182019150602085019450602081019050614525565b868310156145675784890151614563601f891682614470565b8355505b6001600288020188555050505b505050505050565b60008190508160005260206000209050919050565b601f8211156145d2576145a38161457c565b6145ac8461431d565b810160208510156145bb578190505b6145cf6145c78561431d565b8301826143fa565b50505b505050565b6145e082613139565b67ffffffffffffffff8111156145f9576145f8613356565b5b6146038254613dd3565b61460e828285614591565b600060209050601f831160018114614641576000841561462f578287015190505b614639858261448e565b8655506146a1565b601f19841661464f8661457c565b60005b8281101561467757848901518255600182019150602085019450602081019050614652565b868310156146945784890151614690601f891682614470565b8355505b6001600288020188555050505b505050505050565b7f53746172742064617465206d75737420626520696e2074686520667574757265600082015250565b60006146df6020836130b4565b91506146ea826146a9565b602082019050919050565b6000602082019050818103600083015261470e816146d2565b9050919050565b7f456e642064617465206d7573742062652061667465722073746172742064617460008201527f6500000000000000000000000000000000000000000000000000000000000000602082015250565b60006147716021836130b4565b915061477c82614715565b604082019050919050565b600060208201905081810360008301526147a081614764565b9050919050565b7f4d696e696d756d207374616b65206d757374206265206772656174657220746860008201527f616e203000000000000000000000000000000000000000000000000000000000602082015250565b60006148036024836130b4565b915061480e826147a7565b604082019050919050565b60006020820190508181036000830152614832816147f6565b9050919050565b600061484482612fa4565b91507fffffffffffffffffffffffffffffffffffffffffffffffffffffffffffffffff820361487657614875613f48565b5b600182019050919050565b7f4e487b7100000000000000000000000000000000000000000000000000000000600052603260045260246000fd5b7f496e76616c6964206a7564676500000000000000000000000000000000000000600082015250565b60006148e6600d836130b4565b91506148f1826148b0565b602082019050919050565b60006020820190508181036000830152614915816148d9565b9050919050565b600060608201905081810360008301526149368186613100565b9050614945602083018561308b565b614952604083018461308b565b949350505050565b7f4368616c6c656e676520616c726561647920636f6d706c65746564206f72206360008201527f616e63656c6c6564000000000000000000000000000000000000000000000000602082015250565b60006149b66028836130b4565b91506149c18261495a565b604082019050919050565b600060208201905081810360008301526149e5816149a9565b9050919050565b7f4368616c6c656e67652063616e6e6f7420626520636f6d706c65746564000000600082015250565b6000614a22601d836130b4565b9150614a2d826149ec565b602082019050919050565b60006020820190508181036000830152614a5181614a15565b9050919050565b7f4368616c6c656e676520686173206e6f7420656e646564000000000000000000600082015250565b6000614a8e6017836130b4565b9150614a9982614a58565b602082019050919050565b60006020820190508181036000830152614abd81614a81565b9050919050565b7f5374616b6520616d6f756e7420746f6f206c6f77000000000000000000000000600082015250565b6000614afa6014836130b4565b9150614b0582614ac4565b602082019050919050565b60006020820190508181036000830152614b2981614aed565b9050919050565b7f416c7265616479206a6f696e6564000000000000000000000000000000000000600082015250565b6000614b66600e836130b4565b9150614b7182614b30565b602082019050919050565b60006020820190508181036000830152614b9581614b59565b9050919050565b6000606082019050614bb1600083018661309a565b614bbe602083018561309a565b614bcb604083018461308b565b949350505050565b7f4e6f742061206a7564676520666f722074686973206368616c6c656e67650000600082015250565b6000614c09601e836130b4565b9150614c1482614bd3565b602082019050919050565b60006020820190508181036000830152614c3881614bfc565b9050919050565b7f4a75646765206973206e6f742061637469766500000000000000000000000000600082015250565b6000614c756013836130b4565b9150614c8082614c3f565b602082019050919050565b60006020820190508181036000830152614ca481614c68565b9050919050565b7f4368616c6c656e6765206e6f7420696e206a756467696e672070686173650000600082015250565b6000614ce1601e836130b4565b9150614cec82614cab565b602082019050919050565b60006020820190508181036000830152614d1081614cd4565b9050919050565b7f4a7564676520646f6573206e6f74206578697374000000000000000000000000600082015250565b6000614d4d6014836130b4565b9150614d5882614d17565b602082019050919050565b60006020820190508181036000830152614d7c81614d40565b9050919050565b6000602082019050614d9860008301846139a8565b92915050565b7f496e76616c696420616464726573730000000000000000000000000000000000600082015250565b6000614dd4600f836130b4565b9150614ddf82614d9e565b602082019050919050565b60006020820190508181036000830152614e0381614dc7565b9050919050565b7f4a7564676520616c726561647920657869737473000000000000000000000000600082015250565b6000614e406014836130b4565b9150614e4b82614e0a565b602082019050919050565b60006020820190508181036000830152614e6f81614e33565b9050919050565b60006020820190508181036000830152614e908184613100565b905092915050565b7f4f776e61626c653a206e6577206f776e657220697320746865207a65726f206160008201527f6464726573730000000000000000000000000000000000000000000000000000602082015250565b6000614ef46026836130b4565b9150614eff82614e98565b604082019050919050565b60006020820190508181036000830152614f2381614ee7565b9050919050565b7f5265656e7472616e637947756172643a207265656e7472616e742063616c6c00600082015250565b6000614f60601f836130b4565b9150614f6b82614f2a565b602082019050919050565b60006020820190508181036000830152614f8f81614f53565b9050919050565b7f4f776e61626c653a2063616c6c6572206973206e6f7420746865206f776e6572600082015250565b6000614fcc6020836130b4565b9150614fd782614f96565b602082019050919050565b60006020820190508181036000830152614ffb81614fbf565b905091905056fea2646970667358221220702a18434fca19dfd099eeb2e1b513e56c77e67e20ed369f83e8e2fb60921ade64736f6c634300081c0033",
  "linkReferences": {},
  "deployedLinkReferences": {}
}