{
    "abi": [
        {
            "type": "constructor",
            "inputs": [
                {
                    "name": "_registry",
                    "type": "address",
                    "internalType": "address"
                }
            ],
            "stateMutability": "nonpayable"
        },
        {
            "type": "function",
            "name": "available",
            "inputs": [
                {
                    "name": "label",
                    "type": "string",
                    "internalType": "string"
                }
            ],
            "outputs": [
                {
                    "name": "",
                    "type": "bool",
                    "internalType": "bool"
                }
            ],
            "stateMutability": "view"
        },
        {
            "type": "function",
            "name": "chainId",
            "inputs": [],
            "outputs": [
                {
                    "name": "",
                    "type": "uint256",
                    "internalType": "uint256"
                }
            ],
            "stateMutability": "view"
        },
        {
            "type": "function",
            "name": "coinType",
            "inputs": [],
            "outputs": [
                {
                    "name": "",
                    "type": "uint256",
                    "internalType": "uint256"
                }
            ],
            "stateMutability": "view"
        },
        {
            "type": "function",
            "name": "register",
            "inputs": [
                {
                    "name": "label",
                    "type": "string",
                    "internalType": "string"
                },
                {
                    "name": "owner",
                    "type": "address",
                    "internalType": "address"
                }
            ],
            "outputs": [],
            "stateMutability": "nonpayable"
        },
        {
            "type": "function",
            "name": "registry",
            "inputs": [],
            "outputs": [
                {
                    "name": "",
                    "type": "address",
                    "internalType": "contract IL2Registry"
                }
            ],
            "stateMutability": "view"
        },
        {
            "type": "event",
            "name": "NameRegistered",
            "inputs": [
                {
                    "name": "label",
                    "type": "string",
                    "indexed": true,
                    "internalType": "string"
                },
                {
                    "name": "owner",
                    "type": "address",
                    "indexed": true,
                    "internalType": "address"
                }
            ],
            "anonymous": false
        }
    ],
    "bytecode": {
        "object": "0x60c060405234801561001057600080fd5b50604051610b11380380610b1183398101604081905261002f9161004f565b46600081905563800000001760a0526001600160a01b031660805261007f565b60006020828403121561006157600080fd5b81516001600160a01b038116811461007857600080fd5b9392505050565b60805160a051610a376100da600039600081816076015261019901526000818160b0015281816101620152818161020a0152818161027a015281816102a9015281816104370152818161051401526105430152610a376000f3fe608060405234801561001057600080fd5b50600436106100575760003560e01c80631e59c5291461005c5780631fe93ea8146100715780637b103999146100ab5780639a8a0592146100ea578063aeb8ce9b146100f3575b600080fd5b61006f61006a36600461078f565b610116565b005b6100987f000000000000000000000000000000000000000000000000000000000000000081565b6040519081526020015b60405180910390f35b6100d27f000000000000000000000000000000000000000000000000000000000000000081565b6040516001600160a01b0390911681526020016100a2565b61009860005481565b6101066101013660046107e6565b61040f565b60405190151581526020016100a2565b60006101228484610510565b60408051606085901b6bffffffffffffffffffffffff19166020820152815160148183030181526034820192839052638b95dd7160e01b909252919250907f00000000000000000000000000000000000000000000000000000000000000006001600160a01b031690638b95dd71906101c39085907f000000000000000000000000000000000000000000000000000000000000000090869060380161086e565b600060405180830381600087803b1580156101dd57600080fd5b505af11580156101f1573d6000803e3d6000fd5b5050604051638b95dd7160e01b81526001600160a01b037f0000000000000000000000000000000000000000000000000000000000000000169250638b95dd719150610246908590603c90869060040161086e565b600060405180830381600087803b15801561026057600080fd5b505af1158015610274573d6000803e3d6000fd5b505050507f00000000000000000000000000000000000000000000000000000000000000006001600160a01b0316638bf9baba7f00000000000000000000000000000000000000000000000000000000000000006001600160a01b031663ddf7fcb06040518163ffffffff1660e01b8152600401602060405180830381865afa158015610305573d6000803e3d6000fd5b505050506040513d601f19601f820116820180604052508101906103299190610896565b60408051600080825260208201909252899189918991610359565b60608152602001906001900390816103445790505b506040518663ffffffff1660e01b815260040161037a9594939291906108d8565b6020604051808303816000875af1158015610399573d6000803e3d6000fd5b505050506040513d601f19601f820116820180604052508101906103bd9190610896565b50826001600160a01b031685856040516103d8929190610962565b604051908190038120907f1c6eac0e720ec22bb0653aec9c19985633a4fb07971cf973096c2f8e3c37c17f90600090a35050505050565b60008061041c8484610510565b6040516331a9108f60e11b81526004810182905290915081907f00000000000000000000000000000000000000000000000000000000000000006001600160a01b031690636352211e90602401602060405180830381865afa9250505080156104a2575060408051601f3d908101601f1916820190925261049f91810190610972565b60015b6105025760036104e786868080601f01602080910402602001604051908101604052809392919081815260200183838082843760009201919091525061062b92505050565b106104f75760019250505061050a565b60009250505061050a565b506000925050505b92915050565b60007f00000000000000000000000000000000000000000000000000000000000000006001600160a01b031663b0c3ade47f00000000000000000000000000000000000000000000000000000000000000006001600160a01b031663ddf7fcb06040518163ffffffff1660e01b8152600401602060405180830381865afa15801561059f573d6000803e3d6000fd5b505050506040513d601f19601f820116820180604052508101906105c39190610896565b85856040518463ffffffff1660e01b81526004016105e39392919061098f565b602060405180830381865afa158015610600573d6000803e3d6000fd5b505050506040513d601f19601f820116820180604052508101906106249190610896565b9392505050565b8051600090819081905b80821015610725576000858381518110610651576106516109a9565b01602001516001600160f81b0319169050600160ff1b811015610680576106796001846109d5565b9250610712565b600760fd1b6001600160f81b0319821610156106a1576106796002846109d5565b600f60fc1b6001600160f81b0319821610156106c2576106796003846109d5565b601f60fb1b6001600160f81b0319821610156106e3576106796004846109d5565b603f60fa1b6001600160f81b031982161015610704576106796005846109d5565b61070f6006846109d5565b92505b508261071d816109e8565b935050610635565b50909392505050565b60008083601f84011261074057600080fd5b50813567ffffffffffffffff81111561075857600080fd5b60208301915083602082850101111561077057600080fd5b9250929050565b6001600160a01b038116811461078c57600080fd5b50565b6000806000604084860312156107a457600080fd5b833567ffffffffffffffff8111156107bb57600080fd5b6107c78682870161072e565b90945092505060208401356107db81610777565b809150509250925092565b600080602083850312156107f957600080fd5b823567ffffffffffffffff81111561081057600080fd5b61081c8582860161072e565b90969095509350505050565b6000815180845260005b8181101561084e57602081850181015186830182015201610832565b506000602082860101526020601f19601f83011685010191505092915050565b83815282602082015260606040820152600061088d6060830184610828565b95945050505050565b6000602082840312156108a857600080fd5b5051919050565b81835281816020850137506000828201602090810191909152601f909101601f19169091010190565b858152600060206080818401526108f36080840187896108af565b6001600160a01b03861660408501528381036060850152845180825282820190600581901b8301840184880160005b8381101561095057601f1986840301855261093e838351610828565b94870194925090860190600101610922565b50909c9b505050505050505050505050565b8183823760009101908152919050565b60006020828403121561098457600080fd5b815161062481610777565b83815260406020820152600061088d6040830184866108af565b634e487b7160e01b600052603260045260246000fd5b634e487b7160e01b600052601160045260246000fd5b8082018082111561050a5761050a6109bf565b6000600182016109fa576109fa6109bf565b506001019056fea264697066735822122017de7005a495a866eba22fb171b227fd3326d8232e2470eb26c4f1666834061464736f6c63430008140033",
        "linkReferences": {}
    },
    "methodIdentifiers": {
        "available(string)": "aeb8ce9b",
        "chainId()": "9a8a0592",
        "coinType()": "1fe93ea8",
        "register(string,address)": "1e59c529",
        "registry()": "7b103999"
    },
    "id": 68
}