{
  "_format": "hh-sol-artifact-1",
  "contractName": "WorldHealthToken",
  "sourceName": "contracts/WorldHealthToken.sol",
  "abi": [
    {
      "inputs": [
        {
          "internalType": "uint256",
          "name": "initialSupply",
          "type": "uint256"
        }
      ],
      "stateMutability": "nonpayable",
      "type": "constructor"
    },
    {
      "anonymous": false,
      "inputs": [
        {
          "indexed": true,
          "internalType": "address",
          "name": "owner",
          "type": "address"
        },
        {
          "indexed": true,
          "internalType": "address",
          "name": "spender",
          "type": "address"
        },
        {
          "indexed": false,
          "internalType": "uint256",
          "name": "value",
          "type": "uint256"
        }
      ],
      "name": "Approval",
      "type": "event"
    },
    {
      "anonymous": false,
      "inputs": [
        {
          "indexed": true,
          "internalType": "address",
          "name": "minter",
          "type": "address"
        }
      ],
      "name": "MinterAdded",
      "type": "event"
    },
    {
      "anonymous": false,
      "inputs": [
        {
          "indexed": true,
          "internalType": "address",
          "name": "minter",
          "type": "address"
        }
      ],
      "name": "MinterRemoved",
      "type": "event"
    },
    {
      "anonymous": false,
      "inputs": [
        {
          "indexed": true,
          "internalType": "address",
          "name": "previousOwner",
          "type": "address"
        },
        {
          "indexed": true,
          "internalType": "address",
          "name": "newOwner",
          "type": "address"
        }
      ],
      "name": "OwnershipTransferred",
      "type": "event"
    },
    {
      "anonymous": false,
      "inputs": [
        {
          "indexed": true,
          "internalType": "address",
          "name": "controller",
          "type": "address"
        }
      ],
      "name": "RewardsControllerSet",
      "type": "event"
    },
    {
      "anonymous": false,
      "inputs": [
        {
          "indexed": true,
          "internalType": "address",
          "name": "from",
          "type": "address"
        },
        {
          "indexed": true,
          "internalType": "address",
          "name": "to",
          "type": "address"
        },
        {
          "indexed": false,
          "internalType": "uint256",
          "name": "value",
          "type": "uint256"
        }
      ],
      "name": "Transfer",
      "type": "event"
    },
    {
      "inputs": [
        {
          "internalType": "address",
          "name": "minter",
          "type": "address"
        }
      ],
      "name": "addMinter",
      "outputs": [],
      "stateMutability": "nonpayable",
      "type": "function"
    },
    {
      "inputs": [
        {
          "internalType": "address",
          "name": "owner",
          "type": "address"
        },
        {
          "internalType": "address",
          "name": "spender",
          "type": "address"
        }
      ],
      "name": "allowance",
      "outputs": [
        {
          "internalType": "uint256",
          "name": "",
          "type": "uint256"
        }
      ],
      "stateMutability": "view",
      "type": "function"
    },
    {
      "inputs": [
        {
          "internalType": "address",
          "name": "spender",
          "type": "address"
        },
        {
          "internalType": "uint256",
          "name": "amount",
          "type": "uint256"
        }
      ],
      "name": "approve",
      "outputs": [
        {
          "internalType": "bool",
          "name": "",
          "type": "bool"
        }
      ],
      "stateMutability": "nonpayable",
      "type": "function"
    },
    {
      "inputs": [
        {
          "internalType": "address",
          "name": "",
          "type": "address"
        }
      ],
      "name": "authorizedMinters",
      "outputs": [
        {
          "internalType": "bool",
          "name": "",
          "type": "bool"
        }
      ],
      "stateMutability": "view",
      "type": "function"
    },
    {
      "inputs": [
        {
          "internalType": "address",
          "name": "account",
          "type": "address"
        }
      ],
      "name": "balanceOf",
      "outputs": [
        {
          "internalType": "uint256",
          "name": "",
          "type": "uint256"
        }
      ],
      "stateMutability": "view",
      "type": "function"
    },
    {
      "inputs": [
        {
          "internalType": "uint256",
          "name": "amount",
          "type": "uint256"
        }
      ],
      "name": "burn",
      "outputs": [],
      "stateMutability": "nonpayable",
      "type": "function"
    },
    {
      "inputs": [],
      "name": "decimals",
      "outputs": [
        {
          "internalType": "uint8",
          "name": "",
          "type": "uint8"
        }
      ],
      "stateMutability": "view",
      "type": "function"
    },
    {
      "inputs": [
        {
          "internalType": "address",
          "name": "spender",
          "type": "address"
        },
        {
          "internalType": "uint256",
          "name": "subtractedValue",
          "type": "uint256"
        }
      ],
      "name": "decreaseAllowance",
      "outputs": [
        {
          "internalType": "bool",
          "name": "",
          "type": "bool"
        }
      ],
      "stateMutability": "nonpayable",
      "type": "function"
    },
    {
      "inputs": [
        {
          "internalType": "address",
          "name": "spender",
          "type": "address"
        },
        {
          "internalType": "uint256",
          "name": "addedValue",
          "type": "uint256"
        }
      ],
      "name": "increaseAllowance",
      "outputs": [
        {
          "internalType": "bool",
          "name": "",
          "type": "bool"
        }
      ],
      "stateMutability": "nonpayable",
      "type": "function"
    },
    {
      "inputs": [
        {
          "internalType": "address",
          "name": "to",
          "type": "address"
        },
        {
          "internalType": "uint256",
          "name": "amount",
          "type": "uint256"
        }
      ],
      "name": "mint",
      "outputs": [],
      "stateMutability": "nonpayable",
      "type": "function"
    },
    {
      "inputs": [
        {
          "internalType": "address",
          "name": "to",
          "type": "address"
        },
        {
          "internalType": "uint256",
          "name": "amount",
          "type": "uint256"
        }
      ],
      "name": "mintRewards",
      "outputs": [],
      "stateMutability": "nonpayable",
      "type": "function"
    },
    {
      "inputs": [],
      "name": "name",
      "outputs": [
        {
          "internalType": "string",
          "name": "",
          "type": "string"
        }
      ],
      "stateMutability": "view",
      "type": "function"
    },
    {
      "inputs": [],
      "name": "owner",
      "outputs": [
        {
          "internalType": "address",
          "name": "",
          "type": "address"
        }
      ],
      "stateMutability": "view",
      "type": "function"
    },
    {
      "inputs": [
        {
          "internalType": "address",
          "name": "minter",
          "type": "address"
        }
      ],
      "name": "removeMinter",
      "outputs": [],
      "stateMutability": "nonpayable",
      "type": "function"
    },
    {
      "inputs": [],
      "name": "renounceOwnership",
      "outputs": [],
      "stateMutability": "nonpayable",
      "type": "function"
    },
    {
      "inputs": [],
      "name": "rewardsController",
      "outputs": [
        {
          "internalType": "address",
          "name": "",
          "type": "address"
        }
      ],
      "stateMutability": "view",
      "type": "function"
    },
    {
      "inputs": [
        {
          "internalType": "address",
          "name": "controller",
          "type": "address"
        }
      ],
      "name": "setRewardsController",
      "outputs": [],
      "stateMutability": "nonpayable",
      "type": "function"
    },
    {
      "inputs": [],
      "name": "symbol",
      "outputs": [
        {
          "internalType": "string",
          "name": "",
          "type": "string"
        }
      ],
      "stateMutability": "view",
      "type": "function"
    },
    {
      "inputs": [],
      "name": "totalSupply",
      "outputs": [
        {
          "internalType": "uint256",
          "name": "",
          "type": "uint256"
        }
      ],
      "stateMutability": "view",
      "type": "function"
    },
    {
      "inputs": [
        {
          "internalType": "address",
          "name": "to",
          "type": "address"
        },
        {
          "internalType": "uint256",
          "name": "amount",
          "type": "uint256"
        }
      ],
      "name": "transfer",
      "outputs": [
        {
          "internalType": "bool",
          "name": "",
          "type": "bool"
        }
      ],
      "stateMutability": "nonpayable",
      "type": "function"
    },
    {
      "inputs": [
        {
          "internalType": "address",
          "name": "from",
          "type": "address"
        },
        {
          "internalType": "address",
          "name": "to",
          "type": "address"
        },
        {
          "internalType": "uint256",
          "name": "amount",
          "type": "uint256"
        }
      ],
      "name": "transferFrom",
      "outputs": [
        {
          "internalType": "bool",
          "name": "",
          "type": "bool"
        }
      ],
      "stateMutability": "nonpayable",
      "type": "function"
    },
    {
      "inputs": [
        {
          "internalType": "address",
          "name": "newOwner",
          "type": "address"
        }
      ],
      "name": "transferOwnership",
      "outputs": [],
      "stateMutability": "nonpayable",
      "type": "function"
    }
  ],
  "bytecode": "0x608060405234801561001057600080fd5b50604051612c25380380612c2583398181016040528101906100329190610394565b6040518060400160405280601281526020017f576f726c64204865616c746820546f6b656e00000000000000000000000000008152506040518060400160405280600381526020017f574c44000000000000000000000000000000000000000000000000000000000081525081600390816100ad9190610607565b5080600490816100bd9190610607565b5050506100dc6100d161011660201b60201c565b61011e60201b60201c565b610110336100ee6101e460201b60201c565b600a6100fa9190610848565b836101059190610893565b6101ed60201b60201c565b506109b0565b600033905090565b6000600560009054906101000a900473ffffffffffffffffffffffffffffffffffffffff16905081600560006101000a81548173ffffffffffffffffffffffffffffffffffffffff021916908373ffffffffffffffffffffffffffffffffffffffff1602179055508173ffffffffffffffffffffffffffffffffffffffff168173ffffffffffffffffffffffffffffffffffffffff167f8be0079c531659141344cd1fd0a4f28419497f9722a3daafe3b4186f6b6457e060405160405180910390a35050565b60006012905090565b600073ffffffffffffffffffffffffffffffffffffffff168273ffffffffffffffffffffffffffffffffffffffff160361025c576040517f08c379a000000000000000000000000000000000000000000000000000000000815260040161025390610932565b60405180910390fd5b61026e6000838361034f60201b60201c565b80600260008282546102809190610952565b92505081905550806000808473ffffffffffffffffffffffffffffffffffffffff1673ffffffffffffffffffffffffffffffffffffffff168152602001908152602001600020600082825401925050819055508173ffffffffffffffffffffffffffffffffffffffff16600073ffffffffffffffffffffffffffffffffffffffff167fddf252ad1be2c89b69c2b068fc378daa952ba7f163c4a11628f55a4df523b3ef836040516103319190610995565b60405180910390a361034b6000838361035460201b60201c565b5050565b505050565b505050565b600080fd5b6000819050919050565b6103718161035e565b811461037c57600080fd5b50565b60008151905061038e81610368565b92915050565b6000602082840312156103aa576103a9610359565b5b60006103b88482850161037f565b91505092915050565b600081519050919050565b7f4e487b7100000000000000000000000000000000000000000000000000000000600052604160045260246000fd5b7f4e487b7100000000000000000000000000000000000000000000000000000000600052602260045260246000fd5b6000600282049050600182168061044257607f821691505b602082108103610455576104546103fb565b5b50919050565b60008190508160005260206000209050919050565b60006020601f8301049050919050565b600082821b905092915050565b6000600883026104bd7fffffffffffffffffffffffffffffffffffffffffffffffffffffffffffffffff82610480565b6104c78683610480565b95508019841693508086168417925050509392505050565b6000819050919050565b60006105046104ff6104fa8461035e565b6104df565b61035e565b9050919050565b6000819050919050565b61051e836104e9565b61053261052a8261050b565b84845461048d565b825550505050565b600090565b61054761053a565b610552818484610515565b505050565b5b818110156105765761056b60008261053f565b600181019050610558565b5050565b601f8211156105bb5761058c8161045b565b61059584610470565b810160208510156105a4578190505b6105b86105b085610470565b830182610557565b50505b505050565b600082821c905092915050565b60006105de600019846008026105c0565b1980831691505092915050565b60006105f783836105cd565b9150826002028217905092915050565b610610826103c1565b67ffffffffffffffff811115610629576106286103cc565b5b610633825461042a565b61063e82828561057a565b600060209050601f831160018114610671576000841561065f578287015190505b61066985826105eb565b8655506106d1565b601f19841661067f8661045b565b60005b828110156106a757848901518255600182019150602085019450602081019050610682565b868310156106c457848901516106c0601f8916826105cd565b8355505b6001600288020188555050505b505050505050565b7f4e487b7100000000000000000000000000000000000000000000000000000000600052601160045260246000fd5b60008160011c9050919050565b6000808291508390505b600185111561075f5780860481111561073b5761073a6106d9565b5b600185161561074a5780820291505b808102905061075885610708565b945061071f565b94509492505050565b6000826107785760019050610834565b816107865760009050610834565b816001811461079c57600281146107a6576107d5565b6001915050610834565b60ff8411156107b8576107b76106d9565b5b8360020a9150848211156107cf576107ce6106d9565b5b50610834565b5060208310610133831016604e8410600b841016171561080a5782820a905083811115610805576108046106d9565b5b610834565b6108178484846001610715565b9250905081840481111561082e5761082d6106d9565b5b81810290505b9392505050565b600060ff82169050919050565b60006108538261035e565b915061085e8361083b565b925061088b7fffffffffffffffffffffffffffffffffffffffffffffffffffffffffffffffff8484610768565b905092915050565b600061089e8261035e565b91506108a98361035e565b92508282026108b78161035e565b915082820484148315176108ce576108cd6106d9565b5b5092915050565b600082825260208201905092915050565b7f45524332303a206d696e7420746f20746865207a65726f206164647265737300600082015250565b600061091c601f836108d5565b9150610927826108e6565b602082019050919050565b6000602082019050818103600083015261094b8161090f565b9050919050565b600061095d8261035e565b91506109688361035e565b92508282019050808211156109805761097f6106d9565b5b92915050565b61098f8161035e565b82525050565b60006020820190506109aa6000830184610986565b92915050565b612266806109bf6000396000f3fe608060405234801561001057600080fd5b50600436106101425760003560e01c806370a08231116100b8578063a457c2d71161007c578063a457c2d714610351578063a9059cbb14610381578063aa2fe91b146103b1578063bee36bb3146103e1578063dd62ed3e146103fd578063f2fde38b1461042d57610142565b806370a08231146102bf578063715018a6146102ef5780638da5cb5b146102f957806395d89b4114610317578063983b2d561461033557610142565b8063313ce5671161010a578063313ce567146101ff578063395093511461021d57806340c10f191461024d57806342966c68146102695780636a20de92146102855780636bb65f53146102a157610142565b806306fdde0314610147578063095ea7b31461016557806318160ddd1461019557806323b872dd146101b35780633092afd5146101e3575b600080fd5b61014f610449565b60405161015c9190611688565b60405180910390f35b61017f600480360381019061017a9190611743565b6104db565b60405161018c919061179e565b60405180910390f35b61019d6104fe565b6040516101aa91906117c8565b60405180910390f35b6101cd60048036038101906101c891906117e3565b610508565b6040516101da919061179e565b60405180910390f35b6101fd60048036038101906101f89190611836565b610537565b005b6102076105dd565b604051610214919061187f565b60405180910390f35b61023760048036038101906102329190611743565b6105e6565b604051610244919061179e565b60405180910390f35b61026760048036038101906102629190611743565b61061d565b005b610283600480360381019061027e919061189a565b6106f4565b005b61029f600480360381019061029a9190611743565b610701565b005b6102a961079f565b6040516102b691906118d6565b60405180910390f35b6102d960048036038101906102d49190611836565b6107c5565b6040516102e691906117c8565b60405180910390f35b6102f761080d565b005b610301610821565b60405161030e91906118d6565b60405180910390f35b61031f61084b565b60405161032c9190611688565b60405180910390f35b61034f600480360381019061034a9190611836565b6108dd565b005b61036b60048036038101906103669190611743565b6109f2565b604051610378919061179e565b60405180910390f35b61039b60048036038101906103969190611743565b610a69565b6040516103a8919061179e565b60405180910390f35b6103cb60048036038101906103c69190611836565b610a8c565b6040516103d8919061179e565b60405180910390f35b6103fb60048036038101906103f69190611836565b610aac565b005b610417600480360381019061041291906118f1565b610baa565b60405161042491906117c8565b60405180910390f35b61044760048036038101906104429190611836565b610c31565b005b60606003805461045890611960565b80601f016020809104026020016040519081016040528092919081815260200182805461048490611960565b80156104d15780601f106104a6576101008083540402835291602001916104d1565b820191906000526020600020905b8154815290600101906020018083116104b457829003601f168201915b5050505050905090565b6000806104e6610cb4565b90506104f3818585610cbc565b600191505092915050565b6000600254905090565b600080610513610cb4565b9050610520858285610e85565b61052b858585610f11565b60019150509392505050565b61053f611187565b6000600760008373ffffffffffffffffffffffffffffffffffffffff1673ffffffffffffffffffffffffffffffffffffffff16815260200190815260200160002060006101000a81548160ff0219169083151502179055508073ffffffffffffffffffffffffffffffffffffffff167fe94479a9f7e1952cc78f2d6baab678adc1b772d936c6583def489e524cb6669260405160405180910390a250565b60006012905090565b6000806105f1610cb4565b90506106128185856106038589610baa565b61060d91906119c0565b610cbc565b600191505092915050565b600760003373ffffffffffffffffffffffffffffffffffffffff1673ffffffffffffffffffffffffffffffffffffffff16815260200190815260200160002060009054906101000a900460ff16806106a75750610678610821565b73ffffffffffffffffffffffffffffffffffffffff163373ffffffffffffffffffffffffffffffffffffffff16145b6106e6576040517f08c379a00000000000000000000000000000000000000000000000000000000081526004016106dd90611a40565b60405180910390fd5b6106f08282611205565b5050565b6106fe338261135b565b50565b600660009054906101000a900473ffffffffffffffffffffffffffffffffffffffff1673ffffffffffffffffffffffffffffffffffffffff163373ffffffffffffffffffffffffffffffffffffffff1614610791576040517f08c379a000000000000000000000000000000000000000000000000000000000815260040161078890611ad2565b60405180910390fd5b61079b8282611205565b5050565b600660009054906101000a900473ffffffffffffffffffffffffffffffffffffffff1681565b60008060008373ffffffffffffffffffffffffffffffffffffffff1673ffffffffffffffffffffffffffffffffffffffff168152602001908152602001600020549050919050565b610815611187565b61081f6000611528565b565b6000600560009054906101000a900473ffffffffffffffffffffffffffffffffffffffff16905090565b60606004805461085a90611960565b80601f016020809104026020016040519081016040528092919081815260200182805461088690611960565b80156108d35780601f106108a8576101008083540402835291602001916108d3565b820191906000526020600020905b8154815290600101906020018083116108b657829003601f168201915b5050505050905090565b6108e5611187565b600073ffffffffffffffffffffffffffffffffffffffff168173ffffffffffffffffffffffffffffffffffffffff1603610954576040517f08c379a000000000000000000000000000000000000000000000000000000000815260040161094b90611b3e565b60405180910390fd5b6001600760008373ffffffffffffffffffffffffffffffffffffffff1673ffffffffffffffffffffffffffffffffffffffff16815260200190815260200160002060006101000a81548160ff0219169083151502179055508073ffffffffffffffffffffffffffffffffffffffff167f6ae172837ea30b801fbfcdd4108aa1d5bf8ff775444fd70256b44e6bf3dfc3f660405160405180910390a250565b6000806109fd610cb4565b90506000610a0b8286610baa565b905083811015610a50576040517f08c379a0000000000000000000000000000000000000000000000000000000008152600401610a4790611bd0565b60405180910390fd5b610a5d8286868403610cbc565b60019250505092915050565b600080610a74610cb4565b9050610a81818585610f11565b600191505092915050565b60076020528060005260406000206000915054906101000a900460ff1681565b610ab4611187565b600073ffffffffffffffffffffffffffffffffffffffff168173ffffffffffffffffffffffffffffffffffffffff1603610b23576040517f08c379a0000000000000000000000000000000000000000000000000000000008152600401610b1a90611c3c565b60405180910390fd5b80600660006101000a81548173ffffffffffffffffffffffffffffffffffffffff021916908373ffffffffffffffffffffffffffffffffffffffff1602179055508073ffffffffffffffffffffffffffffffffffffffff167fbe945f1688d0c44e4727dde3ee4f1f52c5263e6213e3d6321cf7804cbe33be3c60405160405180910390a250565b6000600160008473ffffffffffffffffffffffffffffffffffffffff1673ffffffffffffffffffffffffffffffffffffffff16815260200190815260200160002060008373ffffffffffffffffffffffffffffffffffffffff1673ffffffffffffffffffffffffffffffffffffffff16815260200190815260200160002054905092915050565b610c39611187565b600073ffffffffffffffffffffffffffffffffffffffff168173ffffffffffffffffffffffffffffffffffffffff1603610ca8576040517f08c379a0000000000000000000000000000000000000000000000000000000008152600401610c9f90611cce565b60405180910390fd5b610cb181611528565b50565b600033905090565b600073ffffffffffffffffffffffffffffffffffffffff168373ffffffffffffffffffffffffffffffffffffffff1603610d2b576040517f08c379a0000000000000000000000000000000000000000000000000000000008152600401610d2290611d60565b60405180910390fd5b600073ffffffffffffffffffffffffffffffffffffffff168273ffffffffffffffffffffffffffffffffffffffff1603610d9a576040517f08c379a0000000000000000000000000000000000000000000000000000000008152600401610d9190611df2565b60405180910390fd5b80600160008573ffffffffffffffffffffffffffffffffffffffff1673ffffffffffffffffffffffffffffffffffffffff16815260200190815260200160002060008473ffffffffffffffffffffffffffffffffffffffff1673ffffffffffffffffffffffffffffffffffffffff168152602001908152602001600020819055508173ffffffffffffffffffffffffffffffffffffffff168373ffffffffffffffffffffffffffffffffffffffff167f8c5be1e5ebec7d5bd14f71427d1e84f3dd0314c0f7b2291e5b200ac8c7c3b92583604051610e7891906117c8565b60405180910390a3505050565b6000610e918484610baa565b90507fffffffffffffffffffffffffffffffffffffffffffffffffffffffffffffffff8114610f0b5781811015610efd576040517f08c379a0000000000000000000000000000000000000000000000000000000008152600401610ef490611e5e565b60405180910390fd5b610f0a8484848403610cbc565b5b50505050565b600073ffffffffffffffffffffffffffffffffffffffff168373ffffffffffffffffffffffffffffffffffffffff1603610f80576040517f08c379a0000000000000000000000000000000000000000000000000000000008152600401610f7790611ef0565b60405180910390fd5b600073ffffffffffffffffffffffffffffffffffffffff168273ffffffffffffffffffffffffffffffffffffffff1603610fef576040517f08c379a0000000000000000000000000000000000000000000000000000000008152600401610fe690611f82565b60405180910390fd5b610ffa8383836115ee565b60008060008573ffffffffffffffffffffffffffffffffffffffff1673ffffffffffffffffffffffffffffffffffffffff16815260200190815260200160002054905081811015611080576040517f08c379a000000000000000000000000000000000000000000000000000000000815260040161107790612014565b60405180910390fd5b8181036000808673ffffffffffffffffffffffffffffffffffffffff1673ffffffffffffffffffffffffffffffffffffffff16815260200190815260200160002081905550816000808573ffffffffffffffffffffffffffffffffffffffff1673ffffffffffffffffffffffffffffffffffffffff168152602001908152602001600020600082825401925050819055508273ffffffffffffffffffffffffffffffffffffffff168473ffffffffffffffffffffffffffffffffffffffff167fddf252ad1be2c89b69c2b068fc378daa952ba7f163c4a11628f55a4df523b3ef8460405161116e91906117c8565b60405180910390a36111818484846115f3565b50505050565b61118f610cb4565b73ffffffffffffffffffffffffffffffffffffffff166111ad610821565b73ffffffffffffffffffffffffffffffffffffffff1614611203576040517f08c379a00000000000000000000000000000000000000000000000000000000081526004016111fa90612080565b60405180910390fd5b565b600073ffffffffffffffffffffffffffffffffffffffff168273ffffffffffffffffffffffffffffffffffffffff1603611274576040517f08c379a000000000000000000000000000000000000000000000000000000000815260040161126b906120ec565b60405180910390fd5b611280600083836115ee565b806002600082825461129291906119c0565b92505081905550806000808473ffffffffffffffffffffffffffffffffffffffff1673ffffffffffffffffffffffffffffffffffffffff168152602001908152602001600020600082825401925050819055508173ffffffffffffffffffffffffffffffffffffffff16600073ffffffffffffffffffffffffffffffffffffffff167fddf252ad1be2c89b69c2b068fc378daa952ba7f163c4a11628f55a4df523b3ef8360405161134391906117c8565b60405180910390a3611357600083836115f3565b5050565b600073ffffffffffffffffffffffffffffffffffffffff168273ffffffffffffffffffffffffffffffffffffffff16036113ca576040517f08c379a00000000000000000000000000000000000000000000000000000000081526004016113c19061217e565b60405180910390fd5b6113d6826000836115ee565b60008060008473ffffffffffffffffffffffffffffffffffffffff1673ffffffffffffffffffffffffffffffffffffffff1681526020019081526020016000205490508181101561145c576040517f08c379a000000000000000000000000000000000000000000000000000000000815260040161145390612210565b60405180910390fd5b8181036000808573ffffffffffffffffffffffffffffffffffffffff1673ffffffffffffffffffffffffffffffffffffffff1681526020019081526020016000208190555081600260008282540392505081905550600073ffffffffffffffffffffffffffffffffffffffff168373ffffffffffffffffffffffffffffffffffffffff167fddf252ad1be2c89b69c2b068fc378daa952ba7f163c4a11628f55a4df523b3ef8460405161150f91906117c8565b60405180910390a3611523836000846115f3565b505050565b6000600560009054906101000a900473ffffffffffffffffffffffffffffffffffffffff16905081600560006101000a81548173ffffffffffffffffffffffffffffffffffffffff021916908373ffffffffffffffffffffffffffffffffffffffff1602179055508173ffffffffffffffffffffffffffffffffffffffff168173ffffffffffffffffffffffffffffffffffffffff167f8be0079c531659141344cd1fd0a4f28419497f9722a3daafe3b4186f6b6457e060405160405180910390a35050565b505050565b505050565b600081519050919050565b600082825260208201905092915050565b60005b83811015611632578082015181840152602081019050611617565b60008484015250505050565b6000601f19601f8301169050919050565b600061165a826115f8565b6116648185611603565b9350611674818560208601611614565b61167d8161163e565b840191505092915050565b600060208201905081810360008301526116a2818461164f565b905092915050565b600080fd5b600073ffffffffffffffffffffffffffffffffffffffff82169050919050565b60006116da826116af565b9050919050565b6116ea816116cf565b81146116f557600080fd5b50565b600081359050611707816116e1565b92915050565b6000819050919050565b6117208161170d565b811461172b57600080fd5b50565b60008135905061173d81611717565b92915050565b6000806040838503121561175a576117596116aa565b5b6000611768858286016116f8565b92505060206117798582860161172e565b9150509250929050565b60008115159050919050565b61179881611783565b82525050565b60006020820190506117b3600083018461178f565b92915050565b6117c28161170d565b82525050565b60006020820190506117dd60008301846117b9565b92915050565b6000806000606084860312156117fc576117fb6116aa565b5b600061180a868287016116f8565b935050602061181b868287016116f8565b925050604061182c8682870161172e565b9150509250925092565b60006020828403121561184c5761184b6116aa565b5b600061185a848285016116f8565b91505092915050565b600060ff82169050919050565b61187981611863565b82525050565b60006020820190506118946000830184611870565b92915050565b6000602082840312156118b0576118af6116aa565b5b60006118be8482850161172e565b91505092915050565b6118d0816116cf565b82525050565b60006020820190506118eb60008301846118c7565b92915050565b60008060408385031215611908576119076116aa565b5b6000611916858286016116f8565b9250506020611927858286016116f8565b9150509250929050565b7f4e487b7100000000000000000000000000000000000000000000000000000000600052602260045260246000fd5b6000600282049050600182168061197857607f821691505b60208210810361198b5761198a611931565b5b50919050565b7f4e487b7100000000000000000000000000000000000000000000000000000000600052601160045260246000fd5b60006119cb8261170d565b91506119d68361170d565b92508282019050808211156119ee576119ed611991565b5b92915050565b7f4e6f7420617574686f72697a656420746f206d696e7400000000000000000000600082015250565b6000611a2a601683611603565b9150611a35826119f4565b602082019050919050565b60006020820190508181036000830152611a5981611a1d565b9050919050565b7f4f6e6c79207265776172647320636f6e74726f6c6c65722063616e206d696e7460008201527f2072657761726473000000000000000000000000000000000000000000000000602082015250565b6000611abc602883611603565b9150611ac782611a60565b604082019050919050565b60006020820190508181036000830152611aeb81611aaf565b9050919050565b7f496e76616c6964206d696e746572206164647265737300000000000000000000600082015250565b6000611b28601683611603565b9150611b3382611af2565b602082019050919050565b60006020820190508181036000830152611b5781611b1b565b9050919050565b7f45524332303a2064656372656173656420616c6c6f77616e63652062656c6f7760008201527f207a65726f000000000000000000000000000000000000000000000000000000602082015250565b6000611bba602583611603565b9150611bc582611b5e565b604082019050919050565b60006020820190508181036000830152611be981611bad565b9050919050565b7f496e76616c696420636f6e74726f6c6c65722061646472657373000000000000600082015250565b6000611c26601a83611603565b9150611c3182611bf0565b602082019050919050565b60006020820190508181036000830152611c5581611c19565b9050919050565b7f4f776e61626c653a206e6577206f776e657220697320746865207a65726f206160008201527f6464726573730000000000000000000000000000000000000000000000000000602082015250565b6000611cb8602683611603565b9150611cc382611c5c565b604082019050919050565b60006020820190508181036000830152611ce781611cab565b9050919050565b7f45524332303a20617070726f76652066726f6d20746865207a65726f2061646460008201527f7265737300000000000000000000000000000000000000000000000000000000602082015250565b6000611d4a602483611603565b9150611d5582611cee565b604082019050919050565b60006020820190508181036000830152611d7981611d3d565b9050919050565b7f45524332303a20617070726f766520746f20746865207a65726f20616464726560008201527f7373000000000000000000000000000000000000000000000000000000000000602082015250565b6000611ddc602283611603565b9150611de782611d80565b604082019050919050565b60006020820190508181036000830152611e0b81611dcf565b9050919050565b7f45524332303a20696e73756666696369656e7420616c6c6f77616e6365000000600082015250565b6000611e48601d83611603565b9150611e5382611e12565b602082019050919050565b60006020820190508181036000830152611e7781611e3b565b9050919050565b7f45524332303a207472616e736665722066726f6d20746865207a65726f20616460008201527f6472657373000000000000000000000000000000000000000000000000000000602082015250565b6000611eda602583611603565b9150611ee582611e7e565b604082019050919050565b60006020820190508181036000830152611f0981611ecd565b9050919050565b7f45524332303a207472616e7366657220746f20746865207a65726f206164647260008201527f6573730000000000000000000000000000000000000000000000000000000000602082015250565b6000611f6c602383611603565b9150611f7782611f10565b604082019050919050565b60006020820190508181036000830152611f9b81611f5f565b9050919050565b7f45524332303a207472616e7366657220616d6f756e742065786365656473206260008201527f616c616e63650000000000000000000000000000000000000000000000000000602082015250565b6000611ffe602683611603565b915061200982611fa2565b604082019050919050565b6000602082019050818103600083015261202d81611ff1565b9050919050565b7f4f776e61626c653a2063616c6c6572206973206e6f7420746865206f776e6572600082015250565b600061206a602083611603565b915061207582612034565b602082019050919050565b600060208201905081810360008301526120998161205d565b9050919050565b7f45524332303a206d696e7420746f20746865207a65726f206164647265737300600082015250565b60006120d6601f83611603565b91506120e1826120a0565b602082019050919050565b60006020820190508181036000830152612105816120c9565b9050919050565b7f45524332303a206275726e2066726f6d20746865207a65726f2061646472657360008201527f7300000000000000000000000000000000000000000000000000000000000000602082015250565b6000612168602183611603565b91506121738261210c565b604082019050919050565b600060208201905081810360008301526121978161215b565b9050919050565b7f45524332303a206275726e20616d6f756e7420657863656564732062616c616e60008201527f6365000000000000000000000000000000000000000000000000000000000000602082015250565b60006121fa602283611603565b91506122058261219e565b604082019050919050565b60006020820190508181036000830152612229816121ed565b905091905056fea2646970667358221220c2e10153ed8675d4f91b114baa223f09197b375cb95051f5176ad45cd34adae764736f6c634300081c0033",
  "linkReferences": {},
  "deployedLinkReferences": {}
}